{
	"cryptobinar.sol": {
		"cryptobinar": {
			"abi": [
				{
					"inputs": [
						{
							"internalType": "string",
							"name": "name",
							"type": "string"
						},
						{
							"internalType": "uint256",
							"name": "date",
							"type": "uint256"
						},
						{
							"internalType": "uint256",
							"name": "registrationFee",
							"type": "uint256"
						},
						{
							"internalType": "uint256",
							"name": "seatCount",
							"type": "uint256"
						}
					],
					"name": "createWorkshop",
					"outputs": [],
					"stateMutability": "nonpayable",
					"type": "function"
				},
				{
					"inputs": [],
					"name": "nextID",
					"outputs": [
						{
							"internalType": "uint256",
							"name": "",
							"type": "uint256"
						}
					],
					"stateMutability": "view",
					"type": "function"
				},
				{
					"inputs": [
						{
							"internalType": "uint256",
							"name": "id",
							"type": "uint256"
						},
						{
							"internalType": "uint256",
							"name": "quantity",
							"type": "uint256"
						}
					],
					"name": "registerWorkshop",
					"outputs": [],
					"stateMutability": "payable",
					"type": "function"
				},
				{
					"inputs": [
						{
							"internalType": "uint256",
							"name": "id",
							"type": "uint256"
						},
						{
							"internalType": "uint256",
							"name": "quantity",
							"type": "uint256"
						},
						{
							"internalType": "address",
							"name": "to",
							"type": "address"
						}
					],
					"name": "resellSeat",
					"outputs": [],
					"stateMutability": "nonpayable",
					"type": "function"
				},
				{
					"inputs": [
						{
							"internalType": "address",
							"name": "",
							"type": "address"
						},
						{
							"internalType": "uint256",
							"name": "",
							"type": "uint256"
						}
					],
					"name": "seats",
					"outputs": [
						{
							"internalType": "uint256",
							"name": "",
							"type": "uint256"
						}
					],
					"stateMutability": "view",
					"type": "function"
				},
				{
					"inputs": [
						{
							"internalType": "uint256",
							"name": "",
							"type": "uint256"
						}
					],
					"name": "workshops",
					"outputs": [
						{
							"internalType": "address",
							"name": "organizer",
							"type": "address"
						},
						{
							"internalType": "string",
							"name": "name",
							"type": "string"
						},
						{
							"internalType": "uint256",
							"name": "date",
							"type": "uint256"
						},
						{
							"internalType": "uint256",
							"name": "registrationFee",
							"type": "uint256"
						},
						{
							"internalType": "uint256",
							"name": "seatCount",
							"type": "uint256"
						},
						{
							"internalType": "uint256",
							"name": "seatRemaining",
							"type": "uint256"
						}
					],
					"stateMutability": "view",
					"type": "function"
				}
			],
			"devdoc": {
				"kind": "dev",
				"methods": {},
				"version": 1
			},
			"evm": {
				"assembly": "    /* \"cryptobinar.sol\":70:1781  contract cryptobinar {... */\n  mstore(0x40, 0x80)\n  callvalue\n  dup1\n  iszero\n  tag_1\n  jumpi\n  0x00\n  dup1\n  revert\ntag_1:\n  pop\n  dataSize(sub_0)\n  dup1\n  dataOffset(sub_0)\n  0x00\n  codecopy\n  0x00\n  return\nstop\n\nsub_0: assembly {\n        /* \"cryptobinar.sol\":70:1781  contract cryptobinar {... */\n      mstore(0x40, 0x80)\n      jumpi(tag_1, lt(calldatasize, 0x04))\n      shr(0xe0, calldataload(0x00))\n      dup1\n      0x1e96917d\n      eq\n      tag_2\n      jumpi\n      dup1\n      0x298a9aec\n      eq\n      tag_3\n      jumpi\n      dup1\n      0x521210c1\n      eq\n      tag_4\n      jumpi\n      dup1\n      0x61b36897\n      eq\n      tag_5\n      jumpi\n      dup1\n      0xa30dc775\n      eq\n      tag_6\n      jumpi\n      dup1\n      0xd422ea60\n      eq\n      tag_7\n      jumpi\n    tag_1:\n      0x00\n      dup1\n      revert\n        /* \"cryptobinar.sol\":400:418  uint public nextID */\n    tag_2:\n      callvalue\n      dup1\n      iszero\n      tag_8\n      jumpi\n      0x00\n      dup1\n      revert\n    tag_8:\n      pop\n      tag_9\n      tag_10\n      jump\t// in\n    tag_9:\n      mload(0x40)\n      tag_11\n      swap2\n      swap1\n      tag_12\n      jump\t// in\n    tag_11:\n      mload(0x40)\n      dup1\n      swap2\n      sub\n      swap1\n      return\n        /* \"cryptobinar.sol\":427:800  function createWorkshop(string memory name, uint date, uint registrationFee, uint seatCount) public {... */\n    tag_3:\n      callvalue\n      dup1\n      iszero\n      tag_13\n      jumpi\n      0x00\n      dup1\n      revert\n    tag_13:\n      pop\n      tag_14\n      0x04\n      dup1\n      calldatasize\n      sub\n      dup2\n      add\n      swap1\n      tag_15\n      swap2\n      swap1\n      tag_16\n      jump\t// in\n    tag_15:\n      tag_17\n      jump\t// in\n    tag_14:\n      stop\n        /* \"cryptobinar.sol\":1365:1762  function resellSeat(uint id, uint quantity, address to) external {... */\n    tag_4:\n      callvalue\n      dup1\n      iszero\n      tag_18\n      jumpi\n      0x00\n      dup1\n      revert\n    tag_18:\n      pop\n      tag_19\n      0x04\n      dup1\n      calldatasize\n      sub\n      dup2\n      add\n      swap1\n      tag_20\n      swap2\n      swap1\n      tag_21\n      jump\t// in\n    tag_20:\n      tag_22\n      jump\t// in\n    tag_19:\n      stop\n        /* \"cryptobinar.sol\":808:1357  function registerWorkshop(uint id, uint quantity) external payable {... */\n    tag_5:\n      tag_23\n      0x04\n      dup1\n      calldatasize\n      sub\n      dup2\n      add\n      swap1\n      tag_24\n      swap2\n      swap1\n      tag_25\n      jump\t// in\n    tag_24:\n      tag_26\n      jump\t// in\n    tag_23:\n      stop\n        /* \"cryptobinar.sol\":337:391  mapping(address => mapping(uint => uint)) public seats */\n    tag_6:\n      callvalue\n      dup1\n      iszero\n      tag_27\n      jumpi\n      0x00\n      dup1\n      revert\n    tag_27:\n      pop\n      tag_28\n      0x04\n      dup1\n      calldatasize\n      sub\n      dup2\n      add\n      swap1\n      tag_29\n      swap2\n      swap1\n      tag_30\n      jump\t// in\n    tag_29:\n      tag_31\n      jump\t// in\n    tag_28:\n      mload(0x40)\n      tag_32\n      swap2\n      swap1\n      tag_12\n      jump\t// in\n    tag_32:\n      mload(0x40)\n      dup1\n      swap2\n      sub\n      swap1\n      return\n        /* \"cryptobinar.sol\":286:328  mapping(uint => Workshop) public workshops */\n    tag_7:\n      callvalue\n      dup1\n      iszero\n      tag_33\n      jumpi\n      0x00\n      dup1\n      revert\n    tag_33:\n      pop\n      tag_34\n      0x04\n      dup1\n      calldatasize\n      sub\n      dup2\n      add\n      swap1\n      tag_35\n      swap2\n      swap1\n      tag_36\n      jump\t// in\n    tag_35:\n      tag_37\n      jump\t// in\n    tag_34:\n      mload(0x40)\n      tag_38\n      swap7\n      swap6\n      swap5\n      swap4\n      swap3\n      swap2\n      swap1\n      tag_39\n      jump\t// in\n    tag_38:\n      mload(0x40)\n      dup1\n      swap2\n      sub\n      swap1\n      return\n        /* \"cryptobinar.sol\":400:418  uint public nextID */\n    tag_10:\n      sload(0x02)\n      dup2\n      jump\t// out\n        /* \"cryptobinar.sol\":427:800  function createWorkshop(string memory name, uint date, uint registrationFee, uint seatCount) public {... */\n    tag_17:\n        /* \"cryptobinar.sol\":552:567  block.timestamp */\n      timestamp\n        /* \"cryptobinar.sol\":546:550  date */\n      dup4\n        /* \"cryptobinar.sol\":546:567  date> block.timestamp */\n      gt\n        /* \"cryptobinar.sol\":538:615  require(date> block.timestamp,\"Please organize workshop for future timeslot\") */\n      tag_41\n      jumpi\n      mload(0x40)\n      0x08c379a000000000000000000000000000000000000000000000000000000000\n      dup2\n      mstore\n      0x04\n      add\n      tag_42\n      swap1\n      tag_43\n      jump\t// in\n    tag_42:\n      mload(0x40)\n      dup1\n      swap2\n      sub\n      swap1\n      revert\n    tag_41:\n        /* \"cryptobinar.sol\":644:645  0 */\n      0x00\n        /* \"cryptobinar.sol\":634:643  seatCount */\n      dup2\n        /* \"cryptobinar.sol\":634:645  seatCount>0 */\n      gt\n        /* \"cryptobinar.sol\":626:672  require(seatCount>0,\"seatCount not specified\") */\n      tag_44\n      jumpi\n      mload(0x40)\n      0x08c379a000000000000000000000000000000000000000000000000000000000\n      dup2\n      mstore\n      0x04\n      add\n      tag_45\n      swap1\n      tag_46\n      jump\t// in\n    tag_45:\n      mload(0x40)\n      dup1\n      swap2\n      sub\n      swap1\n      revert\n    tag_44:\n        /* \"cryptobinar.sol\":702:773  Workshop(msg.sender, name, date, registrationFee, seatCount, seatCount) */\n      mload(0x40)\n      dup1\n      0xc0\n      add\n      0x40\n      mstore\n      dup1\n        /* \"cryptobinar.sol\":711:721  msg.sender */\n      caller\n        /* \"cryptobinar.sol\":702:773  Workshop(msg.sender, name, date, registrationFee, seatCount, seatCount) */\n      0xffffffffffffffffffffffffffffffffffffffff\n      and\n      dup2\n      mstore\n      0x20\n      add\n        /* \"cryptobinar.sol\":723:727  name */\n      dup6\n        /* \"cryptobinar.sol\":702:773  Workshop(msg.sender, name, date, registrationFee, seatCount, seatCount) */\n      dup2\n      mstore\n      0x20\n      add\n        /* \"cryptobinar.sol\":729:733  date */\n      dup5\n        /* \"cryptobinar.sol\":702:773  Workshop(msg.sender, name, date, registrationFee, seatCount, seatCount) */\n      dup2\n      mstore\n      0x20\n      add\n        /* \"cryptobinar.sol\":735:750  registrationFee */\n      dup4\n        /* \"cryptobinar.sol\":702:773  Workshop(msg.sender, name, date, registrationFee, seatCount, seatCount) */\n      dup2\n      mstore\n      0x20\n      add\n        /* \"cryptobinar.sol\":752:761  seatCount */\n      dup3\n        /* \"cryptobinar.sol\":702:773  Workshop(msg.sender, name, date, registrationFee, seatCount, seatCount) */\n      dup2\n      mstore\n      0x20\n      add\n        /* \"cryptobinar.sol\":763:772  seatCount */\n      dup3\n        /* \"cryptobinar.sol\":702:773  Workshop(msg.sender, name, date, registrationFee, seatCount, seatCount) */\n      dup2\n      mstore\n      pop\n        /* \"cryptobinar.sol\":683:692  workshops */\n      0x00\n        /* \"cryptobinar.sol\":683:700  workshops[nextID] */\n      dup1\n        /* \"cryptobinar.sol\":693:699  nextID */\n      sload(0x02)\n        /* \"cryptobinar.sol\":683:700  workshops[nextID] */\n      dup2\n      mstore\n      0x20\n      add\n      swap1\n      dup2\n      mstore\n      0x20\n      add\n      0x00\n      keccak256\n        /* \"cryptobinar.sol\":683:773  workshops[nextID]= Workshop(msg.sender, name, date, registrationFee, seatCount, seatCount) */\n      0x00\n      dup3\n      add\n      mload\n      dup2\n      0x00\n      add\n      exp(0x0100, 0x00)\n      dup2\n      sload\n      dup2\n      0xffffffffffffffffffffffffffffffffffffffff\n      mul\n      not\n      and\n      swap1\n      dup4\n      0xffffffffffffffffffffffffffffffffffffffff\n      and\n      mul\n      or\n      swap1\n      sstore\n      pop\n      0x20\n      dup3\n      add\n      mload\n      dup2\n      0x01\n      add\n      swap1\n      dup2\n      tag_47\n      swap2\n      swap1\n      tag_48\n      jump\t// in\n    tag_47:\n      pop\n      0x40\n      dup3\n      add\n      mload\n      dup2\n      0x02\n      add\n      sstore\n      0x60\n      dup3\n      add\n      mload\n      dup2\n      0x03\n      add\n      sstore\n      0x80\n      dup3\n      add\n      mload\n      dup2\n      0x04\n      add\n      sstore\n      0xa0\n      dup3\n      add\n      mload\n      dup2\n      0x05\n      add\n      sstore\n      swap1\n      pop\n      pop\n        /* \"cryptobinar.sol\":784:790  nextID */\n      0x02\n      0x00\n        /* \"cryptobinar.sol\":784:792  nextID++ */\n      dup2\n      sload\n      dup1\n      swap3\n      swap2\n      swap1\n      tag_49\n      swap1\n      tag_50\n      jump\t// in\n    tag_49:\n      swap2\n      swap1\n      pop\n      sstore\n      pop\n        /* \"cryptobinar.sol\":427:800  function createWorkshop(string memory name, uint date, uint registrationFee, uint seatCount) public {... */\n      pop\n      pop\n      pop\n      pop\n      jump\t// out\n        /* \"cryptobinar.sol\":1365:1762  function resellSeat(uint id, uint quantity, address to) external {... */\n    tag_22:\n        /* \"cryptobinar.sol\":1469:1470  0 */\n      0x00\n        /* \"cryptobinar.sol\":1449:1458  workshops */\n      dup1\n        /* \"cryptobinar.sol\":1449:1462  workshops[id] */\n      0x00\n        /* \"cryptobinar.sol\":1459:1461  id */\n      dup6\n        /* \"cryptobinar.sol\":1449:1462  workshops[id] */\n      dup2\n      mstore\n      0x20\n      add\n      swap1\n      dup2\n      mstore\n      0x20\n      add\n      0x00\n      keccak256\n        /* \"cryptobinar.sol\":1449:1467  workshops[id].date */\n      0x02\n      add\n      sload\n        /* \"cryptobinar.sol\":1449:1470  workshops[id].date!=0 */\n      sub\n        /* \"cryptobinar.sol\":1441:1504  require(workshops[id].date!=0 , \"This workshop does not exist\") */\n      tag_52\n      jumpi\n      mload(0x40)\n      0x08c379a000000000000000000000000000000000000000000000000000000000\n      dup2\n      mstore\n      0x04\n      add\n      tag_53\n      swap1\n      tag_54\n      jump\t// in\n    tag_53:\n      mload(0x40)\n      dup1\n      swap2\n      sub\n      swap1\n      revert\n    tag_52:\n        /* \"cryptobinar.sol\":1544:1559  block.timestamp */\n      timestamp\n        /* \"cryptobinar.sol\":1523:1532  workshops */\n      0x00\n        /* \"cryptobinar.sol\":1523:1536  workshops[id] */\n      dup1\n        /* \"cryptobinar.sol\":1533:1535  id */\n      dup6\n        /* \"cryptobinar.sol\":1523:1536  workshops[id] */\n      dup2\n      mstore\n      0x20\n      add\n      swap1\n      dup2\n      mstore\n      0x20\n      add\n      0x00\n      keccak256\n        /* \"cryptobinar.sol\":1523:1541  workshops[id].date */\n      0x02\n      add\n      sload\n        /* \"cryptobinar.sol\":1523:1559  workshops[id].date > block.timestamp */\n      gt\n        /* \"cryptobinar.sol\":1515:1594  require(workshops[id].date > block.timestamp, \"Workshop already accomplished\" ) */\n      tag_55\n      jumpi\n      mload(0x40)\n      0x08c379a000000000000000000000000000000000000000000000000000000000\n      dup2\n      mstore\n      0x04\n      add\n      tag_56\n      swap1\n      tag_57\n      jump\t// in\n    tag_56:\n      mload(0x40)\n      dup1\n      swap2\n      sub\n      swap1\n      revert\n    tag_55:\n        /* \"cryptobinar.sol\":1636:1644  quantity */\n      dup2\n        /* \"cryptobinar.sol\":1613:1618  seats */\n      0x01\n        /* \"cryptobinar.sol\":1613:1630  seats[msg.sender] */\n      0x00\n        /* \"cryptobinar.sol\":1619:1629  msg.sender */\n      caller\n        /* \"cryptobinar.sol\":1613:1630  seats[msg.sender] */\n      0xffffffffffffffffffffffffffffffffffffffff\n      and\n      0xffffffffffffffffffffffffffffffffffffffff\n      and\n      dup2\n      mstore\n      0x20\n      add\n      swap1\n      dup2\n      mstore\n      0x20\n      add\n      0x00\n      keccak256\n        /* \"cryptobinar.sol\":1613:1634  seats[msg.sender][id] */\n      0x00\n        /* \"cryptobinar.sol\":1631:1633  id */\n      dup6\n        /* \"cryptobinar.sol\":1613:1634  seats[msg.sender][id] */\n      dup2\n      mstore\n      0x20\n      add\n      swap1\n      dup2\n      mstore\n      0x20\n      add\n      0x00\n      keccak256\n      sload\n        /* \"cryptobinar.sol\":1613:1644  seats[msg.sender][id]> quantity */\n      gt\n        /* \"cryptobinar.sol\":1605:1674  require(seats[msg.sender][id]> quantity,\"Not enough seats to resell\") */\n      tag_58\n      jumpi\n      mload(0x40)\n      0x08c379a000000000000000000000000000000000000000000000000000000000\n      dup2\n      mstore\n      0x04\n      add\n      tag_59\n      swap1\n      tag_60\n      jump\t// in\n    tag_59:\n      mload(0x40)\n      dup1\n      swap2\n      sub\n      swap1\n      revert\n    tag_58:\n        /* \"cryptobinar.sol\":1708:1716  quantity */\n      dup2\n        /* \"cryptobinar.sol\":1685:1690  seats */\n      0x01\n        /* \"cryptobinar.sol\":1685:1702  seats[msg.sender] */\n      0x00\n        /* \"cryptobinar.sol\":1691:1701  msg.sender */\n      caller\n        /* \"cryptobinar.sol\":1685:1702  seats[msg.sender] */\n      0xffffffffffffffffffffffffffffffffffffffff\n      and\n      0xffffffffffffffffffffffffffffffffffffffff\n      and\n      dup2\n      mstore\n      0x20\n      add\n      swap1\n      dup2\n      mstore\n      0x20\n      add\n      0x00\n      keccak256\n        /* \"cryptobinar.sol\":1685:1706  seats[msg.sender][id] */\n      0x00\n        /* \"cryptobinar.sol\":1703:1705  id */\n      dup6\n        /* \"cryptobinar.sol\":1685:1706  seats[msg.sender][id] */\n      dup2\n      mstore\n      0x20\n      add\n      swap1\n      dup2\n      mstore\n      0x20\n      add\n      0x00\n      keccak256\n      0x00\n        /* \"cryptobinar.sol\":1685:1716  seats[msg.sender][id]-=quantity */\n      dup3\n      dup3\n      sload\n      tag_61\n      swap2\n      swap1\n      tag_62\n      jump\t// in\n    tag_61:\n      swap3\n      pop\n      pop\n      dup2\n      swap1\n      sstore\n      pop\n        /* \"cryptobinar.sol\":1742:1750  quantity */\n      dup2\n        /* \"cryptobinar.sol\":1727:1732  seats */\n      0x01\n        /* \"cryptobinar.sol\":1727:1736  seats[to] */\n      0x00\n        /* \"cryptobinar.sol\":1733:1735  to */\n      dup4\n        /* \"cryptobinar.sol\":1727:1736  seats[to] */\n      0xffffffffffffffffffffffffffffffffffffffff\n      and\n      0xffffffffffffffffffffffffffffffffffffffff\n      and\n      dup2\n      mstore\n      0x20\n      add\n      swap1\n      dup2\n      mstore\n      0x20\n      add\n      0x00\n      keccak256\n        /* \"cryptobinar.sol\":1727:1740  seats[to][id] */\n      0x00\n        /* \"cryptobinar.sol\":1737:1739  id */\n      dup6\n        /* \"cryptobinar.sol\":1727:1740  seats[to][id] */\n      dup2\n      mstore\n      0x20\n      add\n      swap1\n      dup2\n      mstore\n      0x20\n      add\n      0x00\n      keccak256\n      0x00\n        /* \"cryptobinar.sol\":1727:1750  seats[to][id]+=quantity */\n      dup3\n      dup3\n      sload\n      tag_63\n      swap2\n      swap1\n      tag_64\n      jump\t// in\n    tag_63:\n      swap3\n      pop\n      pop\n      dup2\n      swap1\n      sstore\n      pop\n        /* \"cryptobinar.sol\":1365:1762  function resellSeat(uint id, uint quantity, address to) external {... */\n      pop\n      pop\n      pop\n      jump\t// out\n        /* \"cryptobinar.sol\":808:1357  function registerWorkshop(uint id, uint quantity) external payable {... */\n    tag_26:\n        /* \"cryptobinar.sol\":914:915  0 */\n      0x00\n        /* \"cryptobinar.sol\":894:903  workshops */\n      dup1\n        /* \"cryptobinar.sol\":894:907  workshops[id] */\n      0x00\n        /* \"cryptobinar.sol\":904:906  id */\n      dup5\n        /* \"cryptobinar.sol\":894:907  workshops[id] */\n      dup2\n      mstore\n      0x20\n      add\n      swap1\n      dup2\n      mstore\n      0x20\n      add\n      0x00\n      keccak256\n        /* \"cryptobinar.sol\":894:912  workshops[id].date */\n      0x02\n      add\n      sload\n        /* \"cryptobinar.sol\":894:915  workshops[id].date!=0 */\n      sub\n        /* \"cryptobinar.sol\":886:949  require(workshops[id].date!=0 , \"This workshop does not exist\") */\n      tag_66\n      jumpi\n      mload(0x40)\n      0x08c379a000000000000000000000000000000000000000000000000000000000\n      dup2\n      mstore\n      0x04\n      add\n      tag_67\n      swap1\n      tag_54\n      jump\t// in\n    tag_67:\n      mload(0x40)\n      dup1\n      swap2\n      sub\n      swap1\n      revert\n    tag_66:\n        /* \"cryptobinar.sol\":989:1004  block.timestamp */\n      timestamp\n        /* \"cryptobinar.sol\":968:977  workshops */\n      0x00\n        /* \"cryptobinar.sol\":968:981  workshops[id] */\n      dup1\n        /* \"cryptobinar.sol\":978:980  id */\n      dup5\n        /* \"cryptobinar.sol\":968:981  workshops[id] */\n      dup2\n      mstore\n      0x20\n      add\n      swap1\n      dup2\n      mstore\n      0x20\n      add\n      0x00\n      keccak256\n        /* \"cryptobinar.sol\":968:986  workshops[id].date */\n      0x02\n      add\n      sload\n        /* \"cryptobinar.sol\":968:1004  workshops[id].date > block.timestamp */\n      gt\n        /* \"cryptobinar.sol\":960:1039  require(workshops[id].date > block.timestamp, \"Workshop already accomplished\" ) */\n      tag_68\n      jumpi\n      mload(0x40)\n      0x08c379a000000000000000000000000000000000000000000000000000000000\n      dup2\n      mstore\n      0x04\n      add\n      tag_69\n      swap1\n      tag_57\n      jump\t// in\n    tag_69:\n      mload(0x40)\n      dup1\n      swap2\n      sub\n      swap1\n      revert\n    tag_68:\n        /* \"cryptobinar.sol\":1050:1076  Workshop storage _workshop */\n      0x00\n        /* \"cryptobinar.sol\":1079:1088  workshops */\n      dup1\n        /* \"cryptobinar.sol\":1079:1092  workshops[id] */\n      0x00\n        /* \"cryptobinar.sol\":1089:1091  id */\n      dup5\n        /* \"cryptobinar.sol\":1079:1092  workshops[id] */\n      dup2\n      mstore\n      0x20\n      add\n      swap1\n      dup2\n      mstore\n      0x20\n      add\n      0x00\n      keccak256\n        /* \"cryptobinar.sol\":1050:1092  Workshop storage _workshop = workshops[id] */\n      swap1\n      pop\n        /* \"cryptobinar.sol\":1153:1161  quantity */\n      dup2\n        /* \"cryptobinar.sol\":1125:1134  _workshop */\n      dup2\n        /* \"cryptobinar.sol\":1125:1150  _workshop.registrationFee */\n      0x03\n      add\n      sload\n        /* \"cryptobinar.sol\":1125:1161  _workshop.registrationFee * quantity */\n      tag_70\n      swap2\n      swap1\n      tag_71\n      jump\t// in\n    tag_70:\n        /* \"cryptobinar.sol\":1111:1120  msg.value */\n      callvalue\n        /* \"cryptobinar.sol\":1111:1162  msg.value == (_workshop.registrationFee * quantity) */\n      eq\n        /* \"cryptobinar.sol\":1103:1184  require(msg.value == (_workshop.registrationFee * quantity), \"Not enough ethers\") */\n      tag_72\n      jumpi\n      mload(0x40)\n      0x08c379a000000000000000000000000000000000000000000000000000000000\n      dup2\n      mstore\n      0x04\n      add\n      tag_73\n      swap1\n      tag_74\n      jump\t// in\n    tag_73:\n      mload(0x40)\n      dup1\n      swap2\n      sub\n      swap1\n      revert\n    tag_72:\n        /* \"cryptobinar.sol\":1225:1233  quantity */\n      dup2\n        /* \"cryptobinar.sol\":1203:1212  _workshop */\n      dup2\n        /* \"cryptobinar.sol\":1203:1222  _workshop.seatCount */\n      0x04\n      add\n      sload\n        /* \"cryptobinar.sol\":1203:1233  _workshop.seatCount>= quantity */\n      lt\n      iszero\n        /* \"cryptobinar.sol\":1195:1263  require(_workshop.seatCount>= quantity,\"Not enough seats available\") */\n      tag_75\n      jumpi\n      mload(0x40)\n      0x08c379a000000000000000000000000000000000000000000000000000000000\n      dup2\n      mstore\n      0x04\n      add\n      tag_76\n      swap1\n      tag_77\n      jump\t// in\n    tag_76:\n      mload(0x40)\n      dup1\n      swap2\n      sub\n      swap1\n      revert\n    tag_75:\n        /* \"cryptobinar.sol\":1299:1307  quantity */\n      dup2\n        /* \"cryptobinar.sol\":1274:1283  _workshop */\n      dup2\n        /* \"cryptobinar.sol\":1274:1297  _workshop.seatRemaining */\n      0x05\n      add\n      0x00\n        /* \"cryptobinar.sol\":1274:1307  _workshop.seatRemaining-=quantity */\n      dup3\n      dup3\n      sload\n      tag_78\n      swap2\n      swap1\n      tag_62\n      jump\t// in\n    tag_78:\n      swap3\n      pop\n      pop\n      dup2\n      swap1\n      sstore\n      pop\n        /* \"cryptobinar.sol\":1341:1349  quantity */\n      dup2\n        /* \"cryptobinar.sol\":1318:1323  seats */\n      0x01\n        /* \"cryptobinar.sol\":1318:1335  seats[msg.sender] */\n      0x00\n        /* \"cryptobinar.sol\":1324:1334  msg.sender */\n      caller\n        /* \"cryptobinar.sol\":1318:1335  seats[msg.sender] */\n      0xffffffffffffffffffffffffffffffffffffffff\n      and\n      0xffffffffffffffffffffffffffffffffffffffff\n      and\n      dup2\n      mstore\n      0x20\n      add\n      swap1\n      dup2\n      mstore\n      0x20\n      add\n      0x00\n      keccak256\n        /* \"cryptobinar.sol\":1318:1339  seats[msg.sender][id] */\n      0x00\n        /* \"cryptobinar.sol\":1336:1338  id */\n      dup6\n        /* \"cryptobinar.sol\":1318:1339  seats[msg.sender][id] */\n      dup2\n      mstore\n      0x20\n      add\n      swap1\n      dup2\n      mstore\n      0x20\n      add\n      0x00\n      keccak256\n      0x00\n        /* \"cryptobinar.sol\":1318:1349  seats[msg.sender][id]+=quantity */\n      dup3\n      dup3\n      sload\n      tag_79\n      swap2\n      swap1\n      tag_64\n      jump\t// in\n    tag_79:\n      swap3\n      pop\n      pop\n      dup2\n      swap1\n      sstore\n      pop\n        /* \"cryptobinar.sol\":875:1357  {... */\n      pop\n        /* \"cryptobinar.sol\":808:1357  function registerWorkshop(uint id, uint quantity) external payable {... */\n      pop\n      pop\n      jump\t// out\n        /* \"cryptobinar.sol\":337:391  mapping(address => mapping(uint => uint)) public seats */\n    tag_31:\n      mstore(0x20, 0x01)\n      dup2\n      0x00\n      mstore\n      mstore(0x20, keccak256(0x00, 0x40))\n      dup1\n      0x00\n      mstore\n      keccak256(0x00, 0x40)\n      0x00\n      swap2\n      pop\n      swap2\n      pop\n      pop\n      sload\n      dup2\n      jump\t// out\n        /* \"cryptobinar.sol\":286:328  mapping(uint => Workshop) public workshops */\n    tag_37:\n      mstore(0x20, 0x00)\n      dup1\n      0x00\n      mstore\n      keccak256(0x00, 0x40)\n      0x00\n      swap2\n      pop\n      swap1\n      pop\n      dup1\n      0x00\n      add\n      0x00\n      swap1\n      sload\n      swap1\n      0x0100\n      exp\n      swap1\n      div\n      0xffffffffffffffffffffffffffffffffffffffff\n      and\n      swap1\n      dup1\n      0x01\n      add\n      dup1\n      sload\n      tag_80\n      swap1\n      tag_81\n      jump\t// in\n    tag_80:\n      dup1\n      0x1f\n      add\n      0x20\n      dup1\n      swap2\n      div\n      mul\n      0x20\n      add\n      mload(0x40)\n      swap1\n      dup2\n      add\n      0x40\n      mstore\n      dup1\n      swap3\n      swap2\n      swap1\n      dup2\n      dup2\n      mstore\n      0x20\n      add\n      dup3\n      dup1\n      sload\n      tag_82\n      swap1\n      tag_81\n      jump\t// in\n    tag_82:\n      dup1\n      iszero\n      tag_83\n      jumpi\n      dup1\n      0x1f\n      lt\n      tag_84\n      jumpi\n      0x0100\n      dup1\n      dup4\n      sload\n      div\n      mul\n      dup4\n      mstore\n      swap2\n      0x20\n      add\n      swap2\n      jump(tag_83)\n    tag_84:\n      dup3\n      add\n      swap2\n      swap1\n      0x00\n      mstore\n      keccak256(0x00, 0x20)\n      swap1\n    tag_85:\n      dup2\n      sload\n      dup2\n      mstore\n      swap1\n      0x01\n      add\n      swap1\n      0x20\n      add\n      dup1\n      dup4\n      gt\n      tag_85\n      jumpi\n      dup3\n      swap1\n      sub\n      0x1f\n      and\n      dup3\n      add\n      swap2\n    tag_83:\n      pop\n      pop\n      pop\n      pop\n      pop\n      swap1\n      dup1\n      0x02\n      add\n      sload\n      swap1\n      dup1\n      0x03\n      add\n      sload\n      swap1\n      dup1\n      0x04\n      add\n      sload\n      swap1\n      dup1\n      0x05\n      add\n      sload\n      swap1\n      pop\n      dup7\n      jump\t// out\n        /* \"#utility.yul\":7:84   */\n    tag_86:\n        /* \"#utility.yul\":44:51   */\n      0x00\n        /* \"#utility.yul\":73:78   */\n      dup2\n        /* \"#utility.yul\":62:78   */\n      swap1\n      pop\n        /* \"#utility.yul\":7:84   */\n      swap2\n      swap1\n      pop\n      jump\t// out\n        /* \"#utility.yul\":90:208   */\n    tag_87:\n        /* \"#utility.yul\":177:201   */\n      tag_146\n        /* \"#utility.yul\":195:200   */\n      dup2\n        /* \"#utility.yul\":177:201   */\n      tag_86\n      jump\t// in\n    tag_146:\n        /* \"#utility.yul\":172:175   */\n      dup3\n        /* \"#utility.yul\":165:202   */\n      mstore\n        /* \"#utility.yul\":90:208   */\n      pop\n      pop\n      jump\t// out\n        /* \"#utility.yul\":214:436   */\n    tag_12:\n        /* \"#utility.yul\":307:311   */\n      0x00\n        /* \"#utility.yul\":345:347   */\n      0x20\n        /* \"#utility.yul\":334:343   */\n      dup3\n        /* \"#utility.yul\":330:348   */\n      add\n        /* \"#utility.yul\":322:348   */\n      swap1\n      pop\n        /* \"#utility.yul\":358:429   */\n      tag_148\n        /* \"#utility.yul\":426:427   */\n      0x00\n        /* \"#utility.yul\":415:424   */\n      dup4\n        /* \"#utility.yul\":411:428   */\n      add\n        /* \"#utility.yul\":402:408   */\n      dup5\n        /* \"#utility.yul\":358:429   */\n      tag_87\n      jump\t// in\n    tag_148:\n        /* \"#utility.yul\":214:436   */\n      swap3\n      swap2\n      pop\n      pop\n      jump\t// out\n        /* \"#utility.yul\":442:517   */\n    tag_88:\n        /* \"#utility.yul\":475:481   */\n      0x00\n        /* \"#utility.yul\":508:510   */\n      0x40\n        /* \"#utility.yul\":502:511   */\n      mload\n        /* \"#utility.yul\":492:511   */\n      swap1\n      pop\n        /* \"#utility.yul\":442:517   */\n      swap1\n      jump\t// out\n        /* \"#utility.yul\":523:640   */\n    tag_89:\n        /* \"#utility.yul\":632:633   */\n      0x00\n        /* \"#utility.yul\":629:630   */\n      dup1\n        /* \"#utility.yul\":622:634   */\n      revert\n        /* \"#utility.yul\":646:763   */\n    tag_90:\n        /* \"#utility.yul\":755:756   */\n      0x00\n        /* \"#utility.yul\":752:753   */\n      dup1\n        /* \"#utility.yul\":745:757   */\n      revert\n        /* \"#utility.yul\":769:886   */\n    tag_91:\n        /* \"#utility.yul\":878:879   */\n      0x00\n        /* \"#utility.yul\":875:876   */\n      dup1\n        /* \"#utility.yul\":868:880   */\n      revert\n        /* \"#utility.yul\":892:1009   */\n    tag_92:\n        /* \"#utility.yul\":1001:1002   */\n      0x00\n        /* \"#utility.yul\":998:999   */\n      dup1\n        /* \"#utility.yul\":991:1003   */\n      revert\n        /* \"#utility.yul\":1015:1117   */\n    tag_93:\n        /* \"#utility.yul\":1056:1062   */\n      0x00\n        /* \"#utility.yul\":1107:1109   */\n      0x1f\n        /* \"#utility.yul\":1103:1110   */\n      not\n        /* \"#utility.yul\":1098:1100   */\n      0x1f\n        /* \"#utility.yul\":1091:1096   */\n      dup4\n        /* \"#utility.yul\":1087:1101   */\n      add\n        /* \"#utility.yul\":1083:1111   */\n      and\n        /* \"#utility.yul\":1073:1111   */\n      swap1\n      pop\n        /* \"#utility.yul\":1015:1117   */\n      swap2\n      swap1\n      pop\n      jump\t// out\n        /* \"#utility.yul\":1123:1303   */\n    tag_94:\n        /* \"#utility.yul\":1171:1248   */\n      0x4e487b7100000000000000000000000000000000000000000000000000000000\n        /* \"#utility.yul\":1168:1169   */\n      0x00\n        /* \"#utility.yul\":1161:1249   */\n      mstore\n        /* \"#utility.yul\":1268:1272   */\n      0x41\n        /* \"#utility.yul\":1265:1266   */\n      0x04\n        /* \"#utility.yul\":1258:1273   */\n      mstore\n        /* \"#utility.yul\":1292:1296   */\n      0x24\n        /* \"#utility.yul\":1289:1290   */\n      0x00\n        /* \"#utility.yul\":1282:1297   */\n      revert\n        /* \"#utility.yul\":1309:1590   */\n    tag_95:\n        /* \"#utility.yul\":1392:1419   */\n      tag_157\n        /* \"#utility.yul\":1414:1418   */\n      dup3\n        /* \"#utility.yul\":1392:1419   */\n      tag_93\n      jump\t// in\n    tag_157:\n        /* \"#utility.yul\":1384:1390   */\n      dup2\n        /* \"#utility.yul\":1380:1420   */\n      add\n        /* \"#utility.yul\":1522:1528   */\n      dup2\n        /* \"#utility.yul\":1510:1520   */\n      dup2\n        /* \"#utility.yul\":1507:1529   */\n      lt\n        /* \"#utility.yul\":1486:1504   */\n      0xffffffffffffffff\n        /* \"#utility.yul\":1474:1484   */\n      dup3\n        /* \"#utility.yul\":1471:1505   */\n      gt\n        /* \"#utility.yul\":1468:1530   */\n      or\n        /* \"#utility.yul\":1465:1553   */\n      iszero\n      tag_158\n      jumpi\n        /* \"#utility.yul\":1533:1551   */\n      tag_159\n      tag_94\n      jump\t// in\n    tag_159:\n        /* \"#utility.yul\":1465:1553   */\n    tag_158:\n        /* \"#utility.yul\":1573:1583   */\n      dup1\n        /* \"#utility.yul\":1569:1571   */\n      0x40\n        /* \"#utility.yul\":1562:1584   */\n      mstore\n        /* \"#utility.yul\":1352:1590   */\n      pop\n        /* \"#utility.yul\":1309:1590   */\n      pop\n      pop\n      jump\t// out\n        /* \"#utility.yul\":1596:1725   */\n    tag_96:\n        /* \"#utility.yul\":1630:1636   */\n      0x00\n        /* \"#utility.yul\":1657:1677   */\n      tag_161\n      tag_88\n      jump\t// in\n    tag_161:\n        /* \"#utility.yul\":1647:1677   */\n      swap1\n      pop\n        /* \"#utility.yul\":1686:1719   */\n      tag_162\n        /* \"#utility.yul\":1714:1718   */\n      dup3\n        /* \"#utility.yul\":1706:1712   */\n      dup3\n        /* \"#utility.yul\":1686:1719   */\n      tag_95\n      jump\t// in\n    tag_162:\n        /* \"#utility.yul\":1596:1725   */\n      swap2\n      swap1\n      pop\n      jump\t// out\n        /* \"#utility.yul\":1731:2039   */\n    tag_97:\n        /* \"#utility.yul\":1793:1797   */\n      0x00\n        /* \"#utility.yul\":1883:1901   */\n      0xffffffffffffffff\n        /* \"#utility.yul\":1875:1881   */\n      dup3\n        /* \"#utility.yul\":1872:1902   */\n      gt\n        /* \"#utility.yul\":1869:1925   */\n      iszero\n      tag_164\n      jumpi\n        /* \"#utility.yul\":1905:1923   */\n      tag_165\n      tag_94\n      jump\t// in\n    tag_165:\n        /* \"#utility.yul\":1869:1925   */\n    tag_164:\n        /* \"#utility.yul\":1943:1972   */\n      tag_166\n        /* \"#utility.yul\":1965:1971   */\n      dup3\n        /* \"#utility.yul\":1943:1972   */\n      tag_93\n      jump\t// in\n    tag_166:\n        /* \"#utility.yul\":1935:1972   */\n      swap1\n      pop\n        /* \"#utility.yul\":2027:2031   */\n      0x20\n        /* \"#utility.yul\":2021:2025   */\n      dup2\n        /* \"#utility.yul\":2017:2032   */\n      add\n        /* \"#utility.yul\":2009:2032   */\n      swap1\n      pop\n        /* \"#utility.yul\":1731:2039   */\n      swap2\n      swap1\n      pop\n      jump\t// out\n        /* \"#utility.yul\":2045:2191   */\n    tag_98:\n        /* \"#utility.yul\":2142:2148   */\n      dup3\n        /* \"#utility.yul\":2137:2140   */\n      dup2\n        /* \"#utility.yul\":2132:2135   */\n      dup4\n        /* \"#utility.yul\":2119:2149   */\n      calldatacopy\n        /* \"#utility.yul\":2183:2184   */\n      0x00\n        /* \"#utility.yul\":2174:2180   */\n      dup4\n        /* \"#utility.yul\":2169:2172   */\n      dup4\n        /* \"#utility.yul\":2165:2181   */\n      add\n        /* \"#utility.yul\":2158:2185   */\n      mstore\n        /* \"#utility.yul\":2045:2191   */\n      pop\n      pop\n      pop\n      jump\t// out\n        /* \"#utility.yul\":2197:2622   */\n    tag_99:\n        /* \"#utility.yul\":2275:2280   */\n      0x00\n        /* \"#utility.yul\":2300:2366   */\n      tag_169\n        /* \"#utility.yul\":2316:2365   */\n      tag_170\n        /* \"#utility.yul\":2358:2364   */\n      dup5\n        /* \"#utility.yul\":2316:2365   */\n      tag_97\n      jump\t// in\n    tag_170:\n        /* \"#utility.yul\":2300:2366   */\n      tag_96\n      jump\t// in\n    tag_169:\n        /* \"#utility.yul\":2291:2366   */\n      swap1\n      pop\n        /* \"#utility.yul\":2389:2395   */\n      dup3\n        /* \"#utility.yul\":2382:2387   */\n      dup2\n        /* \"#utility.yul\":2375:2396   */\n      mstore\n        /* \"#utility.yul\":2427:2431   */\n      0x20\n        /* \"#utility.yul\":2420:2425   */\n      dup2\n        /* \"#utility.yul\":2416:2432   */\n      add\n        /* \"#utility.yul\":2465:2468   */\n      dup5\n        /* \"#utility.yul\":2456:2462   */\n      dup5\n        /* \"#utility.yul\":2451:2454   */\n      dup5\n        /* \"#utility.yul\":2447:2463   */\n      add\n        /* \"#utility.yul\":2444:2469   */\n      gt\n        /* \"#utility.yul\":2441:2553   */\n      iszero\n      tag_171\n      jumpi\n        /* \"#utility.yul\":2472:2551   */\n      tag_172\n      tag_92\n      jump\t// in\n    tag_172:\n        /* \"#utility.yul\":2441:2553   */\n    tag_171:\n        /* \"#utility.yul\":2562:2616   */\n      tag_173\n        /* \"#utility.yul\":2609:2615   */\n      dup5\n        /* \"#utility.yul\":2604:2607   */\n      dup3\n        /* \"#utility.yul\":2599:2602   */\n      dup6\n        /* \"#utility.yul\":2562:2616   */\n      tag_98\n      jump\t// in\n    tag_173:\n        /* \"#utility.yul\":2281:2622   */\n      pop\n        /* \"#utility.yul\":2197:2622   */\n      swap4\n      swap3\n      pop\n      pop\n      pop\n      jump\t// out\n        /* \"#utility.yul\":2642:2982   */\n    tag_100:\n        /* \"#utility.yul\":2698:2703   */\n      0x00\n        /* \"#utility.yul\":2747:2750   */\n      dup3\n        /* \"#utility.yul\":2740:2744   */\n      0x1f\n        /* \"#utility.yul\":2732:2738   */\n      dup4\n        /* \"#utility.yul\":2728:2745   */\n      add\n        /* \"#utility.yul\":2724:2751   */\n      slt\n        /* \"#utility.yul\":2714:2836   */\n      tag_175\n      jumpi\n        /* \"#utility.yul\":2755:2834   */\n      tag_176\n      tag_91\n      jump\t// in\n    tag_176:\n        /* \"#utility.yul\":2714:2836   */\n    tag_175:\n        /* \"#utility.yul\":2872:2878   */\n      dup2\n        /* \"#utility.yul\":2859:2879   */\n      calldataload\n        /* \"#utility.yul\":2897:2976   */\n      tag_177\n        /* \"#utility.yul\":2972:2975   */\n      dup5\n        /* \"#utility.yul\":2964:2970   */\n      dup3\n        /* \"#utility.yul\":2957:2961   */\n      0x20\n        /* \"#utility.yul\":2949:2955   */\n      dup7\n        /* \"#utility.yul\":2945:2962   */\n      add\n        /* \"#utility.yul\":2897:2976   */\n      tag_99\n      jump\t// in\n    tag_177:\n        /* \"#utility.yul\":2888:2976   */\n      swap2\n      pop\n        /* \"#utility.yul\":2704:2982   */\n      pop\n        /* \"#utility.yul\":2642:2982   */\n      swap3\n      swap2\n      pop\n      pop\n      jump\t// out\n        /* \"#utility.yul\":2988:3110   */\n    tag_101:\n        /* \"#utility.yul\":3061:3085   */\n      tag_179\n        /* \"#utility.yul\":3079:3084   */\n      dup2\n        /* \"#utility.yul\":3061:3085   */\n      tag_86\n      jump\t// in\n    tag_179:\n        /* \"#utility.yul\":3054:3059   */\n      dup2\n        /* \"#utility.yul\":3051:3086   */\n      eq\n        /* \"#utility.yul\":3041:3104   */\n      tag_180\n      jumpi\n        /* \"#utility.yul\":3100:3101   */\n      0x00\n        /* \"#utility.yul\":3097:3098   */\n      dup1\n        /* \"#utility.yul\":3090:3102   */\n      revert\n        /* \"#utility.yul\":3041:3104   */\n    tag_180:\n        /* \"#utility.yul\":2988:3110   */\n      pop\n      jump\t// out\n        /* \"#utility.yul\":3116:3255   */\n    tag_102:\n        /* \"#utility.yul\":3162:3167   */\n      0x00\n        /* \"#utility.yul\":3200:3206   */\n      dup2\n        /* \"#utility.yul\":3187:3207   */\n      calldataload\n        /* \"#utility.yul\":3178:3207   */\n      swap1\n      pop\n        /* \"#utility.yul\":3216:3249   */\n      tag_182\n        /* \"#utility.yul\":3243:3248   */\n      dup2\n        /* \"#utility.yul\":3216:3249   */\n      tag_101\n      jump\t// in\n    tag_182:\n        /* \"#utility.yul\":3116:3255   */\n      swap3\n      swap2\n      pop\n      pop\n      jump\t// out\n        /* \"#utility.yul\":3261:4206   */\n    tag_16:\n        /* \"#utility.yul\":3357:3363   */\n      0x00\n        /* \"#utility.yul\":3365:3371   */\n      dup1\n        /* \"#utility.yul\":3373:3379   */\n      0x00\n        /* \"#utility.yul\":3381:3387   */\n      dup1\n        /* \"#utility.yul\":3430:3433   */\n      0x80\n        /* \"#utility.yul\":3418:3427   */\n      dup6\n        /* \"#utility.yul\":3409:3416   */\n      dup8\n        /* \"#utility.yul\":3405:3428   */\n      sub\n        /* \"#utility.yul\":3401:3434   */\n      slt\n        /* \"#utility.yul\":3398:3518   */\n      iszero\n      tag_184\n      jumpi\n        /* \"#utility.yul\":3437:3516   */\n      tag_185\n      tag_89\n      jump\t// in\n    tag_185:\n        /* \"#utility.yul\":3398:3518   */\n    tag_184:\n        /* \"#utility.yul\":3585:3586   */\n      0x00\n        /* \"#utility.yul\":3574:3583   */\n      dup6\n        /* \"#utility.yul\":3570:3587   */\n      add\n        /* \"#utility.yul\":3557:3588   */\n      calldataload\n        /* \"#utility.yul\":3615:3633   */\n      0xffffffffffffffff\n        /* \"#utility.yul\":3607:3613   */\n      dup2\n        /* \"#utility.yul\":3604:3634   */\n      gt\n        /* \"#utility.yul\":3601:3718   */\n      iszero\n      tag_186\n      jumpi\n        /* \"#utility.yul\":3637:3716   */\n      tag_187\n      tag_90\n      jump\t// in\n    tag_187:\n        /* \"#utility.yul\":3601:3718   */\n    tag_186:\n        /* \"#utility.yul\":3742:3805   */\n      tag_188\n        /* \"#utility.yul\":3797:3804   */\n      dup8\n        /* \"#utility.yul\":3788:3794   */\n      dup3\n        /* \"#utility.yul\":3777:3786   */\n      dup9\n        /* \"#utility.yul\":3773:3795   */\n      add\n        /* \"#utility.yul\":3742:3805   */\n      tag_100\n      jump\t// in\n    tag_188:\n        /* \"#utility.yul\":3732:3805   */\n      swap5\n      pop\n        /* \"#utility.yul\":3528:3815   */\n      pop\n        /* \"#utility.yul\":3854:3856   */\n      0x20\n        /* \"#utility.yul\":3880:3933   */\n      tag_189\n        /* \"#utility.yul\":3925:3932   */\n      dup8\n        /* \"#utility.yul\":3916:3922   */\n      dup3\n        /* \"#utility.yul\":3905:3914   */\n      dup9\n        /* \"#utility.yul\":3901:3923   */\n      add\n        /* \"#utility.yul\":3880:3933   */\n      tag_102\n      jump\t// in\n    tag_189:\n        /* \"#utility.yul\":3870:3933   */\n      swap4\n      pop\n        /* \"#utility.yul\":3825:3943   */\n      pop\n        /* \"#utility.yul\":3982:3984   */\n      0x40\n        /* \"#utility.yul\":4008:4061   */\n      tag_190\n        /* \"#utility.yul\":4053:4060   */\n      dup8\n        /* \"#utility.yul\":4044:4050   */\n      dup3\n        /* \"#utility.yul\":4033:4042   */\n      dup9\n        /* \"#utility.yul\":4029:4051   */\n      add\n        /* \"#utility.yul\":4008:4061   */\n      tag_102\n      jump\t// in\n    tag_190:\n        /* \"#utility.yul\":3998:4061   */\n      swap3\n      pop\n        /* \"#utility.yul\":3953:4071   */\n      pop\n        /* \"#utility.yul\":4110:4112   */\n      0x60\n        /* \"#utility.yul\":4136:4189   */\n      tag_191\n        /* \"#utility.yul\":4181:4188   */\n      dup8\n        /* \"#utility.yul\":4172:4178   */\n      dup3\n        /* \"#utility.yul\":4161:4170   */\n      dup9\n        /* \"#utility.yul\":4157:4179   */\n      add\n        /* \"#utility.yul\":4136:4189   */\n      tag_102\n      jump\t// in\n    tag_191:\n        /* \"#utility.yul\":4126:4189   */\n      swap2\n      pop\n        /* \"#utility.yul\":4081:4199   */\n      pop\n        /* \"#utility.yul\":3261:4206   */\n      swap3\n      swap6\n      swap2\n      swap5\n      pop\n      swap3\n      pop\n      jump\t// out\n        /* \"#utility.yul\":4212:4338   */\n    tag_103:\n        /* \"#utility.yul\":4249:4256   */\n      0x00\n        /* \"#utility.yul\":4289:4331   */\n      0xffffffffffffffffffffffffffffffffffffffff\n        /* \"#utility.yul\":4282:4287   */\n      dup3\n        /* \"#utility.yul\":4278:4332   */\n      and\n        /* \"#utility.yul\":4267:4332   */\n      swap1\n      pop\n        /* \"#utility.yul\":4212:4338   */\n      swap2\n      swap1\n      pop\n      jump\t// out\n        /* \"#utility.yul\":4344:4440   */\n    tag_104:\n        /* \"#utility.yul\":4381:4388   */\n      0x00\n        /* \"#utility.yul\":4410:4434   */\n      tag_194\n        /* \"#utility.yul\":4428:4433   */\n      dup3\n        /* \"#utility.yul\":4410:4434   */\n      tag_103\n      jump\t// in\n    tag_194:\n        /* \"#utility.yul\":4399:4434   */\n      swap1\n      pop\n        /* \"#utility.yul\":4344:4440   */\n      swap2\n      swap1\n      pop\n      jump\t// out\n        /* \"#utility.yul\":4446:4568   */\n    tag_105:\n        /* \"#utility.yul\":4519:4543   */\n      tag_196\n        /* \"#utility.yul\":4537:4542   */\n      dup2\n        /* \"#utility.yul\":4519:4543   */\n      tag_104\n      jump\t// in\n    tag_196:\n        /* \"#utility.yul\":4512:4517   */\n      dup2\n        /* \"#utility.yul\":4509:4544   */\n      eq\n        /* \"#utility.yul\":4499:4562   */\n      tag_197\n      jumpi\n        /* \"#utility.yul\":4558:4559   */\n      0x00\n        /* \"#utility.yul\":4555:4556   */\n      dup1\n        /* \"#utility.yul\":4548:4560   */\n      revert\n        /* \"#utility.yul\":4499:4562   */\n    tag_197:\n        /* \"#utility.yul\":4446:4568   */\n      pop\n      jump\t// out\n        /* \"#utility.yul\":4574:4713   */\n    tag_106:\n        /* \"#utility.yul\":4620:4625   */\n      0x00\n        /* \"#utility.yul\":4658:4664   */\n      dup2\n        /* \"#utility.yul\":4645:4665   */\n      calldataload\n        /* \"#utility.yul\":4636:4665   */\n      swap1\n      pop\n        /* \"#utility.yul\":4674:4707   */\n      tag_199\n        /* \"#utility.yul\":4701:4706   */\n      dup2\n        /* \"#utility.yul\":4674:4707   */\n      tag_105\n      jump\t// in\n    tag_199:\n        /* \"#utility.yul\":4574:4713   */\n      swap3\n      swap2\n      pop\n      pop\n      jump\t// out\n        /* \"#utility.yul\":4719:5338   */\n    tag_21:\n        /* \"#utility.yul\":4796:4802   */\n      0x00\n        /* \"#utility.yul\":4804:4810   */\n      dup1\n        /* \"#utility.yul\":4812:4818   */\n      0x00\n        /* \"#utility.yul\":4861:4863   */\n      0x60\n        /* \"#utility.yul\":4849:4858   */\n      dup5\n        /* \"#utility.yul\":4840:4847   */\n      dup7\n        /* \"#utility.yul\":4836:4859   */\n      sub\n        /* \"#utility.yul\":4832:4864   */\n      slt\n        /* \"#utility.yul\":4829:4948   */\n      iszero\n      tag_201\n      jumpi\n        /* \"#utility.yul\":4867:4946   */\n      tag_202\n      tag_89\n      jump\t// in\n    tag_202:\n        /* \"#utility.yul\":4829:4948   */\n    tag_201:\n        /* \"#utility.yul\":4987:4988   */\n      0x00\n        /* \"#utility.yul\":5012:5065   */\n      tag_203\n        /* \"#utility.yul\":5057:5064   */\n      dup7\n        /* \"#utility.yul\":5048:5054   */\n      dup3\n        /* \"#utility.yul\":5037:5046   */\n      dup8\n        /* \"#utility.yul\":5033:5055   */\n      add\n        /* \"#utility.yul\":5012:5065   */\n      tag_102\n      jump\t// in\n    tag_203:\n        /* \"#utility.yul\":5002:5065   */\n      swap4\n      pop\n        /* \"#utility.yul\":4958:5075   */\n      pop\n        /* \"#utility.yul\":5114:5116   */\n      0x20\n        /* \"#utility.yul\":5140:5193   */\n      tag_204\n        /* \"#utility.yul\":5185:5192   */\n      dup7\n        /* \"#utility.yul\":5176:5182   */\n      dup3\n        /* \"#utility.yul\":5165:5174   */\n      dup8\n        /* \"#utility.yul\":5161:5183   */\n      add\n        /* \"#utility.yul\":5140:5193   */\n      tag_102\n      jump\t// in\n    tag_204:\n        /* \"#utility.yul\":5130:5193   */\n      swap3\n      pop\n        /* \"#utility.yul\":5085:5203   */\n      pop\n        /* \"#utility.yul\":5242:5244   */\n      0x40\n        /* \"#utility.yul\":5268:5321   */\n      tag_205\n        /* \"#utility.yul\":5313:5320   */\n      dup7\n        /* \"#utility.yul\":5304:5310   */\n      dup3\n        /* \"#utility.yul\":5293:5302   */\n      dup8\n        /* \"#utility.yul\":5289:5311   */\n      add\n        /* \"#utility.yul\":5268:5321   */\n      tag_106\n      jump\t// in\n    tag_205:\n        /* \"#utility.yul\":5258:5321   */\n      swap2\n      pop\n        /* \"#utility.yul\":5213:5331   */\n      pop\n        /* \"#utility.yul\":4719:5338   */\n      swap3\n      pop\n      swap3\n      pop\n      swap3\n      jump\t// out\n        /* \"#utility.yul\":5344:5818   */\n    tag_25:\n        /* \"#utility.yul\":5412:5418   */\n      0x00\n        /* \"#utility.yul\":5420:5426   */\n      dup1\n        /* \"#utility.yul\":5469:5471   */\n      0x40\n        /* \"#utility.yul\":5457:5466   */\n      dup4\n        /* \"#utility.yul\":5448:5455   */\n      dup6\n        /* \"#utility.yul\":5444:5467   */\n      sub\n        /* \"#utility.yul\":5440:5472   */\n      slt\n        /* \"#utility.yul\":5437:5556   */\n      iszero\n      tag_207\n      jumpi\n        /* \"#utility.yul\":5475:5554   */\n      tag_208\n      tag_89\n      jump\t// in\n    tag_208:\n        /* \"#utility.yul\":5437:5556   */\n    tag_207:\n        /* \"#utility.yul\":5595:5596   */\n      0x00\n        /* \"#utility.yul\":5620:5673   */\n      tag_209\n        /* \"#utility.yul\":5665:5672   */\n      dup6\n        /* \"#utility.yul\":5656:5662   */\n      dup3\n        /* \"#utility.yul\":5645:5654   */\n      dup7\n        /* \"#utility.yul\":5641:5663   */\n      add\n        /* \"#utility.yul\":5620:5673   */\n      tag_102\n      jump\t// in\n    tag_209:\n        /* \"#utility.yul\":5610:5673   */\n      swap3\n      pop\n        /* \"#utility.yul\":5566:5683   */\n      pop\n        /* \"#utility.yul\":5722:5724   */\n      0x20\n        /* \"#utility.yul\":5748:5801   */\n      tag_210\n        /* \"#utility.yul\":5793:5800   */\n      dup6\n        /* \"#utility.yul\":5784:5790   */\n      dup3\n        /* \"#utility.yul\":5773:5782   */\n      dup7\n        /* \"#utility.yul\":5769:5791   */\n      add\n        /* \"#utility.yul\":5748:5801   */\n      tag_102\n      jump\t// in\n    tag_210:\n        /* \"#utility.yul\":5738:5801   */\n      swap2\n      pop\n        /* \"#utility.yul\":5693:5811   */\n      pop\n        /* \"#utility.yul\":5344:5818   */\n      swap3\n      pop\n      swap3\n      swap1\n      pop\n      jump\t// out\n        /* \"#utility.yul\":5824:6298   */\n    tag_30:\n        /* \"#utility.yul\":5892:5898   */\n      0x00\n        /* \"#utility.yul\":5900:5906   */\n      dup1\n        /* \"#utility.yul\":5949:5951   */\n      0x40\n        /* \"#utility.yul\":5937:5946   */\n      dup4\n        /* \"#utility.yul\":5928:5935   */\n      dup6\n        /* \"#utility.yul\":5924:5947   */\n      sub\n        /* \"#utility.yul\":5920:5952   */\n      slt\n        /* \"#utility.yul\":5917:6036   */\n      iszero\n      tag_212\n      jumpi\n        /* \"#utility.yul\":5955:6034   */\n      tag_213\n      tag_89\n      jump\t// in\n    tag_213:\n        /* \"#utility.yul\":5917:6036   */\n    tag_212:\n        /* \"#utility.yul\":6075:6076   */\n      0x00\n        /* \"#utility.yul\":6100:6153   */\n      tag_214\n        /* \"#utility.yul\":6145:6152   */\n      dup6\n        /* \"#utility.yul\":6136:6142   */\n      dup3\n        /* \"#utility.yul\":6125:6134   */\n      dup7\n        /* \"#utility.yul\":6121:6143   */\n      add\n        /* \"#utility.yul\":6100:6153   */\n      tag_106\n      jump\t// in\n    tag_214:\n        /* \"#utility.yul\":6090:6153   */\n      swap3\n      pop\n        /* \"#utility.yul\":6046:6163   */\n      pop\n        /* \"#utility.yul\":6202:6204   */\n      0x20\n        /* \"#utility.yul\":6228:6281   */\n      tag_215\n        /* \"#utility.yul\":6273:6280   */\n      dup6\n        /* \"#utility.yul\":6264:6270   */\n      dup3\n        /* \"#utility.yul\":6253:6262   */\n      dup7\n        /* \"#utility.yul\":6249:6271   */\n      add\n        /* \"#utility.yul\":6228:6281   */\n      tag_102\n      jump\t// in\n    tag_215:\n        /* \"#utility.yul\":6218:6281   */\n      swap2\n      pop\n        /* \"#utility.yul\":6173:6291   */\n      pop\n        /* \"#utility.yul\":5824:6298   */\n      swap3\n      pop\n      swap3\n      swap1\n      pop\n      jump\t// out\n        /* \"#utility.yul\":6304:6633   */\n    tag_36:\n        /* \"#utility.yul\":6363:6369   */\n      0x00\n        /* \"#utility.yul\":6412:6414   */\n      0x20\n        /* \"#utility.yul\":6400:6409   */\n      dup3\n        /* \"#utility.yul\":6391:6398   */\n      dup5\n        /* \"#utility.yul\":6387:6410   */\n      sub\n        /* \"#utility.yul\":6383:6415   */\n      slt\n        /* \"#utility.yul\":6380:6499   */\n      iszero\n      tag_217\n      jumpi\n        /* \"#utility.yul\":6418:6497   */\n      tag_218\n      tag_89\n      jump\t// in\n    tag_218:\n        /* \"#utility.yul\":6380:6499   */\n    tag_217:\n        /* \"#utility.yul\":6538:6539   */\n      0x00\n        /* \"#utility.yul\":6563:6616   */\n      tag_219\n        /* \"#utility.yul\":6608:6615   */\n      dup5\n        /* \"#utility.yul\":6599:6605   */\n      dup3\n        /* \"#utility.yul\":6588:6597   */\n      dup6\n        /* \"#utility.yul\":6584:6606   */\n      add\n        /* \"#utility.yul\":6563:6616   */\n      tag_102\n      jump\t// in\n    tag_219:\n        /* \"#utility.yul\":6553:6616   */\n      swap2\n      pop\n        /* \"#utility.yul\":6509:6626   */\n      pop\n        /* \"#utility.yul\":6304:6633   */\n      swap3\n      swap2\n      pop\n      pop\n      jump\t// out\n        /* \"#utility.yul\":6639:6757   */\n    tag_107:\n        /* \"#utility.yul\":6726:6750   */\n      tag_221\n        /* \"#utility.yul\":6744:6749   */\n      dup2\n        /* \"#utility.yul\":6726:6750   */\n      tag_104\n      jump\t// in\n    tag_221:\n        /* \"#utility.yul\":6721:6724   */\n      dup3\n        /* \"#utility.yul\":6714:6751   */\n      mstore\n        /* \"#utility.yul\":6639:6757   */\n      pop\n      pop\n      jump\t// out\n        /* \"#utility.yul\":6763:6862   */\n    tag_108:\n        /* \"#utility.yul\":6815:6821   */\n      0x00\n        /* \"#utility.yul\":6849:6854   */\n      dup2\n        /* \"#utility.yul\":6843:6855   */\n      mload\n        /* \"#utility.yul\":6833:6855   */\n      swap1\n      pop\n        /* \"#utility.yul\":6763:6862   */\n      swap2\n      swap1\n      pop\n      jump\t// out\n        /* \"#utility.yul\":6868:7037   */\n    tag_109:\n        /* \"#utility.yul\":6952:6963   */\n      0x00\n        /* \"#utility.yul\":6986:6992   */\n      dup3\n        /* \"#utility.yul\":6981:6984   */\n      dup3\n        /* \"#utility.yul\":6974:6993   */\n      mstore\n        /* \"#utility.yul\":7026:7030   */\n      0x20\n        /* \"#utility.yul\":7021:7024   */\n      dup3\n        /* \"#utility.yul\":7017:7031   */\n      add\n        /* \"#utility.yul\":7002:7031   */\n      swap1\n      pop\n        /* \"#utility.yul\":6868:7037   */\n      swap3\n      swap2\n      pop\n      pop\n      jump\t// out\n        /* \"#utility.yul\":7043:7289   */\n    tag_110:\n        /* \"#utility.yul\":7124:7125   */\n      0x00\n        /* \"#utility.yul\":7134:7247   */\n    tag_225:\n        /* \"#utility.yul\":7148:7154   */\n      dup4\n        /* \"#utility.yul\":7145:7146   */\n      dup2\n        /* \"#utility.yul\":7142:7155   */\n      lt\n        /* \"#utility.yul\":7134:7247   */\n      iszero\n      tag_227\n      jumpi\n        /* \"#utility.yul\":7233:7234   */\n      dup1\n        /* \"#utility.yul\":7228:7231   */\n      dup3\n        /* \"#utility.yul\":7224:7235   */\n      add\n        /* \"#utility.yul\":7218:7236   */\n      mload\n        /* \"#utility.yul\":7214:7215   */\n      dup2\n        /* \"#utility.yul\":7209:7212   */\n      dup5\n        /* \"#utility.yul\":7205:7216   */\n      add\n        /* \"#utility.yul\":7198:7237   */\n      mstore\n        /* \"#utility.yul\":7170:7172   */\n      0x20\n        /* \"#utility.yul\":7167:7168   */\n      dup2\n        /* \"#utility.yul\":7163:7173   */\n      add\n        /* \"#utility.yul\":7158:7173   */\n      swap1\n      pop\n        /* \"#utility.yul\":7134:7247   */\n      jump(tag_225)\n    tag_227:\n        /* \"#utility.yul\":7281:7282   */\n      0x00\n        /* \"#utility.yul\":7272:7278   */\n      dup5\n        /* \"#utility.yul\":7267:7270   */\n      dup5\n        /* \"#utility.yul\":7263:7279   */\n      add\n        /* \"#utility.yul\":7256:7283   */\n      mstore\n        /* \"#utility.yul\":7105:7289   */\n      pop\n        /* \"#utility.yul\":7043:7289   */\n      pop\n      pop\n      pop\n      jump\t// out\n        /* \"#utility.yul\":7295:7672   */\n    tag_111:\n        /* \"#utility.yul\":7383:7386   */\n      0x00\n        /* \"#utility.yul\":7411:7450   */\n      tag_229\n        /* \"#utility.yul\":7444:7449   */\n      dup3\n        /* \"#utility.yul\":7411:7450   */\n      tag_108\n      jump\t// in\n    tag_229:\n        /* \"#utility.yul\":7466:7537   */\n      tag_230\n        /* \"#utility.yul\":7530:7536   */\n      dup2\n        /* \"#utility.yul\":7525:7528   */\n      dup6\n        /* \"#utility.yul\":7466:7537   */\n      tag_109\n      jump\t// in\n    tag_230:\n        /* \"#utility.yul\":7459:7537   */\n      swap4\n      pop\n        /* \"#utility.yul\":7546:7611   */\n      tag_231\n        /* \"#utility.yul\":7604:7610   */\n      dup2\n        /* \"#utility.yul\":7599:7602   */\n      dup6\n        /* \"#utility.yul\":7592:7596   */\n      0x20\n        /* \"#utility.yul\":7585:7590   */\n      dup7\n        /* \"#utility.yul\":7581:7597   */\n      add\n        /* \"#utility.yul\":7546:7611   */\n      tag_110\n      jump\t// in\n    tag_231:\n        /* \"#utility.yul\":7636:7665   */\n      tag_232\n        /* \"#utility.yul\":7658:7664   */\n      dup2\n        /* \"#utility.yul\":7636:7665   */\n      tag_93\n      jump\t// in\n    tag_232:\n        /* \"#utility.yul\":7631:7634   */\n      dup5\n        /* \"#utility.yul\":7627:7666   */\n      add\n        /* \"#utility.yul\":7620:7666   */\n      swap2\n      pop\n        /* \"#utility.yul\":7387:7672   */\n      pop\n        /* \"#utility.yul\":7295:7672   */\n      swap3\n      swap2\n      pop\n      pop\n      jump\t// out\n        /* \"#utility.yul\":7678:8544   */\n    tag_39:\n        /* \"#utility.yul\":7931:7935   */\n      0x00\n        /* \"#utility.yul\":7969:7972   */\n      0xc0\n        /* \"#utility.yul\":7958:7967   */\n      dup3\n        /* \"#utility.yul\":7954:7973   */\n      add\n        /* \"#utility.yul\":7946:7973   */\n      swap1\n      pop\n        /* \"#utility.yul\":7983:8054   */\n      tag_234\n        /* \"#utility.yul\":8051:8052   */\n      0x00\n        /* \"#utility.yul\":8040:8049   */\n      dup4\n        /* \"#utility.yul\":8036:8053   */\n      add\n        /* \"#utility.yul\":8027:8033   */\n      dup10\n        /* \"#utility.yul\":7983:8054   */\n      tag_107\n      jump\t// in\n    tag_234:\n        /* \"#utility.yul\":8101:8110   */\n      dup2\n        /* \"#utility.yul\":8095:8099   */\n      dup2\n        /* \"#utility.yul\":8091:8111   */\n      sub\n        /* \"#utility.yul\":8086:8088   */\n      0x20\n        /* \"#utility.yul\":8075:8084   */\n      dup4\n        /* \"#utility.yul\":8071:8089   */\n      add\n        /* \"#utility.yul\":8064:8112   */\n      mstore\n        /* \"#utility.yul\":8129:8207   */\n      tag_235\n        /* \"#utility.yul\":8202:8206   */\n      dup2\n        /* \"#utility.yul\":8193:8199   */\n      dup9\n        /* \"#utility.yul\":8129:8207   */\n      tag_111\n      jump\t// in\n    tag_235:\n        /* \"#utility.yul\":8121:8207   */\n      swap1\n      pop\n        /* \"#utility.yul\":8217:8289   */\n      tag_236\n        /* \"#utility.yul\":8285:8287   */\n      0x40\n        /* \"#utility.yul\":8274:8283   */\n      dup4\n        /* \"#utility.yul\":8270:8288   */\n      add\n        /* \"#utility.yul\":8261:8267   */\n      dup8\n        /* \"#utility.yul\":8217:8289   */\n      tag_87\n      jump\t// in\n    tag_236:\n        /* \"#utility.yul\":8299:8371   */\n      tag_237\n        /* \"#utility.yul\":8367:8369   */\n      0x60\n        /* \"#utility.yul\":8356:8365   */\n      dup4\n        /* \"#utility.yul\":8352:8370   */\n      add\n        /* \"#utility.yul\":8343:8349   */\n      dup7\n        /* \"#utility.yul\":8299:8371   */\n      tag_87\n      jump\t// in\n    tag_237:\n        /* \"#utility.yul\":8381:8454   */\n      tag_238\n        /* \"#utility.yul\":8449:8452   */\n      0x80\n        /* \"#utility.yul\":8438:8447   */\n      dup4\n        /* \"#utility.yul\":8434:8453   */\n      add\n        /* \"#utility.yul\":8425:8431   */\n      dup6\n        /* \"#utility.yul\":8381:8454   */\n      tag_87\n      jump\t// in\n    tag_238:\n        /* \"#utility.yul\":8464:8537   */\n      tag_239\n        /* \"#utility.yul\":8532:8535   */\n      0xa0\n        /* \"#utility.yul\":8521:8530   */\n      dup4\n        /* \"#utility.yul\":8517:8536   */\n      add\n        /* \"#utility.yul\":8508:8514   */\n      dup5\n        /* \"#utility.yul\":8464:8537   */\n      tag_87\n      jump\t// in\n    tag_239:\n        /* \"#utility.yul\":7678:8544   */\n      swap8\n      swap7\n      pop\n      pop\n      pop\n      pop\n      pop\n      pop\n      pop\n      jump\t// out\n        /* \"#utility.yul\":8550:8781   */\n    tag_112:\n        /* \"#utility.yul\":8690:8724   */\n      0x506c65617365206f7267616e697a6520776f726b73686f7020666f7220667574\n        /* \"#utility.yul\":8686:8687   */\n      0x00\n        /* \"#utility.yul\":8678:8684   */\n      dup3\n        /* \"#utility.yul\":8674:8688   */\n      add\n        /* \"#utility.yul\":8667:8725   */\n      mstore\n        /* \"#utility.yul\":8759:8773   */\n      0x7572652074696d65736c6f740000000000000000000000000000000000000000\n        /* \"#utility.yul\":8754:8756   */\n      0x20\n        /* \"#utility.yul\":8746:8752   */\n      dup3\n        /* \"#utility.yul\":8742:8757   */\n      add\n        /* \"#utility.yul\":8735:8774   */\n      mstore\n        /* \"#utility.yul\":8550:8781   */\n      pop\n      jump\t// out\n        /* \"#utility.yul\":8787:9153   */\n    tag_113:\n        /* \"#utility.yul\":8929:8932   */\n      0x00\n        /* \"#utility.yul\":8950:9017   */\n      tag_242\n        /* \"#utility.yul\":9014:9016   */\n      0x2c\n        /* \"#utility.yul\":9009:9012   */\n      dup4\n        /* \"#utility.yul\":8950:9017   */\n      tag_109\n      jump\t// in\n    tag_242:\n        /* \"#utility.yul\":8943:9017   */\n      swap2\n      pop\n        /* \"#utility.yul\":9026:9119   */\n      tag_243\n        /* \"#utility.yul\":9115:9118   */\n      dup3\n        /* \"#utility.yul\":9026:9119   */\n      tag_112\n      jump\t// in\n    tag_243:\n        /* \"#utility.yul\":9144:9146   */\n      0x40\n        /* \"#utility.yul\":9139:9142   */\n      dup3\n        /* \"#utility.yul\":9135:9147   */\n      add\n        /* \"#utility.yul\":9128:9147   */\n      swap1\n      pop\n        /* \"#utility.yul\":8787:9153   */\n      swap2\n      swap1\n      pop\n      jump\t// out\n        /* \"#utility.yul\":9159:9578   */\n    tag_43:\n        /* \"#utility.yul\":9325:9329   */\n      0x00\n        /* \"#utility.yul\":9363:9365   */\n      0x20\n        /* \"#utility.yul\":9352:9361   */\n      dup3\n        /* \"#utility.yul\":9348:9366   */\n      add\n        /* \"#utility.yul\":9340:9366   */\n      swap1\n      pop\n        /* \"#utility.yul\":9412:9421   */\n      dup2\n        /* \"#utility.yul\":9406:9410   */\n      dup2\n        /* \"#utility.yul\":9402:9422   */\n      sub\n        /* \"#utility.yul\":9398:9399   */\n      0x00\n        /* \"#utility.yul\":9387:9396   */\n      dup4\n        /* \"#utility.yul\":9383:9400   */\n      add\n        /* \"#utility.yul\":9376:9423   */\n      mstore\n        /* \"#utility.yul\":9440:9571   */\n      tag_245\n        /* \"#utility.yul\":9566:9570   */\n      dup2\n        /* \"#utility.yul\":9440:9571   */\n      tag_113\n      jump\t// in\n    tag_245:\n        /* \"#utility.yul\":9432:9571   */\n      swap1\n      pop\n        /* \"#utility.yul\":9159:9578   */\n      swap2\n      swap1\n      pop\n      jump\t// out\n        /* \"#utility.yul\":9584:9757   */\n    tag_114:\n        /* \"#utility.yul\":9724:9749   */\n      0x73656174436f756e74206e6f7420737065636966696564000000000000000000\n        /* \"#utility.yul\":9720:9721   */\n      0x00\n        /* \"#utility.yul\":9712:9718   */\n      dup3\n        /* \"#utility.yul\":9708:9722   */\n      add\n        /* \"#utility.yul\":9701:9750   */\n      mstore\n        /* \"#utility.yul\":9584:9757   */\n      pop\n      jump\t// out\n        /* \"#utility.yul\":9763:10129   */\n    tag_115:\n        /* \"#utility.yul\":9905:9908   */\n      0x00\n        /* \"#utility.yul\":9926:9993   */\n      tag_248\n        /* \"#utility.yul\":9990:9992   */\n      0x17\n        /* \"#utility.yul\":9985:9988   */\n      dup4\n        /* \"#utility.yul\":9926:9993   */\n      tag_109\n      jump\t// in\n    tag_248:\n        /* \"#utility.yul\":9919:9993   */\n      swap2\n      pop\n        /* \"#utility.yul\":10002:10095   */\n      tag_249\n        /* \"#utility.yul\":10091:10094   */\n      dup3\n        /* \"#utility.yul\":10002:10095   */\n      tag_114\n      jump\t// in\n    tag_249:\n        /* \"#utility.yul\":10120:10122   */\n      0x20\n        /* \"#utility.yul\":10115:10118   */\n      dup3\n        /* \"#utility.yul\":10111:10123   */\n      add\n        /* \"#utility.yul\":10104:10123   */\n      swap1\n      pop\n        /* \"#utility.yul\":9763:10129   */\n      swap2\n      swap1\n      pop\n      jump\t// out\n        /* \"#utility.yul\":10135:10554   */\n    tag_46:\n        /* \"#utility.yul\":10301:10305   */\n      0x00\n        /* \"#utility.yul\":10339:10341   */\n      0x20\n        /* \"#utility.yul\":10328:10337   */\n      dup3\n        /* \"#utility.yul\":10324:10342   */\n      add\n        /* \"#utility.yul\":10316:10342   */\n      swap1\n      pop\n        /* \"#utility.yul\":10388:10397   */\n      dup2\n        /* \"#utility.yul\":10382:10386   */\n      dup2\n        /* \"#utility.yul\":10378:10398   */\n      sub\n        /* \"#utility.yul\":10374:10375   */\n      0x00\n        /* \"#utility.yul\":10363:10372   */\n      dup4\n        /* \"#utility.yul\":10359:10376   */\n      add\n        /* \"#utility.yul\":10352:10399   */\n      mstore\n        /* \"#utility.yul\":10416:10547   */\n      tag_251\n        /* \"#utility.yul\":10542:10546   */\n      dup2\n        /* \"#utility.yul\":10416:10547   */\n      tag_115\n      jump\t// in\n    tag_251:\n        /* \"#utility.yul\":10408:10547   */\n      swap1\n      pop\n        /* \"#utility.yul\":10135:10554   */\n      swap2\n      swap1\n      pop\n      jump\t// out\n        /* \"#utility.yul\":10560:10740   */\n    tag_116:\n        /* \"#utility.yul\":10608:10685   */\n      0x4e487b7100000000000000000000000000000000000000000000000000000000\n        /* \"#utility.yul\":10605:10606   */\n      0x00\n        /* \"#utility.yul\":10598:10686   */\n      mstore\n        /* \"#utility.yul\":10705:10709   */\n      0x22\n        /* \"#utility.yul\":10702:10703   */\n      0x04\n        /* \"#utility.yul\":10695:10710   */\n      mstore\n        /* \"#utility.yul\":10729:10733   */\n      0x24\n        /* \"#utility.yul\":10726:10727   */\n      0x00\n        /* \"#utility.yul\":10719:10734   */\n      revert\n        /* \"#utility.yul\":10746:11066   */\n    tag_81:\n        /* \"#utility.yul\":10790:10796   */\n      0x00\n        /* \"#utility.yul\":10827:10828   */\n      0x02\n        /* \"#utility.yul\":10821:10825   */\n      dup3\n        /* \"#utility.yul\":10817:10829   */\n      div\n        /* \"#utility.yul\":10807:10829   */\n      swap1\n      pop\n        /* \"#utility.yul\":10874:10875   */\n      0x01\n        /* \"#utility.yul\":10868:10872   */\n      dup3\n        /* \"#utility.yul\":10864:10876   */\n      and\n        /* \"#utility.yul\":10895:10913   */\n      dup1\n        /* \"#utility.yul\":10885:10966   */\n      tag_254\n      jumpi\n        /* \"#utility.yul\":10951:10955   */\n      0x7f\n        /* \"#utility.yul\":10943:10949   */\n      dup3\n        /* \"#utility.yul\":10939:10956   */\n      and\n        /* \"#utility.yul\":10929:10956   */\n      swap2\n      pop\n        /* \"#utility.yul\":10885:10966   */\n    tag_254:\n        /* \"#utility.yul\":11013:11015   */\n      0x20\n        /* \"#utility.yul\":11005:11011   */\n      dup3\n        /* \"#utility.yul\":11002:11016   */\n      lt\n        /* \"#utility.yul\":10982:11000   */\n      dup2\n        /* \"#utility.yul\":10979:11017   */\n      sub\n        /* \"#utility.yul\":10976:11060   */\n      tag_255\n      jumpi\n        /* \"#utility.yul\":11032:11050   */\n      tag_256\n      tag_116\n      jump\t// in\n    tag_256:\n        /* \"#utility.yul\":10976:11060   */\n    tag_255:\n        /* \"#utility.yul\":10797:11066   */\n      pop\n        /* \"#utility.yul\":10746:11066   */\n      swap2\n      swap1\n      pop\n      jump\t// out\n        /* \"#utility.yul\":11072:11213   */\n    tag_117:\n        /* \"#utility.yul\":11121:11125   */\n      0x00\n        /* \"#utility.yul\":11144:11147   */\n      dup2\n        /* \"#utility.yul\":11136:11147   */\n      swap1\n      pop\n        /* \"#utility.yul\":11167:11170   */\n      dup2\n        /* \"#utility.yul\":11164:11165   */\n      0x00\n        /* \"#utility.yul\":11157:11171   */\n      mstore\n        /* \"#utility.yul\":11201:11205   */\n      0x20\n        /* \"#utility.yul\":11198:11199   */\n      0x00\n        /* \"#utility.yul\":11188:11206   */\n      keccak256\n        /* \"#utility.yul\":11180:11206   */\n      swap1\n      pop\n        /* \"#utility.yul\":11072:11213   */\n      swap2\n      swap1\n      pop\n      jump\t// out\n        /* \"#utility.yul\":11219:11312   */\n    tag_118:\n        /* \"#utility.yul\":11256:11262   */\n      0x00\n        /* \"#utility.yul\":11303:11305   */\n      0x20\n        /* \"#utility.yul\":11298:11300   */\n      0x1f\n        /* \"#utility.yul\":11291:11296   */\n      dup4\n        /* \"#utility.yul\":11287:11301   */\n      add\n        /* \"#utility.yul\":11283:11306   */\n      div\n        /* \"#utility.yul\":11273:11306   */\n      swap1\n      pop\n        /* \"#utility.yul\":11219:11312   */\n      swap2\n      swap1\n      pop\n      jump\t// out\n        /* \"#utility.yul\":11318:11425   */\n    tag_119:\n        /* \"#utility.yul\":11362:11370   */\n      0x00\n        /* \"#utility.yul\":11412:11417   */\n      dup3\n        /* \"#utility.yul\":11406:11410   */\n      dup3\n        /* \"#utility.yul\":11402:11418   */\n      shl\n        /* \"#utility.yul\":11381:11418   */\n      swap1\n      pop\n        /* \"#utility.yul\":11318:11425   */\n      swap3\n      swap2\n      pop\n      pop\n      jump\t// out\n        /* \"#utility.yul\":11431:11824   */\n    tag_120:\n        /* \"#utility.yul\":11500:11506   */\n      0x00\n        /* \"#utility.yul\":11550:11551   */\n      0x08\n        /* \"#utility.yul\":11538:11548   */\n      dup4\n        /* \"#utility.yul\":11534:11552   */\n      mul\n        /* \"#utility.yul\":11573:11670   */\n      tag_261\n        /* \"#utility.yul\":11603:11669   */\n      0xffffffffffffffffffffffffffffffffffffffffffffffffffffffffffffffff\n        /* \"#utility.yul\":11592:11601   */\n      dup3\n        /* \"#utility.yul\":11573:11670   */\n      tag_119\n      jump\t// in\n    tag_261:\n        /* \"#utility.yul\":11691:11730   */\n      tag_262\n        /* \"#utility.yul\":11721:11729   */\n      dup7\n        /* \"#utility.yul\":11710:11719   */\n      dup4\n        /* \"#utility.yul\":11691:11730   */\n      tag_119\n      jump\t// in\n    tag_262:\n        /* \"#utility.yul\":11679:11730   */\n      swap6\n      pop\n        /* \"#utility.yul\":11763:11767   */\n      dup1\n        /* \"#utility.yul\":11759:11768   */\n      not\n        /* \"#utility.yul\":11752:11757   */\n      dup5\n        /* \"#utility.yul\":11748:11769   */\n      and\n        /* \"#utility.yul\":11739:11769   */\n      swap4\n      pop\n        /* \"#utility.yul\":11812:11816   */\n      dup1\n        /* \"#utility.yul\":11802:11810   */\n      dup7\n        /* \"#utility.yul\":11798:11817   */\n      and\n        /* \"#utility.yul\":11791:11796   */\n      dup5\n        /* \"#utility.yul\":11788:11818   */\n      or\n        /* \"#utility.yul\":11778:11818   */\n      swap3\n      pop\n        /* \"#utility.yul\":11507:11824   */\n      pop\n      pop\n        /* \"#utility.yul\":11431:11824   */\n      swap4\n      swap3\n      pop\n      pop\n      pop\n      jump\t// out\n        /* \"#utility.yul\":11830:11890   */\n    tag_121:\n        /* \"#utility.yul\":11858:11861   */\n      0x00\n        /* \"#utility.yul\":11879:11884   */\n      dup2\n        /* \"#utility.yul\":11872:11884   */\n      swap1\n      pop\n        /* \"#utility.yul\":11830:11890   */\n      swap2\n      swap1\n      pop\n      jump\t// out\n        /* \"#utility.yul\":11896:12038   */\n    tag_122:\n        /* \"#utility.yul\":11946:11955   */\n      0x00\n        /* \"#utility.yul\":11979:12032   */\n      tag_265\n        /* \"#utility.yul\":11997:12031   */\n      tag_266\n        /* \"#utility.yul\":12006:12030   */\n      tag_267\n        /* \"#utility.yul\":12024:12029   */\n      dup5\n        /* \"#utility.yul\":12006:12030   */\n      tag_86\n      jump\t// in\n    tag_267:\n        /* \"#utility.yul\":11997:12031   */\n      tag_121\n      jump\t// in\n    tag_266:\n        /* \"#utility.yul\":11979:12032   */\n      tag_86\n      jump\t// in\n    tag_265:\n        /* \"#utility.yul\":11966:12032   */\n      swap1\n      pop\n        /* \"#utility.yul\":11896:12038   */\n      swap2\n      swap1\n      pop\n      jump\t// out\n        /* \"#utility.yul\":12044:12119   */\n    tag_123:\n        /* \"#utility.yul\":12087:12090   */\n      0x00\n        /* \"#utility.yul\":12108:12113   */\n      dup2\n        /* \"#utility.yul\":12101:12113   */\n      swap1\n      pop\n        /* \"#utility.yul\":12044:12119   */\n      swap2\n      swap1\n      pop\n      jump\t// out\n        /* \"#utility.yul\":12125:12394   */\n    tag_124:\n        /* \"#utility.yul\":12235:12274   */\n      tag_270\n        /* \"#utility.yul\":12266:12273   */\n      dup4\n        /* \"#utility.yul\":12235:12274   */\n      tag_122\n      jump\t// in\n    tag_270:\n        /* \"#utility.yul\":12296:12387   */\n      tag_271\n        /* \"#utility.yul\":12345:12386   */\n      tag_272\n        /* \"#utility.yul\":12369:12385   */\n      dup3\n        /* \"#utility.yul\":12345:12386   */\n      tag_123\n      jump\t// in\n    tag_272:\n        /* \"#utility.yul\":12337:12343   */\n      dup5\n        /* \"#utility.yul\":12330:12334   */\n      dup5\n        /* \"#utility.yul\":12324:12335   */\n      sload\n        /* \"#utility.yul\":12296:12387   */\n      tag_120\n      jump\t// in\n    tag_271:\n        /* \"#utility.yul\":12290:12294   */\n      dup3\n        /* \"#utility.yul\":12283:12388   */\n      sstore\n        /* \"#utility.yul\":12201:12394   */\n      pop\n        /* \"#utility.yul\":12125:12394   */\n      pop\n      pop\n      pop\n      jump\t// out\n        /* \"#utility.yul\":12400:12473   */\n    tag_125:\n        /* \"#utility.yul\":12445:12448   */\n      0x00\n        /* \"#utility.yul\":12400:12473   */\n      swap1\n      jump\t// out\n        /* \"#utility.yul\":12479:12668   */\n    tag_126:\n        /* \"#utility.yul\":12556:12588   */\n      tag_275\n      tag_125\n      jump\t// in\n    tag_275:\n        /* \"#utility.yul\":12597:12662   */\n      tag_276\n        /* \"#utility.yul\":12655:12661   */\n      dup2\n        /* \"#utility.yul\":12647:12653   */\n      dup5\n        /* \"#utility.yul\":12641:12645   */\n      dup5\n        /* \"#utility.yul\":12597:12662   */\n      tag_124\n      jump\t// in\n    tag_276:\n        /* \"#utility.yul\":12532:12668   */\n      pop\n        /* \"#utility.yul\":12479:12668   */\n      pop\n      pop\n      jump\t// out\n        /* \"#utility.yul\":12674:12860   */\n    tag_127:\n        /* \"#utility.yul\":12734:12854   */\n    tag_278:\n        /* \"#utility.yul\":12751:12754   */\n      dup2\n        /* \"#utility.yul\":12744:12749   */\n      dup2\n        /* \"#utility.yul\":12741:12755   */\n      lt\n        /* \"#utility.yul\":12734:12854   */\n      iszero\n      tag_280\n      jumpi\n        /* \"#utility.yul\":12805:12844   */\n      tag_281\n        /* \"#utility.yul\":12842:12843   */\n      0x00\n        /* \"#utility.yul\":12835:12840   */\n      dup3\n        /* \"#utility.yul\":12805:12844   */\n      tag_126\n      jump\t// in\n    tag_281:\n        /* \"#utility.yul\":12778:12779   */\n      0x01\n        /* \"#utility.yul\":12771:12776   */\n      dup2\n        /* \"#utility.yul\":12767:12780   */\n      add\n        /* \"#utility.yul\":12758:12780   */\n      swap1\n      pop\n        /* \"#utility.yul\":12734:12854   */\n      jump(tag_278)\n    tag_280:\n        /* \"#utility.yul\":12674:12860   */\n      pop\n      pop\n      jump\t// out\n        /* \"#utility.yul\":12866:13409   */\n    tag_128:\n        /* \"#utility.yul\":12967:12969   */\n      0x1f\n        /* \"#utility.yul\":12962:12965   */\n      dup3\n        /* \"#utility.yul\":12959:12970   */\n      gt\n        /* \"#utility.yul\":12956:13402   */\n      iszero\n      tag_283\n      jumpi\n        /* \"#utility.yul\":13001:13039   */\n      tag_284\n        /* \"#utility.yul\":13033:13038   */\n      dup2\n        /* \"#utility.yul\":13001:13039   */\n      tag_117\n      jump\t// in\n    tag_284:\n        /* \"#utility.yul\":13085:13114   */\n      tag_285\n        /* \"#utility.yul\":13103:13113   */\n      dup5\n        /* \"#utility.yul\":13085:13114   */\n      tag_118\n      jump\t// in\n    tag_285:\n        /* \"#utility.yul\":13075:13083   */\n      dup2\n        /* \"#utility.yul\":13071:13115   */\n      add\n        /* \"#utility.yul\":13268:13270   */\n      0x20\n        /* \"#utility.yul\":13256:13266   */\n      dup6\n        /* \"#utility.yul\":13253:13271   */\n      lt\n        /* \"#utility.yul\":13250:13299   */\n      iszero\n      tag_286\n      jumpi\n        /* \"#utility.yul\":13289:13297   */\n      dup2\n        /* \"#utility.yul\":13274:13297   */\n      swap1\n      pop\n        /* \"#utility.yul\":13250:13299   */\n    tag_286:\n        /* \"#utility.yul\":13312:13392   */\n      tag_287\n        /* \"#utility.yul\":13368:13390   */\n      tag_288\n        /* \"#utility.yul\":13386:13389   */\n      dup6\n        /* \"#utility.yul\":13368:13390   */\n      tag_118\n      jump\t// in\n    tag_288:\n        /* \"#utility.yul\":13358:13366   */\n      dup4\n        /* \"#utility.yul\":13354:13391   */\n      add\n        /* \"#utility.yul\":13341:13352   */\n      dup3\n        /* \"#utility.yul\":13312:13392   */\n      tag_127\n      jump\t// in\n    tag_287:\n        /* \"#utility.yul\":12971:13402   */\n      pop\n      pop\n        /* \"#utility.yul\":12956:13402   */\n    tag_283:\n        /* \"#utility.yul\":12866:13409   */\n      pop\n      pop\n      pop\n      jump\t// out\n        /* \"#utility.yul\":13415:13532   */\n    tag_129:\n        /* \"#utility.yul\":13469:13477   */\n      0x00\n        /* \"#utility.yul\":13519:13524   */\n      dup3\n        /* \"#utility.yul\":13513:13517   */\n      dup3\n        /* \"#utility.yul\":13509:13525   */\n      shr\n        /* \"#utility.yul\":13488:13525   */\n      swap1\n      pop\n        /* \"#utility.yul\":13415:13532   */\n      swap3\n      swap2\n      pop\n      pop\n      jump\t// out\n        /* \"#utility.yul\":13538:13707   */\n    tag_130:\n        /* \"#utility.yul\":13582:13588   */\n      0x00\n        /* \"#utility.yul\":13615:13666   */\n      tag_291\n        /* \"#utility.yul\":13663:13664   */\n      0x00\n        /* \"#utility.yul\":13659:13665   */\n      not\n        /* \"#utility.yul\":13651:13656   */\n      dup5\n        /* \"#utility.yul\":13648:13649   */\n      0x08\n        /* \"#utility.yul\":13644:13657   */\n      mul\n        /* \"#utility.yul\":13615:13666   */\n      tag_129\n      jump\t// in\n    tag_291:\n        /* \"#utility.yul\":13611:13667   */\n      not\n        /* \"#utility.yul\":13696:13700   */\n      dup1\n        /* \"#utility.yul\":13690:13694   */\n      dup4\n        /* \"#utility.yul\":13686:13701   */\n      and\n        /* \"#utility.yul\":13676:13701   */\n      swap2\n      pop\n        /* \"#utility.yul\":13589:13707   */\n      pop\n        /* \"#utility.yul\":13538:13707   */\n      swap3\n      swap2\n      pop\n      pop\n      jump\t// out\n        /* \"#utility.yul\":13712:14007   */\n    tag_131:\n        /* \"#utility.yul\":13788:13792   */\n      0x00\n        /* \"#utility.yul\":13934:13963   */\n      tag_293\n        /* \"#utility.yul\":13959:13962   */\n      dup4\n        /* \"#utility.yul\":13953:13957   */\n      dup4\n        /* \"#utility.yul\":13934:13963   */\n      tag_130\n      jump\t// in\n    tag_293:\n        /* \"#utility.yul\":13926:13963   */\n      swap2\n      pop\n        /* \"#utility.yul\":13996:13999   */\n      dup3\n        /* \"#utility.yul\":13993:13994   */\n      0x02\n        /* \"#utility.yul\":13989:14000   */\n      mul\n        /* \"#utility.yul\":13983:13987   */\n      dup3\n        /* \"#utility.yul\":13980:14001   */\n      or\n        /* \"#utility.yul\":13972:14001   */\n      swap1\n      pop\n        /* \"#utility.yul\":13712:14007   */\n      swap3\n      swap2\n      pop\n      pop\n      jump\t// out\n        /* \"#utility.yul\":14012:15407   */\n    tag_48:\n        /* \"#utility.yul\":14129:14166   */\n      tag_295\n        /* \"#utility.yul\":14162:14165   */\n      dup3\n        /* \"#utility.yul\":14129:14166   */\n      tag_108\n      jump\t// in\n    tag_295:\n        /* \"#utility.yul\":14231:14249   */\n      0xffffffffffffffff\n        /* \"#utility.yul\":14223:14229   */\n      dup2\n        /* \"#utility.yul\":14220:14250   */\n      gt\n        /* \"#utility.yul\":14217:14273   */\n      iszero\n      tag_296\n      jumpi\n        /* \"#utility.yul\":14253:14271   */\n      tag_297\n      tag_94\n      jump\t// in\n    tag_297:\n        /* \"#utility.yul\":14217:14273   */\n    tag_296:\n        /* \"#utility.yul\":14297:14335   */\n      tag_298\n        /* \"#utility.yul\":14329:14333   */\n      dup3\n        /* \"#utility.yul\":14323:14334   */\n      sload\n        /* \"#utility.yul\":14297:14335   */\n      tag_81\n      jump\t// in\n    tag_298:\n        /* \"#utility.yul\":14382:14449   */\n      tag_299\n        /* \"#utility.yul\":14442:14448   */\n      dup3\n        /* \"#utility.yul\":14434:14440   */\n      dup3\n        /* \"#utility.yul\":14428:14432   */\n      dup6\n        /* \"#utility.yul\":14382:14449   */\n      tag_128\n      jump\t// in\n    tag_299:\n        /* \"#utility.yul\":14476:14477   */\n      0x00\n        /* \"#utility.yul\":14500:14504   */\n      0x20\n        /* \"#utility.yul\":14487:14504   */\n      swap1\n      pop\n        /* \"#utility.yul\":14532:14534   */\n      0x1f\n        /* \"#utility.yul\":14524:14530   */\n      dup4\n        /* \"#utility.yul\":14521:14535   */\n      gt\n        /* \"#utility.yul\":14549:14550   */\n      0x01\n        /* \"#utility.yul\":14544:15162   */\n      dup2\n      eq\n      tag_301\n      jumpi\n        /* \"#utility.yul\":15206:15207   */\n      0x00\n        /* \"#utility.yul\":15223:15229   */\n      dup5\n        /* \"#utility.yul\":15220:15297   */\n      iszero\n      tag_302\n      jumpi\n        /* \"#utility.yul\":15272:15281   */\n      dup3\n        /* \"#utility.yul\":15267:15270   */\n      dup8\n        /* \"#utility.yul\":15263:15282   */\n      add\n        /* \"#utility.yul\":15257:15283   */\n      mload\n        /* \"#utility.yul\":15248:15283   */\n      swap1\n      pop\n        /* \"#utility.yul\":15220:15297   */\n    tag_302:\n        /* \"#utility.yul\":15323:15390   */\n      tag_303\n        /* \"#utility.yul\":15383:15389   */\n      dup6\n        /* \"#utility.yul\":15376:15381   */\n      dup3\n        /* \"#utility.yul\":15323:15390   */\n      tag_131\n      jump\t// in\n    tag_303:\n        /* \"#utility.yul\":15317:15321   */\n      dup7\n        /* \"#utility.yul\":15310:15391   */\n      sstore\n        /* \"#utility.yul\":15179:15401   */\n      pop\n        /* \"#utility.yul\":14514:15401   */\n      jump(tag_300)\n        /* \"#utility.yul\":14544:15162   */\n    tag_301:\n        /* \"#utility.yul\":14596:14600   */\n      0x1f\n        /* \"#utility.yul\":14592:14601   */\n      not\n        /* \"#utility.yul\":14584:14590   */\n      dup5\n        /* \"#utility.yul\":14580:14602   */\n      and\n        /* \"#utility.yul\":14630:14667   */\n      tag_304\n        /* \"#utility.yul\":14662:14666   */\n      dup7\n        /* \"#utility.yul\":14630:14667   */\n      tag_117\n      jump\t// in\n    tag_304:\n        /* \"#utility.yul\":14689:14690   */\n      0x00\n        /* \"#utility.yul\":14703:14911   */\n    tag_305:\n        /* \"#utility.yul\":14717:14724   */\n      dup3\n        /* \"#utility.yul\":14714:14715   */\n      dup2\n        /* \"#utility.yul\":14711:14725   */\n      lt\n        /* \"#utility.yul\":14703:14911   */\n      iszero\n      tag_307\n      jumpi\n        /* \"#utility.yul\":14796:14805   */\n      dup5\n        /* \"#utility.yul\":14791:14794   */\n      dup10\n        /* \"#utility.yul\":14787:14806   */\n      add\n        /* \"#utility.yul\":14781:14807   */\n      mload\n        /* \"#utility.yul\":14773:14779   */\n      dup3\n        /* \"#utility.yul\":14766:14808   */\n      sstore\n        /* \"#utility.yul\":14847:14848   */\n      0x01\n        /* \"#utility.yul\":14839:14845   */\n      dup3\n        /* \"#utility.yul\":14835:14849   */\n      add\n        /* \"#utility.yul\":14825:14849   */\n      swap2\n      pop\n        /* \"#utility.yul\":14894:14896   */\n      0x20\n        /* \"#utility.yul\":14883:14892   */\n      dup6\n        /* \"#utility.yul\":14879:14897   */\n      add\n        /* \"#utility.yul\":14866:14897   */\n      swap5\n      pop\n        /* \"#utility.yul\":14740:14744   */\n      0x20\n        /* \"#utility.yul\":14737:14738   */\n      dup2\n        /* \"#utility.yul\":14733:14745   */\n      add\n        /* \"#utility.yul\":14728:14745   */\n      swap1\n      pop\n        /* \"#utility.yul\":14703:14911   */\n      jump(tag_305)\n    tag_307:\n        /* \"#utility.yul\":14939:14945   */\n      dup7\n        /* \"#utility.yul\":14930:14937   */\n      dup4\n        /* \"#utility.yul\":14927:14946   */\n      lt\n        /* \"#utility.yul\":14924:15103   */\n      iszero\n      tag_308\n      jumpi\n        /* \"#utility.yul\":14997:15006   */\n      dup5\n        /* \"#utility.yul\":14992:14995   */\n      dup10\n        /* \"#utility.yul\":14988:15007   */\n      add\n        /* \"#utility.yul\":14982:15008   */\n      mload\n        /* \"#utility.yul\":15040:15088   */\n      tag_309\n        /* \"#utility.yul\":15082:15086   */\n      0x1f\n        /* \"#utility.yul\":15074:15080   */\n      dup10\n        /* \"#utility.yul\":15070:15087   */\n      and\n        /* \"#utility.yul\":15059:15068   */\n      dup3\n        /* \"#utility.yul\":15040:15088   */\n      tag_130\n      jump\t// in\n    tag_309:\n        /* \"#utility.yul\":15032:15038   */\n      dup4\n        /* \"#utility.yul\":15025:15089   */\n      sstore\n        /* \"#utility.yul\":14947:15103   */\n      pop\n        /* \"#utility.yul\":14924:15103   */\n    tag_308:\n        /* \"#utility.yul\":15149:15150   */\n      0x01\n        /* \"#utility.yul\":15145:15146   */\n      0x02\n        /* \"#utility.yul\":15137:15143   */\n      dup9\n        /* \"#utility.yul\":15133:15147   */\n      mul\n        /* \"#utility.yul\":15129:15151   */\n      add\n        /* \"#utility.yul\":15123:15127   */\n      dup9\n        /* \"#utility.yul\":15116:15152   */\n      sstore\n        /* \"#utility.yul\":14551:15162   */\n      pop\n      pop\n      pop\n        /* \"#utility.yul\":14514:15401   */\n    tag_300:\n      pop\n        /* \"#utility.yul\":14104:15407   */\n      pop\n      pop\n      pop\n        /* \"#utility.yul\":14012:15407   */\n      pop\n      pop\n      jump\t// out\n        /* \"#utility.yul\":15413:15593   */\n    tag_132:\n        /* \"#utility.yul\":15461:15538   */\n      0x4e487b7100000000000000000000000000000000000000000000000000000000\n        /* \"#utility.yul\":15458:15459   */\n      0x00\n        /* \"#utility.yul\":15451:15539   */\n      mstore\n        /* \"#utility.yul\":15558:15562   */\n      0x11\n        /* \"#utility.yul\":15555:15556   */\n      0x04\n        /* \"#utility.yul\":15548:15563   */\n      mstore\n        /* \"#utility.yul\":15582:15586   */\n      0x24\n        /* \"#utility.yul\":15579:15580   */\n      0x00\n        /* \"#utility.yul\":15572:15587   */\n      revert\n        /* \"#utility.yul\":15599:15832   */\n    tag_50:\n        /* \"#utility.yul\":15638:15641   */\n      0x00\n        /* \"#utility.yul\":15661:15685   */\n      tag_312\n        /* \"#utility.yul\":15679:15684   */\n      dup3\n        /* \"#utility.yul\":15661:15685   */\n      tag_86\n      jump\t// in\n    tag_312:\n        /* \"#utility.yul\":15652:15685   */\n      swap2\n      pop\n        /* \"#utility.yul\":15707:15773   */\n      0xffffffffffffffffffffffffffffffffffffffffffffffffffffffffffffffff\n        /* \"#utility.yul\":15700:15705   */\n      dup3\n        /* \"#utility.yul\":15697:15774   */\n      sub\n        /* \"#utility.yul\":15694:15797   */\n      tag_313\n      jumpi\n        /* \"#utility.yul\":15777:15795   */\n      tag_314\n      tag_132\n      jump\t// in\n    tag_314:\n        /* \"#utility.yul\":15694:15797   */\n    tag_313:\n        /* \"#utility.yul\":15824:15825   */\n      0x01\n        /* \"#utility.yul\":15817:15822   */\n      dup3\n        /* \"#utility.yul\":15813:15826   */\n      add\n        /* \"#utility.yul\":15806:15826   */\n      swap1\n      pop\n        /* \"#utility.yul\":15599:15832   */\n      swap2\n      swap1\n      pop\n      jump\t// out\n        /* \"#utility.yul\":15838:16016   */\n    tag_133:\n        /* \"#utility.yul\":15978:16008   */\n      0x5468697320776f726b73686f7020646f6573206e6f7420657869737400000000\n        /* \"#utility.yul\":15974:15975   */\n      0x00\n        /* \"#utility.yul\":15966:15972   */\n      dup3\n        /* \"#utility.yul\":15962:15976   */\n      add\n        /* \"#utility.yul\":15955:16009   */\n      mstore\n        /* \"#utility.yul\":15838:16016   */\n      pop\n      jump\t// out\n        /* \"#utility.yul\":16022:16388   */\n    tag_134:\n        /* \"#utility.yul\":16164:16167   */\n      0x00\n        /* \"#utility.yul\":16185:16252   */\n      tag_317\n        /* \"#utility.yul\":16249:16251   */\n      0x1c\n        /* \"#utility.yul\":16244:16247   */\n      dup4\n        /* \"#utility.yul\":16185:16252   */\n      tag_109\n      jump\t// in\n    tag_317:\n        /* \"#utility.yul\":16178:16252   */\n      swap2\n      pop\n        /* \"#utility.yul\":16261:16354   */\n      tag_318\n        /* \"#utility.yul\":16350:16353   */\n      dup3\n        /* \"#utility.yul\":16261:16354   */\n      tag_133\n      jump\t// in\n    tag_318:\n        /* \"#utility.yul\":16379:16381   */\n      0x20\n        /* \"#utility.yul\":16374:16377   */\n      dup3\n        /* \"#utility.yul\":16370:16382   */\n      add\n        /* \"#utility.yul\":16363:16382   */\n      swap1\n      pop\n        /* \"#utility.yul\":16022:16388   */\n      swap2\n      swap1\n      pop\n      jump\t// out\n        /* \"#utility.yul\":16394:16813   */\n    tag_54:\n        /* \"#utility.yul\":16560:16564   */\n      0x00\n        /* \"#utility.yul\":16598:16600   */\n      0x20\n        /* \"#utility.yul\":16587:16596   */\n      dup3\n        /* \"#utility.yul\":16583:16601   */\n      add\n        /* \"#utility.yul\":16575:16601   */\n      swap1\n      pop\n        /* \"#utility.yul\":16647:16656   */\n      dup2\n        /* \"#utility.yul\":16641:16645   */\n      dup2\n        /* \"#utility.yul\":16637:16657   */\n      sub\n        /* \"#utility.yul\":16633:16634   */\n      0x00\n        /* \"#utility.yul\":16622:16631   */\n      dup4\n        /* \"#utility.yul\":16618:16635   */\n      add\n        /* \"#utility.yul\":16611:16658   */\n      mstore\n        /* \"#utility.yul\":16675:16806   */\n      tag_320\n        /* \"#utility.yul\":16801:16805   */\n      dup2\n        /* \"#utility.yul\":16675:16806   */\n      tag_134\n      jump\t// in\n    tag_320:\n        /* \"#utility.yul\":16667:16806   */\n      swap1\n      pop\n        /* \"#utility.yul\":16394:16813   */\n      swap2\n      swap1\n      pop\n      jump\t// out\n        /* \"#utility.yul\":16819:16998   */\n    tag_135:\n        /* \"#utility.yul\":16959:16990   */\n      0x576f726b73686f7020616c7265616479206163636f6d706c6973686564000000\n        /* \"#utility.yul\":16955:16956   */\n      0x00\n        /* \"#utility.yul\":16947:16953   */\n      dup3\n        /* \"#utility.yul\":16943:16957   */\n      add\n        /* \"#utility.yul\":16936:16991   */\n      mstore\n        /* \"#utility.yul\":16819:16998   */\n      pop\n      jump\t// out\n        /* \"#utility.yul\":17004:17370   */\n    tag_136:\n        /* \"#utility.yul\":17146:17149   */\n      0x00\n        /* \"#utility.yul\":17167:17234   */\n      tag_323\n        /* \"#utility.yul\":17231:17233   */\n      0x1d\n        /* \"#utility.yul\":17226:17229   */\n      dup4\n        /* \"#utility.yul\":17167:17234   */\n      tag_109\n      jump\t// in\n    tag_323:\n        /* \"#utility.yul\":17160:17234   */\n      swap2\n      pop\n        /* \"#utility.yul\":17243:17336   */\n      tag_324\n        /* \"#utility.yul\":17332:17335   */\n      dup3\n        /* \"#utility.yul\":17243:17336   */\n      tag_135\n      jump\t// in\n    tag_324:\n        /* \"#utility.yul\":17361:17363   */\n      0x20\n        /* \"#utility.yul\":17356:17359   */\n      dup3\n        /* \"#utility.yul\":17352:17364   */\n      add\n        /* \"#utility.yul\":17345:17364   */\n      swap1\n      pop\n        /* \"#utility.yul\":17004:17370   */\n      swap2\n      swap1\n      pop\n      jump\t// out\n        /* \"#utility.yul\":17376:17795   */\n    tag_57:\n        /* \"#utility.yul\":17542:17546   */\n      0x00\n        /* \"#utility.yul\":17580:17582   */\n      0x20\n        /* \"#utility.yul\":17569:17578   */\n      dup3\n        /* \"#utility.yul\":17565:17583   */\n      add\n        /* \"#utility.yul\":17557:17583   */\n      swap1\n      pop\n        /* \"#utility.yul\":17629:17638   */\n      dup2\n        /* \"#utility.yul\":17623:17627   */\n      dup2\n        /* \"#utility.yul\":17619:17639   */\n      sub\n        /* \"#utility.yul\":17615:17616   */\n      0x00\n        /* \"#utility.yul\":17604:17613   */\n      dup4\n        /* \"#utility.yul\":17600:17617   */\n      add\n        /* \"#utility.yul\":17593:17640   */\n      mstore\n        /* \"#utility.yul\":17657:17788   */\n      tag_326\n        /* \"#utility.yul\":17783:17787   */\n      dup2\n        /* \"#utility.yul\":17657:17788   */\n      tag_136\n      jump\t// in\n    tag_326:\n        /* \"#utility.yul\":17649:17788   */\n      swap1\n      pop\n        /* \"#utility.yul\":17376:17795   */\n      swap2\n      swap1\n      pop\n      jump\t// out\n        /* \"#utility.yul\":17801:17977   */\n    tag_137:\n        /* \"#utility.yul\":17941:17969   */\n      0x4e6f7420656e6f75676820736561747320746f20726573656c6c000000000000\n        /* \"#utility.yul\":17937:17938   */\n      0x00\n        /* \"#utility.yul\":17929:17935   */\n      dup3\n        /* \"#utility.yul\":17925:17939   */\n      add\n        /* \"#utility.yul\":17918:17970   */\n      mstore\n        /* \"#utility.yul\":17801:17977   */\n      pop\n      jump\t// out\n        /* \"#utility.yul\":17983:18349   */\n    tag_138:\n        /* \"#utility.yul\":18125:18128   */\n      0x00\n        /* \"#utility.yul\":18146:18213   */\n      tag_329\n        /* \"#utility.yul\":18210:18212   */\n      0x1a\n        /* \"#utility.yul\":18205:18208   */\n      dup4\n        /* \"#utility.yul\":18146:18213   */\n      tag_109\n      jump\t// in\n    tag_329:\n        /* \"#utility.yul\":18139:18213   */\n      swap2\n      pop\n        /* \"#utility.yul\":18222:18315   */\n      tag_330\n        /* \"#utility.yul\":18311:18314   */\n      dup3\n        /* \"#utility.yul\":18222:18315   */\n      tag_137\n      jump\t// in\n    tag_330:\n        /* \"#utility.yul\":18340:18342   */\n      0x20\n        /* \"#utility.yul\":18335:18338   */\n      dup3\n        /* \"#utility.yul\":18331:18343   */\n      add\n        /* \"#utility.yul\":18324:18343   */\n      swap1\n      pop\n        /* \"#utility.yul\":17983:18349   */\n      swap2\n      swap1\n      pop\n      jump\t// out\n        /* \"#utility.yul\":18355:18774   */\n    tag_60:\n        /* \"#utility.yul\":18521:18525   */\n      0x00\n        /* \"#utility.yul\":18559:18561   */\n      0x20\n        /* \"#utility.yul\":18548:18557   */\n      dup3\n        /* \"#utility.yul\":18544:18562   */\n      add\n        /* \"#utility.yul\":18536:18562   */\n      swap1\n      pop\n        /* \"#utility.yul\":18608:18617   */\n      dup2\n        /* \"#utility.yul\":18602:18606   */\n      dup2\n        /* \"#utility.yul\":18598:18618   */\n      sub\n        /* \"#utility.yul\":18594:18595   */\n      0x00\n        /* \"#utility.yul\":18583:18592   */\n      dup4\n        /* \"#utility.yul\":18579:18596   */\n      add\n        /* \"#utility.yul\":18572:18619   */\n      mstore\n        /* \"#utility.yul\":18636:18767   */\n      tag_332\n        /* \"#utility.yul\":18762:18766   */\n      dup2\n        /* \"#utility.yul\":18636:18767   */\n      tag_138\n      jump\t// in\n    tag_332:\n        /* \"#utility.yul\":18628:18767   */\n      swap1\n      pop\n        /* \"#utility.yul\":18355:18774   */\n      swap2\n      swap1\n      pop\n      jump\t// out\n        /* \"#utility.yul\":18780:18974   */\n    tag_62:\n        /* \"#utility.yul\":18820:18824   */\n      0x00\n        /* \"#utility.yul\":18840:18860   */\n      tag_334\n        /* \"#utility.yul\":18858:18859   */\n      dup3\n        /* \"#utility.yul\":18840:18860   */\n      tag_86\n      jump\t// in\n    tag_334:\n        /* \"#utility.yul\":18835:18860   */\n      swap2\n      pop\n        /* \"#utility.yul\":18874:18894   */\n      tag_335\n        /* \"#utility.yul\":18892:18893   */\n      dup4\n        /* \"#utility.yul\":18874:18894   */\n      tag_86\n      jump\t// in\n    tag_335:\n        /* \"#utility.yul\":18869:18894   */\n      swap3\n      pop\n        /* \"#utility.yul\":18918:18919   */\n      dup3\n        /* \"#utility.yul\":18915:18916   */\n      dup3\n        /* \"#utility.yul\":18911:18920   */\n      sub\n        /* \"#utility.yul\":18903:18920   */\n      swap1\n      pop\n        /* \"#utility.yul\":18942:18943   */\n      dup2\n        /* \"#utility.yul\":18936:18940   */\n      dup2\n        /* \"#utility.yul\":18933:18944   */\n      gt\n        /* \"#utility.yul\":18930:18967   */\n      iszero\n      tag_336\n      jumpi\n        /* \"#utility.yul\":18947:18965   */\n      tag_337\n      tag_132\n      jump\t// in\n    tag_337:\n        /* \"#utility.yul\":18930:18967   */\n    tag_336:\n        /* \"#utility.yul\":18780:18974   */\n      swap3\n      swap2\n      pop\n      pop\n      jump\t// out\n        /* \"#utility.yul\":18980:19171   */\n    tag_64:\n        /* \"#utility.yul\":19020:19023   */\n      0x00\n        /* \"#utility.yul\":19039:19059   */\n      tag_339\n        /* \"#utility.yul\":19057:19058   */\n      dup3\n        /* \"#utility.yul\":19039:19059   */\n      tag_86\n      jump\t// in\n    tag_339:\n        /* \"#utility.yul\":19034:19059   */\n      swap2\n      pop\n        /* \"#utility.yul\":19073:19093   */\n      tag_340\n        /* \"#utility.yul\":19091:19092   */\n      dup4\n        /* \"#utility.yul\":19073:19093   */\n      tag_86\n      jump\t// in\n    tag_340:\n        /* \"#utility.yul\":19068:19093   */\n      swap3\n      pop\n        /* \"#utility.yul\":19116:19117   */\n      dup3\n        /* \"#utility.yul\":19113:19114   */\n      dup3\n        /* \"#utility.yul\":19109:19118   */\n      add\n        /* \"#utility.yul\":19102:19118   */\n      swap1\n      pop\n        /* \"#utility.yul\":19137:19140   */\n      dup1\n        /* \"#utility.yul\":19134:19135   */\n      dup3\n        /* \"#utility.yul\":19131:19141   */\n      gt\n        /* \"#utility.yul\":19128:19164   */\n      iszero\n      tag_341\n      jumpi\n        /* \"#utility.yul\":19144:19162   */\n      tag_342\n      tag_132\n      jump\t// in\n    tag_342:\n        /* \"#utility.yul\":19128:19164   */\n    tag_341:\n        /* \"#utility.yul\":18980:19171   */\n      swap3\n      swap2\n      pop\n      pop\n      jump\t// out\n        /* \"#utility.yul\":19177:19587   */\n    tag_71:\n        /* \"#utility.yul\":19217:19224   */\n      0x00\n        /* \"#utility.yul\":19240:19260   */\n      tag_344\n        /* \"#utility.yul\":19258:19259   */\n      dup3\n        /* \"#utility.yul\":19240:19260   */\n      tag_86\n      jump\t// in\n    tag_344:\n        /* \"#utility.yul\":19235:19260   */\n      swap2\n      pop\n        /* \"#utility.yul\":19274:19294   */\n      tag_345\n        /* \"#utility.yul\":19292:19293   */\n      dup4\n        /* \"#utility.yul\":19274:19294   */\n      tag_86\n      jump\t// in\n    tag_345:\n        /* \"#utility.yul\":19269:19294   */\n      swap3\n      pop\n        /* \"#utility.yul\":19329:19330   */\n      dup3\n        /* \"#utility.yul\":19326:19327   */\n      dup3\n        /* \"#utility.yul\":19322:19331   */\n      mul\n        /* \"#utility.yul\":19351:19381   */\n      tag_346\n        /* \"#utility.yul\":19369:19380   */\n      dup2\n        /* \"#utility.yul\":19351:19381   */\n      tag_86\n      jump\t// in\n    tag_346:\n        /* \"#utility.yul\":19340:19381   */\n      swap2\n      pop\n        /* \"#utility.yul\":19530:19531   */\n      dup3\n        /* \"#utility.yul\":19521:19528   */\n      dup3\n        /* \"#utility.yul\":19517:19532   */\n      div\n        /* \"#utility.yul\":19514:19515   */\n      dup5\n        /* \"#utility.yul\":19511:19533   */\n      eq\n        /* \"#utility.yul\":19491:19492   */\n      dup4\n        /* \"#utility.yul\":19484:19493   */\n      iszero\n        /* \"#utility.yul\":19464:19547   */\n      or\n        /* \"#utility.yul\":19441:19580   */\n      tag_347\n      jumpi\n        /* \"#utility.yul\":19560:19578   */\n      tag_348\n      tag_132\n      jump\t// in\n    tag_348:\n        /* \"#utility.yul\":19441:19580   */\n    tag_347:\n        /* \"#utility.yul\":19225:19587   */\n      pop\n        /* \"#utility.yul\":19177:19587   */\n      swap3\n      swap2\n      pop\n      pop\n      jump\t// out\n        /* \"#utility.yul\":19593:19760   */\n    tag_139:\n        /* \"#utility.yul\":19733:19752   */\n      0x4e6f7420656e6f75676820657468657273000000000000000000000000000000\n        /* \"#utility.yul\":19729:19730   */\n      0x00\n        /* \"#utility.yul\":19721:19727   */\n      dup3\n        /* \"#utility.yul\":19717:19731   */\n      add\n        /* \"#utility.yul\":19710:19753   */\n      mstore\n        /* \"#utility.yul\":19593:19760   */\n      pop\n      jump\t// out\n        /* \"#utility.yul\":19766:20132   */\n    tag_140:\n        /* \"#utility.yul\":19908:19911   */\n      0x00\n        /* \"#utility.yul\":19929:19996   */\n      tag_351\n        /* \"#utility.yul\":19993:19995   */\n      0x11\n        /* \"#utility.yul\":19988:19991   */\n      dup4\n        /* \"#utility.yul\":19929:19996   */\n      tag_109\n      jump\t// in\n    tag_351:\n        /* \"#utility.yul\":19922:19996   */\n      swap2\n      pop\n        /* \"#utility.yul\":20005:20098   */\n      tag_352\n        /* \"#utility.yul\":20094:20097   */\n      dup3\n        /* \"#utility.yul\":20005:20098   */\n      tag_139\n      jump\t// in\n    tag_352:\n        /* \"#utility.yul\":20123:20125   */\n      0x20\n        /* \"#utility.yul\":20118:20121   */\n      dup3\n        /* \"#utility.yul\":20114:20126   */\n      add\n        /* \"#utility.yul\":20107:20126   */\n      swap1\n      pop\n        /* \"#utility.yul\":19766:20132   */\n      swap2\n      swap1\n      pop\n      jump\t// out\n        /* \"#utility.yul\":20138:20557   */\n    tag_74:\n        /* \"#utility.yul\":20304:20308   */\n      0x00\n        /* \"#utility.yul\":20342:20344   */\n      0x20\n        /* \"#utility.yul\":20331:20340   */\n      dup3\n        /* \"#utility.yul\":20327:20345   */\n      add\n        /* \"#utility.yul\":20319:20345   */\n      swap1\n      pop\n        /* \"#utility.yul\":20391:20400   */\n      dup2\n        /* \"#utility.yul\":20385:20389   */\n      dup2\n        /* \"#utility.yul\":20381:20401   */\n      sub\n        /* \"#utility.yul\":20377:20378   */\n      0x00\n        /* \"#utility.yul\":20366:20375   */\n      dup4\n        /* \"#utility.yul\":20362:20379   */\n      add\n        /* \"#utility.yul\":20355:20402   */\n      mstore\n        /* \"#utility.yul\":20419:20550   */\n      tag_354\n        /* \"#utility.yul\":20545:20549   */\n      dup2\n        /* \"#utility.yul\":20419:20550   */\n      tag_140\n      jump\t// in\n    tag_354:\n        /* \"#utility.yul\":20411:20550   */\n      swap1\n      pop\n        /* \"#utility.yul\":20138:20557   */\n      swap2\n      swap1\n      pop\n      jump\t// out\n        /* \"#utility.yul\":20563:20739   */\n    tag_141:\n        /* \"#utility.yul\":20703:20731   */\n      0x4e6f7420656e6f75676820736561747320617661696c61626c65000000000000\n        /* \"#utility.yul\":20699:20700   */\n      0x00\n        /* \"#utility.yul\":20691:20697   */\n      dup3\n        /* \"#utility.yul\":20687:20701   */\n      add\n        /* \"#utility.yul\":20680:20732   */\n      mstore\n        /* \"#utility.yul\":20563:20739   */\n      pop\n      jump\t// out\n        /* \"#utility.yul\":20745:21111   */\n    tag_142:\n        /* \"#utility.yul\":20887:20890   */\n      0x00\n        /* \"#utility.yul\":20908:20975   */\n      tag_357\n        /* \"#utility.yul\":20972:20974   */\n      0x1a\n        /* \"#utility.yul\":20967:20970   */\n      dup4\n        /* \"#utility.yul\":20908:20975   */\n      tag_109\n      jump\t// in\n    tag_357:\n        /* \"#utility.yul\":20901:20975   */\n      swap2\n      pop\n        /* \"#utility.yul\":20984:21077   */\n      tag_358\n        /* \"#utility.yul\":21073:21076   */\n      dup3\n        /* \"#utility.yul\":20984:21077   */\n      tag_141\n      jump\t// in\n    tag_358:\n        /* \"#utility.yul\":21102:21104   */\n      0x20\n        /* \"#utility.yul\":21097:21100   */\n      dup3\n        /* \"#utility.yul\":21093:21105   */\n      add\n        /* \"#utility.yul\":21086:21105   */\n      swap1\n      pop\n        /* \"#utility.yul\":20745:21111   */\n      swap2\n      swap1\n      pop\n      jump\t// out\n        /* \"#utility.yul\":21117:21536   */\n    tag_77:\n        /* \"#utility.yul\":21283:21287   */\n      0x00\n        /* \"#utility.yul\":21321:21323   */\n      0x20\n        /* \"#utility.yul\":21310:21319   */\n      dup3\n        /* \"#utility.yul\":21306:21324   */\n      add\n        /* \"#utility.yul\":21298:21324   */\n      swap1\n      pop\n        /* \"#utility.yul\":21370:21379   */\n      dup2\n        /* \"#utility.yul\":21364:21368   */\n      dup2\n        /* \"#utility.yul\":21360:21380   */\n      sub\n        /* \"#utility.yul\":21356:21357   */\n      0x00\n        /* \"#utility.yul\":21345:21354   */\n      dup4\n        /* \"#utility.yul\":21341:21358   */\n      add\n        /* \"#utility.yul\":21334:21381   */\n      mstore\n        /* \"#utility.yul\":21398:21529   */\n      tag_360\n        /* \"#utility.yul\":21524:21528   */\n      dup2\n        /* \"#utility.yul\":21398:21529   */\n      tag_142\n      jump\t// in\n    tag_360:\n        /* \"#utility.yul\":21390:21529   */\n      swap1\n      pop\n        /* \"#utility.yul\":21117:21536   */\n      swap2\n      swap1\n      pop\n      jump\t// out\n\n    auxdata: 0xa26469706673582212202d22c661aad5fba9884840c547ea34d1493cc7b8b72dc3775020d6efecd6370464736f6c63430008160033\n}\n",
				"bytecode": {
					"linkReferences": {},
					"object": "608060405234801561000f575f80fd5b5061133f8061001d5f395ff3fe608060405260043610610054575f3560e01c80631e96917d14610058578063298a9aec14610082578063521210c1146100aa57806361b36897146100d2578063a30dc775146100ee578063d422ea601461012a575b5f80fd5b348015610063575f80fd5b5061006c61016b565b60405161007991906107d7565b60405180910390f35b34801561008d575f80fd5b506100a860048036038101906100a39190610967565b610171565b005b3480156100b5575f80fd5b506100d060048036038101906100cb9190610a41565b6102ec565b005b6100ec60048036038101906100e79190610a91565b6104ed565b005b3480156100f9575f80fd5b50610114600480360381019061010f9190610acf565b6106c3565b60405161012191906107d7565b60405180910390f35b348015610135575f80fd5b50610150600480360381019061014b9190610b0d565b6106e3565b60405161016296959493929190610bc1565b60405180910390f35b60025481565b4283116101b3576040517f08c379a00000000000000000000000000000000000000000000000000000000081526004016101aa90610c97565b60405180910390fd5b5f81116101f5576040517f08c379a00000000000000000000000000000000000000000000000000000000081526004016101ec90610cff565b60405180910390fd5b6040518060c001604052803373ffffffffffffffffffffffffffffffffffffffff168152602001858152602001848152602001838152602001828152602001828152505f8060025481526020019081526020015f205f820151815f015f6101000a81548173ffffffffffffffffffffffffffffffffffffffff021916908373ffffffffffffffffffffffffffffffffffffffff16021790555060208201518160010190816102a39190610f17565b5060408201518160020155606082015181600301556080820151816004015560a0820151816005015590505060025f8154809291906102e190611013565b919050555050505050565b5f805f8581526020019081526020015f206002015403610341576040517f08c379a0000000000000000000000000000000000000000000000000000000008152600401610338906110a4565b60405180910390fd5b425f808581526020019081526020015f206002015411610396576040517f08c379a000000000000000000000000000000000000000000000000000000000815260040161038d9061110c565b60405180910390fd5b8160015f3373ffffffffffffffffffffffffffffffffffffffff1673ffffffffffffffffffffffffffffffffffffffff1681526020019081526020015f205f8581526020019081526020015f205411610424576040517f08c379a000000000000000000000000000000000000000000000000000000000815260040161041b90611174565b60405180910390fd5b8160015f3373ffffffffffffffffffffffffffffffffffffffff1673ffffffffffffffffffffffffffffffffffffffff1681526020019081526020015f205f8581526020019081526020015f205f82825461047f9190611192565b925050819055508160015f8373ffffffffffffffffffffffffffffffffffffffff1673ffffffffffffffffffffffffffffffffffffffff1681526020019081526020015f205f8581526020019081526020015f205f8282546104e191906111c5565b92505081905550505050565b5f805f8481526020019081526020015f206002015403610542576040517f08c379a0000000000000000000000000000000000000000000000000000000008152600401610539906110a4565b60405180910390fd5b425f808481526020019081526020015f206002015411610597576040517f08c379a000000000000000000000000000000000000000000000000000000000815260040161058e9061110c565b60405180910390fd5b5f805f8481526020019081526020015f2090508181600301546105ba91906111f8565b34146105fb576040517f08c379a00000000000000000000000000000000000000000000000000000000081526004016105f290611283565b60405180910390fd5b8181600401541015610642576040517f08c379a0000000000000000000000000000000000000000000000000000000008152600401610639906112eb565b60405180910390fd5b81816005015f8282546106559190611192565b925050819055508160015f3373ffffffffffffffffffffffffffffffffffffffff1673ffffffffffffffffffffffffffffffffffffffff1681526020019081526020015f205f8581526020019081526020015f205f8282546106b791906111c5565b92505081905550505050565b6001602052815f5260405f20602052805f5260405f205f91509150505481565b5f602052805f5260405f205f91509050805f015f9054906101000a900473ffffffffffffffffffffffffffffffffffffffff169080600101805461072690610d4a565b80601f016020809104026020016040519081016040528092919081815260200182805461075290610d4a565b801561079d5780601f106107745761010080835404028352916020019161079d565b820191905f5260205f20905b81548152906001019060200180831161078057829003601f168201915b5050505050908060020154908060030154908060040154908060050154905086565b5f819050919050565b6107d1816107bf565b82525050565b5f6020820190506107ea5f8301846107c8565b92915050565b5f604051905090565b5f80fd5b5f80fd5b5f80fd5b5f80fd5b5f601f19601f8301169050919050565b7f4e487b71000000000000000000000000000000000000000000000000000000005f52604160045260245ffd5b61084f82610809565b810181811067ffffffffffffffff8211171561086e5761086d610819565b5b80604052505050565b5f6108806107f0565b905061088c8282610846565b919050565b5f67ffffffffffffffff8211156108ab576108aa610819565b5b6108b482610809565b9050602081019050919050565b828183375f83830152505050565b5f6108e16108dc84610891565b610877565b9050828152602081018484840111156108fd576108fc610805565b5b6109088482856108c1565b509392505050565b5f82601f83011261092457610923610801565b5b81356109348482602086016108cf565b91505092915050565b610946816107bf565b8114610950575f80fd5b50565b5f813590506109618161093d565b92915050565b5f805f806080858703121561097f5761097e6107f9565b5b5f85013567ffffffffffffffff81111561099c5761099b6107fd565b5b6109a887828801610910565b94505060206109b987828801610953565b93505060406109ca87828801610953565b92505060606109db87828801610953565b91505092959194509250565b5f73ffffffffffffffffffffffffffffffffffffffff82169050919050565b5f610a10826109e7565b9050919050565b610a2081610a06565b8114610a2a575f80fd5b50565b5f81359050610a3b81610a17565b92915050565b5f805f60608486031215610a5857610a576107f9565b5b5f610a6586828701610953565b9350506020610a7686828701610953565b9250506040610a8786828701610a2d565b9150509250925092565b5f8060408385031215610aa757610aa66107f9565b5b5f610ab485828601610953565b9250506020610ac585828601610953565b9150509250929050565b5f8060408385031215610ae557610ae46107f9565b5b5f610af285828601610a2d565b9250506020610b0385828601610953565b9150509250929050565b5f60208284031215610b2257610b216107f9565b5b5f610b2f84828501610953565b91505092915050565b610b4181610a06565b82525050565b5f81519050919050565b5f82825260208201905092915050565b5f5b83811015610b7e578082015181840152602081019050610b63565b5f8484015250505050565b5f610b9382610b47565b610b9d8185610b51565b9350610bad818560208601610b61565b610bb681610809565b840191505092915050565b5f60c082019050610bd45f830189610b38565b8181036020830152610be68188610b89565b9050610bf560408301876107c8565b610c0260608301866107c8565b610c0f60808301856107c8565b610c1c60a08301846107c8565b979650505050505050565b7f506c65617365206f7267616e697a6520776f726b73686f7020666f72206675745f8201527f7572652074696d65736c6f740000000000000000000000000000000000000000602082015250565b5f610c81602c83610b51565b9150610c8c82610c27565b604082019050919050565b5f6020820190508181035f830152610cae81610c75565b9050919050565b7f73656174436f756e74206e6f74207370656369666965640000000000000000005f82015250565b5f610ce9601783610b51565b9150610cf482610cb5565b602082019050919050565b5f6020820190508181035f830152610d1681610cdd565b9050919050565b7f4e487b71000000000000000000000000000000000000000000000000000000005f52602260045260245ffd5b5f6002820490506001821680610d6157607f821691505b602082108103610d7457610d73610d1d565b5b50919050565b5f819050815f5260205f209050919050565b5f6020601f8301049050919050565b5f82821b905092915050565b5f60088302610dd67fffffffffffffffffffffffffffffffffffffffffffffffffffffffffffffffff82610d9b565b610de08683610d9b565b95508019841693508086168417925050509392505050565b5f819050919050565b5f610e1b610e16610e11846107bf565b610df8565b6107bf565b9050919050565b5f819050919050565b610e3483610e01565b610e48610e4082610e22565b848454610da7565b825550505050565b5f90565b610e5c610e50565b610e67818484610e2b565b505050565b5b81811015610e8a57610e7f5f82610e54565b600181019050610e6d565b5050565b601f821115610ecf57610ea081610d7a565b610ea984610d8c565b81016020851015610eb8578190505b610ecc610ec485610d8c565b830182610e6c565b50505b505050565b5f82821c905092915050565b5f610eef5f1984600802610ed4565b1980831691505092915050565b5f610f078383610ee0565b9150826002028217905092915050565b610f2082610b47565b67ffffffffffffffff811115610f3957610f38610819565b5b610f438254610d4a565b610f4e828285610e8e565b5f60209050601f831160018114610f7f575f8415610f6d578287015190505b610f778582610efc565b865550610fde565b601f198416610f8d86610d7a565b5f5b82811015610fb457848901518255600182019150602085019450602081019050610f8f565b86831015610fd15784890151610fcd601f891682610ee0565b8355505b6001600288020188555050505b505050505050565b7f4e487b71000000000000000000000000000000000000000000000000000000005f52601160045260245ffd5b5f61101d826107bf565b91507fffffffffffffffffffffffffffffffffffffffffffffffffffffffffffffffff820361104f5761104e610fe6565b5b600182019050919050565b7f5468697320776f726b73686f7020646f6573206e6f74206578697374000000005f82015250565b5f61108e601c83610b51565b91506110998261105a565b602082019050919050565b5f6020820190508181035f8301526110bb81611082565b9050919050565b7f576f726b73686f7020616c7265616479206163636f6d706c69736865640000005f82015250565b5f6110f6601d83610b51565b9150611101826110c2565b602082019050919050565b5f6020820190508181035f830152611123816110ea565b9050919050565b7f4e6f7420656e6f75676820736561747320746f20726573656c6c0000000000005f82015250565b5f61115e601a83610b51565b91506111698261112a565b602082019050919050565b5f6020820190508181035f83015261118b81611152565b9050919050565b5f61119c826107bf565b91506111a7836107bf565b92508282039050818111156111bf576111be610fe6565b5b92915050565b5f6111cf826107bf565b91506111da836107bf565b92508282019050808211156111f2576111f1610fe6565b5b92915050565b5f611202826107bf565b915061120d836107bf565b925082820261121b816107bf565b9150828204841483151761123257611231610fe6565b5b5092915050565b7f4e6f7420656e6f756768206574686572730000000000000000000000000000005f82015250565b5f61126d601183610b51565b915061127882611239565b602082019050919050565b5f6020820190508181035f83015261129a81611261565b9050919050565b7f4e6f7420656e6f75676820736561747320617661696c61626c650000000000005f82015250565b5f6112d5601a83610b51565b91506112e0826112a1565b602082019050919050565b5f6020820190508181035f830152611302816112c9565b905091905056fea26469706673582212202d22c661aad5fba9884840c547ea34d1493cc7b8b72dc3775020d6efecd6370464736f6c63430008160033",
					"opcodes": "PUSH1 0x80 PUSH1 0x40 MSTORE CALLVALUE DUP1 ISZERO PUSH2 0xF JUMPI PUSH0 DUP1 REVERT JUMPDEST POP PUSH2 0x133F DUP1 PUSH2 0x1D PUSH0 CODECOPY PUSH0 RETURN INVALID PUSH1 0x80 PUSH1 0x40 MSTORE PUSH1 0x4 CALLDATASIZE LT PUSH2 0x54 JUMPI PUSH0 CALLDATALOAD PUSH1 0xE0 SHR DUP1 PUSH4 0x1E96917D EQ PUSH2 0x58 JUMPI DUP1 PUSH4 0x298A9AEC EQ PUSH2 0x82 JUMPI DUP1 PUSH4 0x521210C1 EQ PUSH2 0xAA JUMPI DUP1 PUSH4 0x61B36897 EQ PUSH2 0xD2 JUMPI DUP1 PUSH4 0xA30DC775 EQ PUSH2 0xEE JUMPI DUP1 PUSH4 0xD422EA60 EQ PUSH2 0x12A JUMPI JUMPDEST PUSH0 DUP1 REVERT JUMPDEST CALLVALUE DUP1 ISZERO PUSH2 0x63 JUMPI PUSH0 DUP1 REVERT JUMPDEST POP PUSH2 0x6C PUSH2 0x16B JUMP JUMPDEST PUSH1 0x40 MLOAD PUSH2 0x79 SWAP2 SWAP1 PUSH2 0x7D7 JUMP JUMPDEST PUSH1 0x40 MLOAD DUP1 SWAP2 SUB SWAP1 RETURN JUMPDEST CALLVALUE DUP1 ISZERO PUSH2 0x8D JUMPI PUSH0 DUP1 REVERT JUMPDEST POP PUSH2 0xA8 PUSH1 0x4 DUP1 CALLDATASIZE SUB DUP2 ADD SWAP1 PUSH2 0xA3 SWAP2 SWAP1 PUSH2 0x967 JUMP JUMPDEST PUSH2 0x171 JUMP JUMPDEST STOP JUMPDEST CALLVALUE DUP1 ISZERO PUSH2 0xB5 JUMPI PUSH0 DUP1 REVERT JUMPDEST POP PUSH2 0xD0 PUSH1 0x4 DUP1 CALLDATASIZE SUB DUP2 ADD SWAP1 PUSH2 0xCB SWAP2 SWAP1 PUSH2 0xA41 JUMP JUMPDEST PUSH2 0x2EC JUMP JUMPDEST STOP JUMPDEST PUSH2 0xEC PUSH1 0x4 DUP1 CALLDATASIZE SUB DUP2 ADD SWAP1 PUSH2 0xE7 SWAP2 SWAP1 PUSH2 0xA91 JUMP JUMPDEST PUSH2 0x4ED JUMP JUMPDEST STOP JUMPDEST CALLVALUE DUP1 ISZERO PUSH2 0xF9 JUMPI PUSH0 DUP1 REVERT JUMPDEST POP PUSH2 0x114 PUSH1 0x4 DUP1 CALLDATASIZE SUB DUP2 ADD SWAP1 PUSH2 0x10F SWAP2 SWAP1 PUSH2 0xACF JUMP JUMPDEST PUSH2 0x6C3 JUMP JUMPDEST PUSH1 0x40 MLOAD PUSH2 0x121 SWAP2 SWAP1 PUSH2 0x7D7 JUMP JUMPDEST PUSH1 0x40 MLOAD DUP1 SWAP2 SUB SWAP1 RETURN JUMPDEST CALLVALUE DUP1 ISZERO PUSH2 0x135 JUMPI PUSH0 DUP1 REVERT JUMPDEST POP PUSH2 0x150 PUSH1 0x4 DUP1 CALLDATASIZE SUB DUP2 ADD SWAP1 PUSH2 0x14B SWAP2 SWAP1 PUSH2 0xB0D JUMP JUMPDEST PUSH2 0x6E3 JUMP JUMPDEST PUSH1 0x40 MLOAD PUSH2 0x162 SWAP7 SWAP6 SWAP5 SWAP4 SWAP3 SWAP2 SWAP1 PUSH2 0xBC1 JUMP JUMPDEST PUSH1 0x40 MLOAD DUP1 SWAP2 SUB SWAP1 RETURN JUMPDEST PUSH1 0x2 SLOAD DUP2 JUMP JUMPDEST TIMESTAMP DUP4 GT PUSH2 0x1B3 JUMPI PUSH1 0x40 MLOAD PUSH32 0x8C379A000000000000000000000000000000000000000000000000000000000 DUP2 MSTORE PUSH1 0x4 ADD PUSH2 0x1AA SWAP1 PUSH2 0xC97 JUMP JUMPDEST PUSH1 0x40 MLOAD DUP1 SWAP2 SUB SWAP1 REVERT JUMPDEST PUSH0 DUP2 GT PUSH2 0x1F5 JUMPI PUSH1 0x40 MLOAD PUSH32 0x8C379A000000000000000000000000000000000000000000000000000000000 DUP2 MSTORE PUSH1 0x4 ADD PUSH2 0x1EC SWAP1 PUSH2 0xCFF JUMP JUMPDEST PUSH1 0x40 MLOAD DUP1 SWAP2 SUB SWAP1 REVERT JUMPDEST PUSH1 0x40 MLOAD DUP1 PUSH1 0xC0 ADD PUSH1 0x40 MSTORE DUP1 CALLER PUSH20 0xFFFFFFFFFFFFFFFFFFFFFFFFFFFFFFFFFFFFFFFF AND DUP2 MSTORE PUSH1 0x20 ADD DUP6 DUP2 MSTORE PUSH1 0x20 ADD DUP5 DUP2 MSTORE PUSH1 0x20 ADD DUP4 DUP2 MSTORE PUSH1 0x20 ADD DUP3 DUP2 MSTORE PUSH1 0x20 ADD DUP3 DUP2 MSTORE POP PUSH0 DUP1 PUSH1 0x2 SLOAD DUP2 MSTORE PUSH1 0x20 ADD SWAP1 DUP2 MSTORE PUSH1 0x20 ADD PUSH0 KECCAK256 PUSH0 DUP3 ADD MLOAD DUP2 PUSH0 ADD PUSH0 PUSH2 0x100 EXP DUP2 SLOAD DUP2 PUSH20 0xFFFFFFFFFFFFFFFFFFFFFFFFFFFFFFFFFFFFFFFF MUL NOT AND SWAP1 DUP4 PUSH20 0xFFFFFFFFFFFFFFFFFFFFFFFFFFFFFFFFFFFFFFFF AND MUL OR SWAP1 SSTORE POP PUSH1 0x20 DUP3 ADD MLOAD DUP2 PUSH1 0x1 ADD SWAP1 DUP2 PUSH2 0x2A3 SWAP2 SWAP1 PUSH2 0xF17 JUMP JUMPDEST POP PUSH1 0x40 DUP3 ADD MLOAD DUP2 PUSH1 0x2 ADD SSTORE PUSH1 0x60 DUP3 ADD MLOAD DUP2 PUSH1 0x3 ADD SSTORE PUSH1 0x80 DUP3 ADD MLOAD DUP2 PUSH1 0x4 ADD SSTORE PUSH1 0xA0 DUP3 ADD MLOAD DUP2 PUSH1 0x5 ADD SSTORE SWAP1 POP POP PUSH1 0x2 PUSH0 DUP2 SLOAD DUP1 SWAP3 SWAP2 SWAP1 PUSH2 0x2E1 SWAP1 PUSH2 0x1013 JUMP JUMPDEST SWAP2 SWAP1 POP SSTORE POP POP POP POP POP JUMP JUMPDEST PUSH0 DUP1 PUSH0 DUP6 DUP2 MSTORE PUSH1 0x20 ADD SWAP1 DUP2 MSTORE PUSH1 0x20 ADD PUSH0 KECCAK256 PUSH1 0x2 ADD SLOAD SUB PUSH2 0x341 JUMPI PUSH1 0x40 MLOAD PUSH32 0x8C379A000000000000000000000000000000000000000000000000000000000 DUP2 MSTORE PUSH1 0x4 ADD PUSH2 0x338 SWAP1 PUSH2 0x10A4 JUMP JUMPDEST PUSH1 0x40 MLOAD DUP1 SWAP2 SUB SWAP1 REVERT JUMPDEST TIMESTAMP PUSH0 DUP1 DUP6 DUP2 MSTORE PUSH1 0x20 ADD SWAP1 DUP2 MSTORE PUSH1 0x20 ADD PUSH0 KECCAK256 PUSH1 0x2 ADD SLOAD GT PUSH2 0x396 JUMPI PUSH1 0x40 MLOAD PUSH32 0x8C379A000000000000000000000000000000000000000000000000000000000 DUP2 MSTORE PUSH1 0x4 ADD PUSH2 0x38D SWAP1 PUSH2 0x110C JUMP JUMPDEST PUSH1 0x40 MLOAD DUP1 SWAP2 SUB SWAP1 REVERT JUMPDEST DUP2 PUSH1 0x1 PUSH0 CALLER PUSH20 0xFFFFFFFFFFFFFFFFFFFFFFFFFFFFFFFFFFFFFFFF AND PUSH20 0xFFFFFFFFFFFFFFFFFFFFFFFFFFFFFFFFFFFFFFFF AND DUP2 MSTORE PUSH1 0x20 ADD SWAP1 DUP2 MSTORE PUSH1 0x20 ADD PUSH0 KECCAK256 PUSH0 DUP6 DUP2 MSTORE PUSH1 0x20 ADD SWAP1 DUP2 MSTORE PUSH1 0x20 ADD PUSH0 KECCAK256 SLOAD GT PUSH2 0x424 JUMPI PUSH1 0x40 MLOAD PUSH32 0x8C379A000000000000000000000000000000000000000000000000000000000 DUP2 MSTORE PUSH1 0x4 ADD PUSH2 0x41B SWAP1 PUSH2 0x1174 JUMP JUMPDEST PUSH1 0x40 MLOAD DUP1 SWAP2 SUB SWAP1 REVERT JUMPDEST DUP2 PUSH1 0x1 PUSH0 CALLER PUSH20 0xFFFFFFFFFFFFFFFFFFFFFFFFFFFFFFFFFFFFFFFF AND PUSH20 0xFFFFFFFFFFFFFFFFFFFFFFFFFFFFFFFFFFFFFFFF AND DUP2 MSTORE PUSH1 0x20 ADD SWAP1 DUP2 MSTORE PUSH1 0x20 ADD PUSH0 KECCAK256 PUSH0 DUP6 DUP2 MSTORE PUSH1 0x20 ADD SWAP1 DUP2 MSTORE PUSH1 0x20 ADD PUSH0 KECCAK256 PUSH0 DUP3 DUP3 SLOAD PUSH2 0x47F SWAP2 SWAP1 PUSH2 0x1192 JUMP JUMPDEST SWAP3 POP POP DUP2 SWAP1 SSTORE POP DUP2 PUSH1 0x1 PUSH0 DUP4 PUSH20 0xFFFFFFFFFFFFFFFFFFFFFFFFFFFFFFFFFFFFFFFF AND PUSH20 0xFFFFFFFFFFFFFFFFFFFFFFFFFFFFFFFFFFFFFFFF AND DUP2 MSTORE PUSH1 0x20 ADD SWAP1 DUP2 MSTORE PUSH1 0x20 ADD PUSH0 KECCAK256 PUSH0 DUP6 DUP2 MSTORE PUSH1 0x20 ADD SWAP1 DUP2 MSTORE PUSH1 0x20 ADD PUSH0 KECCAK256 PUSH0 DUP3 DUP3 SLOAD PUSH2 0x4E1 SWAP2 SWAP1 PUSH2 0x11C5 JUMP JUMPDEST SWAP3 POP POP DUP2 SWAP1 SSTORE POP POP POP POP JUMP JUMPDEST PUSH0 DUP1 PUSH0 DUP5 DUP2 MSTORE PUSH1 0x20 ADD SWAP1 DUP2 MSTORE PUSH1 0x20 ADD PUSH0 KECCAK256 PUSH1 0x2 ADD SLOAD SUB PUSH2 0x542 JUMPI PUSH1 0x40 MLOAD PUSH32 0x8C379A000000000000000000000000000000000000000000000000000000000 DUP2 MSTORE PUSH1 0x4 ADD PUSH2 0x539 SWAP1 PUSH2 0x10A4 JUMP JUMPDEST PUSH1 0x40 MLOAD DUP1 SWAP2 SUB SWAP1 REVERT JUMPDEST TIMESTAMP PUSH0 DUP1 DUP5 DUP2 MSTORE PUSH1 0x20 ADD SWAP1 DUP2 MSTORE PUSH1 0x20 ADD PUSH0 KECCAK256 PUSH1 0x2 ADD SLOAD GT PUSH2 0x597 JUMPI PUSH1 0x40 MLOAD PUSH32 0x8C379A000000000000000000000000000000000000000000000000000000000 DUP2 MSTORE PUSH1 0x4 ADD PUSH2 0x58E SWAP1 PUSH2 0x110C JUMP JUMPDEST PUSH1 0x40 MLOAD DUP1 SWAP2 SUB SWAP1 REVERT JUMPDEST PUSH0 DUP1 PUSH0 DUP5 DUP2 MSTORE PUSH1 0x20 ADD SWAP1 DUP2 MSTORE PUSH1 0x20 ADD PUSH0 KECCAK256 SWAP1 POP DUP2 DUP2 PUSH1 0x3 ADD SLOAD PUSH2 0x5BA SWAP2 SWAP1 PUSH2 0x11F8 JUMP JUMPDEST CALLVALUE EQ PUSH2 0x5FB JUMPI PUSH1 0x40 MLOAD PUSH32 0x8C379A000000000000000000000000000000000000000000000000000000000 DUP2 MSTORE PUSH1 0x4 ADD PUSH2 0x5F2 SWAP1 PUSH2 0x1283 JUMP JUMPDEST PUSH1 0x40 MLOAD DUP1 SWAP2 SUB SWAP1 REVERT JUMPDEST DUP2 DUP2 PUSH1 0x4 ADD SLOAD LT ISZERO PUSH2 0x642 JUMPI PUSH1 0x40 MLOAD PUSH32 0x8C379A000000000000000000000000000000000000000000000000000000000 DUP2 MSTORE PUSH1 0x4 ADD PUSH2 0x639 SWAP1 PUSH2 0x12EB JUMP JUMPDEST PUSH1 0x40 MLOAD DUP1 SWAP2 SUB SWAP1 REVERT JUMPDEST DUP2 DUP2 PUSH1 0x5 ADD PUSH0 DUP3 DUP3 SLOAD PUSH2 0x655 SWAP2 SWAP1 PUSH2 0x1192 JUMP JUMPDEST SWAP3 POP POP DUP2 SWAP1 SSTORE POP DUP2 PUSH1 0x1 PUSH0 CALLER PUSH20 0xFFFFFFFFFFFFFFFFFFFFFFFFFFFFFFFFFFFFFFFF AND PUSH20 0xFFFFFFFFFFFFFFFFFFFFFFFFFFFFFFFFFFFFFFFF AND DUP2 MSTORE PUSH1 0x20 ADD SWAP1 DUP2 MSTORE PUSH1 0x20 ADD PUSH0 KECCAK256 PUSH0 DUP6 DUP2 MSTORE PUSH1 0x20 ADD SWAP1 DUP2 MSTORE PUSH1 0x20 ADD PUSH0 KECCAK256 PUSH0 DUP3 DUP3 SLOAD PUSH2 0x6B7 SWAP2 SWAP1 PUSH2 0x11C5 JUMP JUMPDEST SWAP3 POP POP DUP2 SWAP1 SSTORE POP POP POP POP JUMP JUMPDEST PUSH1 0x1 PUSH1 0x20 MSTORE DUP2 PUSH0 MSTORE PUSH1 0x40 PUSH0 KECCAK256 PUSH1 0x20 MSTORE DUP1 PUSH0 MSTORE PUSH1 0x40 PUSH0 KECCAK256 PUSH0 SWAP2 POP SWAP2 POP POP SLOAD DUP2 JUMP JUMPDEST PUSH0 PUSH1 0x20 MSTORE DUP1 PUSH0 MSTORE PUSH1 0x40 PUSH0 KECCAK256 PUSH0 SWAP2 POP SWAP1 POP DUP1 PUSH0 ADD PUSH0 SWAP1 SLOAD SWAP1 PUSH2 0x100 EXP SWAP1 DIV PUSH20 0xFFFFFFFFFFFFFFFFFFFFFFFFFFFFFFFFFFFFFFFF AND SWAP1 DUP1 PUSH1 0x1 ADD DUP1 SLOAD PUSH2 0x726 SWAP1 PUSH2 0xD4A JUMP JUMPDEST DUP1 PUSH1 0x1F ADD PUSH1 0x20 DUP1 SWAP2 DIV MUL PUSH1 0x20 ADD PUSH1 0x40 MLOAD SWAP1 DUP2 ADD PUSH1 0x40 MSTORE DUP1 SWAP3 SWAP2 SWAP1 DUP2 DUP2 MSTORE PUSH1 0x20 ADD DUP3 DUP1 SLOAD PUSH2 0x752 SWAP1 PUSH2 0xD4A JUMP JUMPDEST DUP1 ISZERO PUSH2 0x79D JUMPI DUP1 PUSH1 0x1F LT PUSH2 0x774 JUMPI PUSH2 0x100 DUP1 DUP4 SLOAD DIV MUL DUP4 MSTORE SWAP2 PUSH1 0x20 ADD SWAP2 PUSH2 0x79D JUMP JUMPDEST DUP3 ADD SWAP2 SWAP1 PUSH0 MSTORE PUSH1 0x20 PUSH0 KECCAK256 SWAP1 JUMPDEST DUP2 SLOAD DUP2 MSTORE SWAP1 PUSH1 0x1 ADD SWAP1 PUSH1 0x20 ADD DUP1 DUP4 GT PUSH2 0x780 JUMPI DUP3 SWAP1 SUB PUSH1 0x1F AND DUP3 ADD SWAP2 JUMPDEST POP POP POP POP POP SWAP1 DUP1 PUSH1 0x2 ADD SLOAD SWAP1 DUP1 PUSH1 0x3 ADD SLOAD SWAP1 DUP1 PUSH1 0x4 ADD SLOAD SWAP1 DUP1 PUSH1 0x5 ADD SLOAD SWAP1 POP DUP7 JUMP JUMPDEST PUSH0 DUP2 SWAP1 POP SWAP2 SWAP1 POP JUMP JUMPDEST PUSH2 0x7D1 DUP2 PUSH2 0x7BF JUMP JUMPDEST DUP3 MSTORE POP POP JUMP JUMPDEST PUSH0 PUSH1 0x20 DUP3 ADD SWAP1 POP PUSH2 0x7EA PUSH0 DUP4 ADD DUP5 PUSH2 0x7C8 JUMP JUMPDEST SWAP3 SWAP2 POP POP JUMP JUMPDEST PUSH0 PUSH1 0x40 MLOAD SWAP1 POP SWAP1 JUMP JUMPDEST PUSH0 DUP1 REVERT JUMPDEST PUSH0 DUP1 REVERT JUMPDEST PUSH0 DUP1 REVERT JUMPDEST PUSH0 DUP1 REVERT JUMPDEST PUSH0 PUSH1 0x1F NOT PUSH1 0x1F DUP4 ADD AND SWAP1 POP SWAP2 SWAP1 POP JUMP JUMPDEST PUSH32 0x4E487B7100000000000000000000000000000000000000000000000000000000 PUSH0 MSTORE PUSH1 0x41 PUSH1 0x4 MSTORE PUSH1 0x24 PUSH0 REVERT JUMPDEST PUSH2 0x84F DUP3 PUSH2 0x809 JUMP JUMPDEST DUP2 ADD DUP2 DUP2 LT PUSH8 0xFFFFFFFFFFFFFFFF DUP3 GT OR ISZERO PUSH2 0x86E JUMPI PUSH2 0x86D PUSH2 0x819 JUMP JUMPDEST JUMPDEST DUP1 PUSH1 0x40 MSTORE POP POP POP JUMP JUMPDEST PUSH0 PUSH2 0x880 PUSH2 0x7F0 JUMP JUMPDEST SWAP1 POP PUSH2 0x88C DUP3 DUP3 PUSH2 0x846 JUMP JUMPDEST SWAP2 SWAP1 POP JUMP JUMPDEST PUSH0 PUSH8 0xFFFFFFFFFFFFFFFF DUP3 GT ISZERO PUSH2 0x8AB JUMPI PUSH2 0x8AA PUSH2 0x819 JUMP JUMPDEST JUMPDEST PUSH2 0x8B4 DUP3 PUSH2 0x809 JUMP JUMPDEST SWAP1 POP PUSH1 0x20 DUP2 ADD SWAP1 POP SWAP2 SWAP1 POP JUMP JUMPDEST DUP3 DUP2 DUP4 CALLDATACOPY PUSH0 DUP4 DUP4 ADD MSTORE POP POP POP JUMP JUMPDEST PUSH0 PUSH2 0x8E1 PUSH2 0x8DC DUP5 PUSH2 0x891 JUMP JUMPDEST PUSH2 0x877 JUMP JUMPDEST SWAP1 POP DUP3 DUP2 MSTORE PUSH1 0x20 DUP2 ADD DUP5 DUP5 DUP5 ADD GT ISZERO PUSH2 0x8FD JUMPI PUSH2 0x8FC PUSH2 0x805 JUMP JUMPDEST JUMPDEST PUSH2 0x908 DUP5 DUP3 DUP6 PUSH2 0x8C1 JUMP JUMPDEST POP SWAP4 SWAP3 POP POP POP JUMP JUMPDEST PUSH0 DUP3 PUSH1 0x1F DUP4 ADD SLT PUSH2 0x924 JUMPI PUSH2 0x923 PUSH2 0x801 JUMP JUMPDEST JUMPDEST DUP2 CALLDATALOAD PUSH2 0x934 DUP5 DUP3 PUSH1 0x20 DUP7 ADD PUSH2 0x8CF JUMP JUMPDEST SWAP2 POP POP SWAP3 SWAP2 POP POP JUMP JUMPDEST PUSH2 0x946 DUP2 PUSH2 0x7BF JUMP JUMPDEST DUP2 EQ PUSH2 0x950 JUMPI PUSH0 DUP1 REVERT JUMPDEST POP JUMP JUMPDEST PUSH0 DUP2 CALLDATALOAD SWAP1 POP PUSH2 0x961 DUP2 PUSH2 0x93D JUMP JUMPDEST SWAP3 SWAP2 POP POP JUMP JUMPDEST PUSH0 DUP1 PUSH0 DUP1 PUSH1 0x80 DUP6 DUP8 SUB SLT ISZERO PUSH2 0x97F JUMPI PUSH2 0x97E PUSH2 0x7F9 JUMP JUMPDEST JUMPDEST PUSH0 DUP6 ADD CALLDATALOAD PUSH8 0xFFFFFFFFFFFFFFFF DUP2 GT ISZERO PUSH2 0x99C JUMPI PUSH2 0x99B PUSH2 0x7FD JUMP JUMPDEST JUMPDEST PUSH2 0x9A8 DUP8 DUP3 DUP9 ADD PUSH2 0x910 JUMP JUMPDEST SWAP5 POP POP PUSH1 0x20 PUSH2 0x9B9 DUP8 DUP3 DUP9 ADD PUSH2 0x953 JUMP JUMPDEST SWAP4 POP POP PUSH1 0x40 PUSH2 0x9CA DUP8 DUP3 DUP9 ADD PUSH2 0x953 JUMP JUMPDEST SWAP3 POP POP PUSH1 0x60 PUSH2 0x9DB DUP8 DUP3 DUP9 ADD PUSH2 0x953 JUMP JUMPDEST SWAP2 POP POP SWAP3 SWAP6 SWAP2 SWAP5 POP SWAP3 POP JUMP JUMPDEST PUSH0 PUSH20 0xFFFFFFFFFFFFFFFFFFFFFFFFFFFFFFFFFFFFFFFF DUP3 AND SWAP1 POP SWAP2 SWAP1 POP JUMP JUMPDEST PUSH0 PUSH2 0xA10 DUP3 PUSH2 0x9E7 JUMP JUMPDEST SWAP1 POP SWAP2 SWAP1 POP JUMP JUMPDEST PUSH2 0xA20 DUP2 PUSH2 0xA06 JUMP JUMPDEST DUP2 EQ PUSH2 0xA2A JUMPI PUSH0 DUP1 REVERT JUMPDEST POP JUMP JUMPDEST PUSH0 DUP2 CALLDATALOAD SWAP1 POP PUSH2 0xA3B DUP2 PUSH2 0xA17 JUMP JUMPDEST SWAP3 SWAP2 POP POP JUMP JUMPDEST PUSH0 DUP1 PUSH0 PUSH1 0x60 DUP5 DUP7 SUB SLT ISZERO PUSH2 0xA58 JUMPI PUSH2 0xA57 PUSH2 0x7F9 JUMP JUMPDEST JUMPDEST PUSH0 PUSH2 0xA65 DUP7 DUP3 DUP8 ADD PUSH2 0x953 JUMP JUMPDEST SWAP4 POP POP PUSH1 0x20 PUSH2 0xA76 DUP7 DUP3 DUP8 ADD PUSH2 0x953 JUMP JUMPDEST SWAP3 POP POP PUSH1 0x40 PUSH2 0xA87 DUP7 DUP3 DUP8 ADD PUSH2 0xA2D JUMP JUMPDEST SWAP2 POP POP SWAP3 POP SWAP3 POP SWAP3 JUMP JUMPDEST PUSH0 DUP1 PUSH1 0x40 DUP4 DUP6 SUB SLT ISZERO PUSH2 0xAA7 JUMPI PUSH2 0xAA6 PUSH2 0x7F9 JUMP JUMPDEST JUMPDEST PUSH0 PUSH2 0xAB4 DUP6 DUP3 DUP7 ADD PUSH2 0x953 JUMP JUMPDEST SWAP3 POP POP PUSH1 0x20 PUSH2 0xAC5 DUP6 DUP3 DUP7 ADD PUSH2 0x953 JUMP JUMPDEST SWAP2 POP POP SWAP3 POP SWAP3 SWAP1 POP JUMP JUMPDEST PUSH0 DUP1 PUSH1 0x40 DUP4 DUP6 SUB SLT ISZERO PUSH2 0xAE5 JUMPI PUSH2 0xAE4 PUSH2 0x7F9 JUMP JUMPDEST JUMPDEST PUSH0 PUSH2 0xAF2 DUP6 DUP3 DUP7 ADD PUSH2 0xA2D JUMP JUMPDEST SWAP3 POP POP PUSH1 0x20 PUSH2 0xB03 DUP6 DUP3 DUP7 ADD PUSH2 0x953 JUMP JUMPDEST SWAP2 POP POP SWAP3 POP SWAP3 SWAP1 POP JUMP JUMPDEST PUSH0 PUSH1 0x20 DUP3 DUP5 SUB SLT ISZERO PUSH2 0xB22 JUMPI PUSH2 0xB21 PUSH2 0x7F9 JUMP JUMPDEST JUMPDEST PUSH0 PUSH2 0xB2F DUP5 DUP3 DUP6 ADD PUSH2 0x953 JUMP JUMPDEST SWAP2 POP POP SWAP3 SWAP2 POP POP JUMP JUMPDEST PUSH2 0xB41 DUP2 PUSH2 0xA06 JUMP JUMPDEST DUP3 MSTORE POP POP JUMP JUMPDEST PUSH0 DUP2 MLOAD SWAP1 POP SWAP2 SWAP1 POP JUMP JUMPDEST PUSH0 DUP3 DUP3 MSTORE PUSH1 0x20 DUP3 ADD SWAP1 POP SWAP3 SWAP2 POP POP JUMP JUMPDEST PUSH0 JUMPDEST DUP4 DUP2 LT ISZERO PUSH2 0xB7E JUMPI DUP1 DUP3 ADD MLOAD DUP2 DUP5 ADD MSTORE PUSH1 0x20 DUP2 ADD SWAP1 POP PUSH2 0xB63 JUMP JUMPDEST PUSH0 DUP5 DUP5 ADD MSTORE POP POP POP POP JUMP JUMPDEST PUSH0 PUSH2 0xB93 DUP3 PUSH2 0xB47 JUMP JUMPDEST PUSH2 0xB9D DUP2 DUP6 PUSH2 0xB51 JUMP JUMPDEST SWAP4 POP PUSH2 0xBAD DUP2 DUP6 PUSH1 0x20 DUP7 ADD PUSH2 0xB61 JUMP JUMPDEST PUSH2 0xBB6 DUP2 PUSH2 0x809 JUMP JUMPDEST DUP5 ADD SWAP2 POP POP SWAP3 SWAP2 POP POP JUMP JUMPDEST PUSH0 PUSH1 0xC0 DUP3 ADD SWAP1 POP PUSH2 0xBD4 PUSH0 DUP4 ADD DUP10 PUSH2 0xB38 JUMP JUMPDEST DUP2 DUP2 SUB PUSH1 0x20 DUP4 ADD MSTORE PUSH2 0xBE6 DUP2 DUP9 PUSH2 0xB89 JUMP JUMPDEST SWAP1 POP PUSH2 0xBF5 PUSH1 0x40 DUP4 ADD DUP8 PUSH2 0x7C8 JUMP JUMPDEST PUSH2 0xC02 PUSH1 0x60 DUP4 ADD DUP7 PUSH2 0x7C8 JUMP JUMPDEST PUSH2 0xC0F PUSH1 0x80 DUP4 ADD DUP6 PUSH2 0x7C8 JUMP JUMPDEST PUSH2 0xC1C PUSH1 0xA0 DUP4 ADD DUP5 PUSH2 0x7C8 JUMP JUMPDEST SWAP8 SWAP7 POP POP POP POP POP POP POP JUMP JUMPDEST PUSH32 0x506C65617365206F7267616E697A6520776F726B73686F7020666F7220667574 PUSH0 DUP3 ADD MSTORE PUSH32 0x7572652074696D65736C6F740000000000000000000000000000000000000000 PUSH1 0x20 DUP3 ADD MSTORE POP JUMP JUMPDEST PUSH0 PUSH2 0xC81 PUSH1 0x2C DUP4 PUSH2 0xB51 JUMP JUMPDEST SWAP2 POP PUSH2 0xC8C DUP3 PUSH2 0xC27 JUMP JUMPDEST PUSH1 0x40 DUP3 ADD SWAP1 POP SWAP2 SWAP1 POP JUMP JUMPDEST PUSH0 PUSH1 0x20 DUP3 ADD SWAP1 POP DUP2 DUP2 SUB PUSH0 DUP4 ADD MSTORE PUSH2 0xCAE DUP2 PUSH2 0xC75 JUMP JUMPDEST SWAP1 POP SWAP2 SWAP1 POP JUMP JUMPDEST PUSH32 0x73656174436F756E74206E6F7420737065636966696564000000000000000000 PUSH0 DUP3 ADD MSTORE POP JUMP JUMPDEST PUSH0 PUSH2 0xCE9 PUSH1 0x17 DUP4 PUSH2 0xB51 JUMP JUMPDEST SWAP2 POP PUSH2 0xCF4 DUP3 PUSH2 0xCB5 JUMP JUMPDEST PUSH1 0x20 DUP3 ADD SWAP1 POP SWAP2 SWAP1 POP JUMP JUMPDEST PUSH0 PUSH1 0x20 DUP3 ADD SWAP1 POP DUP2 DUP2 SUB PUSH0 DUP4 ADD MSTORE PUSH2 0xD16 DUP2 PUSH2 0xCDD JUMP JUMPDEST SWAP1 POP SWAP2 SWAP1 POP JUMP JUMPDEST PUSH32 0x4E487B7100000000000000000000000000000000000000000000000000000000 PUSH0 MSTORE PUSH1 0x22 PUSH1 0x4 MSTORE PUSH1 0x24 PUSH0 REVERT JUMPDEST PUSH0 PUSH1 0x2 DUP3 DIV SWAP1 POP PUSH1 0x1 DUP3 AND DUP1 PUSH2 0xD61 JUMPI PUSH1 0x7F DUP3 AND SWAP2 POP JUMPDEST PUSH1 0x20 DUP3 LT DUP2 SUB PUSH2 0xD74 JUMPI PUSH2 0xD73 PUSH2 0xD1D JUMP JUMPDEST JUMPDEST POP SWAP2 SWAP1 POP JUMP JUMPDEST PUSH0 DUP2 SWAP1 POP DUP2 PUSH0 MSTORE PUSH1 0x20 PUSH0 KECCAK256 SWAP1 POP SWAP2 SWAP1 POP JUMP JUMPDEST PUSH0 PUSH1 0x20 PUSH1 0x1F DUP4 ADD DIV SWAP1 POP SWAP2 SWAP1 POP JUMP JUMPDEST PUSH0 DUP3 DUP3 SHL SWAP1 POP SWAP3 SWAP2 POP POP JUMP JUMPDEST PUSH0 PUSH1 0x8 DUP4 MUL PUSH2 0xDD6 PUSH32 0xFFFFFFFFFFFFFFFFFFFFFFFFFFFFFFFFFFFFFFFFFFFFFFFFFFFFFFFFFFFFFFFF DUP3 PUSH2 0xD9B JUMP JUMPDEST PUSH2 0xDE0 DUP7 DUP4 PUSH2 0xD9B JUMP JUMPDEST SWAP6 POP DUP1 NOT DUP5 AND SWAP4 POP DUP1 DUP7 AND DUP5 OR SWAP3 POP POP POP SWAP4 SWAP3 POP POP POP JUMP JUMPDEST PUSH0 DUP2 SWAP1 POP SWAP2 SWAP1 POP JUMP JUMPDEST PUSH0 PUSH2 0xE1B PUSH2 0xE16 PUSH2 0xE11 DUP5 PUSH2 0x7BF JUMP JUMPDEST PUSH2 0xDF8 JUMP JUMPDEST PUSH2 0x7BF JUMP JUMPDEST SWAP1 POP SWAP2 SWAP1 POP JUMP JUMPDEST PUSH0 DUP2 SWAP1 POP SWAP2 SWAP1 POP JUMP JUMPDEST PUSH2 0xE34 DUP4 PUSH2 0xE01 JUMP JUMPDEST PUSH2 0xE48 PUSH2 0xE40 DUP3 PUSH2 0xE22 JUMP JUMPDEST DUP5 DUP5 SLOAD PUSH2 0xDA7 JUMP JUMPDEST DUP3 SSTORE POP POP POP POP JUMP JUMPDEST PUSH0 SWAP1 JUMP JUMPDEST PUSH2 0xE5C PUSH2 0xE50 JUMP JUMPDEST PUSH2 0xE67 DUP2 DUP5 DUP5 PUSH2 0xE2B JUMP JUMPDEST POP POP POP JUMP JUMPDEST JUMPDEST DUP2 DUP2 LT ISZERO PUSH2 0xE8A JUMPI PUSH2 0xE7F PUSH0 DUP3 PUSH2 0xE54 JUMP JUMPDEST PUSH1 0x1 DUP2 ADD SWAP1 POP PUSH2 0xE6D JUMP JUMPDEST POP POP JUMP JUMPDEST PUSH1 0x1F DUP3 GT ISZERO PUSH2 0xECF JUMPI PUSH2 0xEA0 DUP2 PUSH2 0xD7A JUMP JUMPDEST PUSH2 0xEA9 DUP5 PUSH2 0xD8C JUMP JUMPDEST DUP2 ADD PUSH1 0x20 DUP6 LT ISZERO PUSH2 0xEB8 JUMPI DUP2 SWAP1 POP JUMPDEST PUSH2 0xECC PUSH2 0xEC4 DUP6 PUSH2 0xD8C JUMP JUMPDEST DUP4 ADD DUP3 PUSH2 0xE6C JUMP JUMPDEST POP POP JUMPDEST POP POP POP JUMP JUMPDEST PUSH0 DUP3 DUP3 SHR SWAP1 POP SWAP3 SWAP2 POP POP JUMP JUMPDEST PUSH0 PUSH2 0xEEF PUSH0 NOT DUP5 PUSH1 0x8 MUL PUSH2 0xED4 JUMP JUMPDEST NOT DUP1 DUP4 AND SWAP2 POP POP SWAP3 SWAP2 POP POP JUMP JUMPDEST PUSH0 PUSH2 0xF07 DUP4 DUP4 PUSH2 0xEE0 JUMP JUMPDEST SWAP2 POP DUP3 PUSH1 0x2 MUL DUP3 OR SWAP1 POP SWAP3 SWAP2 POP POP JUMP JUMPDEST PUSH2 0xF20 DUP3 PUSH2 0xB47 JUMP JUMPDEST PUSH8 0xFFFFFFFFFFFFFFFF DUP2 GT ISZERO PUSH2 0xF39 JUMPI PUSH2 0xF38 PUSH2 0x819 JUMP JUMPDEST JUMPDEST PUSH2 0xF43 DUP3 SLOAD PUSH2 0xD4A JUMP JUMPDEST PUSH2 0xF4E DUP3 DUP3 DUP6 PUSH2 0xE8E JUMP JUMPDEST PUSH0 PUSH1 0x20 SWAP1 POP PUSH1 0x1F DUP4 GT PUSH1 0x1 DUP2 EQ PUSH2 0xF7F JUMPI PUSH0 DUP5 ISZERO PUSH2 0xF6D JUMPI DUP3 DUP8 ADD MLOAD SWAP1 POP JUMPDEST PUSH2 0xF77 DUP6 DUP3 PUSH2 0xEFC JUMP JUMPDEST DUP7 SSTORE POP PUSH2 0xFDE JUMP JUMPDEST PUSH1 0x1F NOT DUP5 AND PUSH2 0xF8D DUP7 PUSH2 0xD7A JUMP JUMPDEST PUSH0 JUMPDEST DUP3 DUP2 LT ISZERO PUSH2 0xFB4 JUMPI DUP5 DUP10 ADD MLOAD DUP3 SSTORE PUSH1 0x1 DUP3 ADD SWAP2 POP PUSH1 0x20 DUP6 ADD SWAP5 POP PUSH1 0x20 DUP2 ADD SWAP1 POP PUSH2 0xF8F JUMP JUMPDEST DUP7 DUP4 LT ISZERO PUSH2 0xFD1 JUMPI DUP5 DUP10 ADD MLOAD PUSH2 0xFCD PUSH1 0x1F DUP10 AND DUP3 PUSH2 0xEE0 JUMP JUMPDEST DUP4 SSTORE POP JUMPDEST PUSH1 0x1 PUSH1 0x2 DUP9 MUL ADD DUP9 SSTORE POP POP POP JUMPDEST POP POP POP POP POP POP JUMP JUMPDEST PUSH32 0x4E487B7100000000000000000000000000000000000000000000000000000000 PUSH0 MSTORE PUSH1 0x11 PUSH1 0x4 MSTORE PUSH1 0x24 PUSH0 REVERT JUMPDEST PUSH0 PUSH2 0x101D DUP3 PUSH2 0x7BF JUMP JUMPDEST SWAP2 POP PUSH32 0xFFFFFFFFFFFFFFFFFFFFFFFFFFFFFFFFFFFFFFFFFFFFFFFFFFFFFFFFFFFFFFFF DUP3 SUB PUSH2 0x104F JUMPI PUSH2 0x104E PUSH2 0xFE6 JUMP JUMPDEST JUMPDEST PUSH1 0x1 DUP3 ADD SWAP1 POP SWAP2 SWAP1 POP JUMP JUMPDEST PUSH32 0x5468697320776F726B73686F7020646F6573206E6F7420657869737400000000 PUSH0 DUP3 ADD MSTORE POP JUMP JUMPDEST PUSH0 PUSH2 0x108E PUSH1 0x1C DUP4 PUSH2 0xB51 JUMP JUMPDEST SWAP2 POP PUSH2 0x1099 DUP3 PUSH2 0x105A JUMP JUMPDEST PUSH1 0x20 DUP3 ADD SWAP1 POP SWAP2 SWAP1 POP JUMP JUMPDEST PUSH0 PUSH1 0x20 DUP3 ADD SWAP1 POP DUP2 DUP2 SUB PUSH0 DUP4 ADD MSTORE PUSH2 0x10BB DUP2 PUSH2 0x1082 JUMP JUMPDEST SWAP1 POP SWAP2 SWAP1 POP JUMP JUMPDEST PUSH32 0x576F726B73686F7020616C7265616479206163636F6D706C6973686564000000 PUSH0 DUP3 ADD MSTORE POP JUMP JUMPDEST PUSH0 PUSH2 0x10F6 PUSH1 0x1D DUP4 PUSH2 0xB51 JUMP JUMPDEST SWAP2 POP PUSH2 0x1101 DUP3 PUSH2 0x10C2 JUMP JUMPDEST PUSH1 0x20 DUP3 ADD SWAP1 POP SWAP2 SWAP1 POP JUMP JUMPDEST PUSH0 PUSH1 0x20 DUP3 ADD SWAP1 POP DUP2 DUP2 SUB PUSH0 DUP4 ADD MSTORE PUSH2 0x1123 DUP2 PUSH2 0x10EA JUMP JUMPDEST SWAP1 POP SWAP2 SWAP1 POP JUMP JUMPDEST PUSH32 0x4E6F7420656E6F75676820736561747320746F20726573656C6C000000000000 PUSH0 DUP3 ADD MSTORE POP JUMP JUMPDEST PUSH0 PUSH2 0x115E PUSH1 0x1A DUP4 PUSH2 0xB51 JUMP JUMPDEST SWAP2 POP PUSH2 0x1169 DUP3 PUSH2 0x112A JUMP JUMPDEST PUSH1 0x20 DUP3 ADD SWAP1 POP SWAP2 SWAP1 POP JUMP JUMPDEST PUSH0 PUSH1 0x20 DUP3 ADD SWAP1 POP DUP2 DUP2 SUB PUSH0 DUP4 ADD MSTORE PUSH2 0x118B DUP2 PUSH2 0x1152 JUMP JUMPDEST SWAP1 POP SWAP2 SWAP1 POP JUMP JUMPDEST PUSH0 PUSH2 0x119C DUP3 PUSH2 0x7BF JUMP JUMPDEST SWAP2 POP PUSH2 0x11A7 DUP4 PUSH2 0x7BF JUMP JUMPDEST SWAP3 POP DUP3 DUP3 SUB SWAP1 POP DUP2 DUP2 GT ISZERO PUSH2 0x11BF JUMPI PUSH2 0x11BE PUSH2 0xFE6 JUMP JUMPDEST JUMPDEST SWAP3 SWAP2 POP POP JUMP JUMPDEST PUSH0 PUSH2 0x11CF DUP3 PUSH2 0x7BF JUMP JUMPDEST SWAP2 POP PUSH2 0x11DA DUP4 PUSH2 0x7BF JUMP JUMPDEST SWAP3 POP DUP3 DUP3 ADD SWAP1 POP DUP1 DUP3 GT ISZERO PUSH2 0x11F2 JUMPI PUSH2 0x11F1 PUSH2 0xFE6 JUMP JUMPDEST JUMPDEST SWAP3 SWAP2 POP POP JUMP JUMPDEST PUSH0 PUSH2 0x1202 DUP3 PUSH2 0x7BF JUMP JUMPDEST SWAP2 POP PUSH2 0x120D DUP4 PUSH2 0x7BF JUMP JUMPDEST SWAP3 POP DUP3 DUP3 MUL PUSH2 0x121B DUP2 PUSH2 0x7BF JUMP JUMPDEST SWAP2 POP DUP3 DUP3 DIV DUP5 EQ DUP4 ISZERO OR PUSH2 0x1232 JUMPI PUSH2 0x1231 PUSH2 0xFE6 JUMP JUMPDEST JUMPDEST POP SWAP3 SWAP2 POP POP JUMP JUMPDEST PUSH32 0x4E6F7420656E6F75676820657468657273000000000000000000000000000000 PUSH0 DUP3 ADD MSTORE POP JUMP JUMPDEST PUSH0 PUSH2 0x126D PUSH1 0x11 DUP4 PUSH2 0xB51 JUMP JUMPDEST SWAP2 POP PUSH2 0x1278 DUP3 PUSH2 0x1239 JUMP JUMPDEST PUSH1 0x20 DUP3 ADD SWAP1 POP SWAP2 SWAP1 POP JUMP JUMPDEST PUSH0 PUSH1 0x20 DUP3 ADD SWAP1 POP DUP2 DUP2 SUB PUSH0 DUP4 ADD MSTORE PUSH2 0x129A DUP2 PUSH2 0x1261 JUMP JUMPDEST SWAP1 POP SWAP2 SWAP1 POP JUMP JUMPDEST PUSH32 0x4E6F7420656E6F75676820736561747320617661696C61626C65000000000000 PUSH0 DUP3 ADD MSTORE POP JUMP JUMPDEST PUSH0 PUSH2 0x12D5 PUSH1 0x1A DUP4 PUSH2 0xB51 JUMP JUMPDEST SWAP2 POP PUSH2 0x12E0 DUP3 PUSH2 0x12A1 JUMP JUMPDEST PUSH1 0x20 DUP3 ADD SWAP1 POP SWAP2 SWAP1 POP JUMP JUMPDEST PUSH0 PUSH1 0x20 DUP3 ADD SWAP1 POP DUP2 DUP2 SUB PUSH0 DUP4 ADD MSTORE PUSH2 0x1302 DUP2 PUSH2 0x12C9 JUMP JUMPDEST SWAP1 POP SWAP2 SWAP1 POP JUMP INVALID LOG2 PUSH5 0x6970667358 0x22 SLT KECCAK256 0x2D 0x22 0xC6 PUSH2 0xAAD5 0xFB 0xA9 DUP9 BASEFEE BLOCKHASH 0xC5 SELFBALANCE 0xEA CALLVALUE 0xD1 0x49 EXTCODECOPY 0xC7 0xB8 0xB7 0x2D 0xC3 PUSH24 0x5020D6EFECD6370464736F6C634300081600330000000000 "
				},
				"gasEstimates": {
					"creation": {
						"codeDepositCost": "985400",
						"executionCost": "1019",
						"totalCost": "986419"
					},
					"external": {
						"createWorkshop(string,uint256,uint256,uint256)": "infinite",
						"nextID()": "2403",
						"registerWorkshop(uint256,uint256)": "infinite",
						"resellSeat(uint256,uint256,address)": "infinite",
						"seats(address,uint256)": "infinite",
						"workshops(uint256)": "infinite"
					}
				},
				"methodIdentifiers": {
					"createWorkshop(string,uint256,uint256,uint256)": "298a9aec",
					"nextID()": "1e96917d",
					"registerWorkshop(uint256,uint256)": "61b36897",
					"resellSeat(uint256,uint256,address)": "521210c1",
					"seats(address,uint256)": "a30dc775",
					"workshops(uint256)": "d422ea60"
				}
			},
			"storageLayout": {
				"storage": [
					{
						"astId": 19,
						"contract": "cryptobinar.sol:cryptobinar",
						"label": "workshops",
						"offset": 0,
						"slot": "0",
						"type": "t_mapping(t_uint256,t_struct(Workshop)14_storage)"
					},
					{
						"astId": 25,
						"contract": "cryptobinar.sol:cryptobinar",
						"label": "seats",
						"offset": 0,
						"slot": "1",
						"type": "t_mapping(t_address,t_mapping(t_uint256,t_uint256))"
					},
					{
						"astId": 27,
						"contract": "cryptobinar.sol:cryptobinar",
						"label": "nextID",
						"offset": 0,
						"slot": "2",
						"type": "t_uint256"
					}
				],
				"types": {
					"t_address": {
						"encoding": "inplace",
						"label": "address",
						"numberOfBytes": "20"
					},
					"t_mapping(t_address,t_mapping(t_uint256,t_uint256))": {
						"encoding": "mapping",
						"key": "t_address",
						"label": "mapping(address => mapping(uint256 => uint256))",
						"numberOfBytes": "32",
						"value": "t_mapping(t_uint256,t_uint256)"
					},
					"t_mapping(t_uint256,t_struct(Workshop)14_storage)": {
						"encoding": "mapping",
						"key": "t_uint256",
						"label": "mapping(uint256 => struct cryptobinar.Workshop)",
						"numberOfBytes": "32",
						"value": "t_struct(Workshop)14_storage"
					},
					"t_mapping(t_uint256,t_uint256)": {
						"encoding": "mapping",
						"key": "t_uint256",
						"label": "mapping(uint256 => uint256)",
						"numberOfBytes": "32",
						"value": "t_uint256"
					},
					"t_string_storage": {
						"encoding": "bytes",
						"label": "string",
						"numberOfBytes": "32"
					},
					"t_struct(Workshop)14_storage": {
						"encoding": "inplace",
						"label": "struct cryptobinar.Workshop",
						"members": [
							{
								"astId": 3,
								"contract": "cryptobinar.sol:cryptobinar",
								"label": "organizer",
								"offset": 0,
								"slot": "0",
								"type": "t_address"
							},
							{
								"astId": 5,
								"contract": "cryptobinar.sol:cryptobinar",
								"label": "name",
								"offset": 0,
								"slot": "1",
								"type": "t_string_storage"
							},
							{
								"astId": 7,
								"contract": "cryptobinar.sol:cryptobinar",
								"label": "date",
								"offset": 0,
								"slot": "2",
								"type": "t_uint256"
							},
							{
								"astId": 9,
								"contract": "cryptobinar.sol:cryptobinar",
								"label": "registrationFee",
								"offset": 0,
								"slot": "3",
								"type": "t_uint256"
							},
							{
								"astId": 11,
								"contract": "cryptobinar.sol:cryptobinar",
								"label": "seatCount",
								"offset": 0,
								"slot": "4",
								"type": "t_uint256"
							},
							{
								"astId": 13,
								"contract": "cryptobinar.sol:cryptobinar",
								"label": "seatRemaining",
								"offset": 0,
								"slot": "5",
								"type": "t_uint256"
							}
						],
						"numberOfBytes": "192"
					},
					"t_uint256": {
						"encoding": "inplace",
						"label": "uint256",
						"numberOfBytes": "32"
					}
				}
			},
			"userdoc": {
				"kind": "user",
				"methods": {},
				"version": 1
			}
		}
	}
}