{
	"cryptobinar.sol": {
		"cryptobinar": {
			"abi": [
				{
					"inputs": [
						{
							"internalType": "string",
							"name": "name",
							"type": "string"
						},
						{
							"internalType": "uint256",
							"name": "date",
							"type": "uint256"
						},
						{
							"internalType": "uint256",
							"name": "registrationFee",
							"type": "uint256"
						},
						{
							"internalType": "uint256",
							"name": "seatCount",
							"type": "uint256"
						}
					],
					"name": "createWorkshop",
					"outputs": [],
					"stateMutability": "nonpayable",
					"type": "function"
				},
				{
					"inputs": [],
					"name": "nextID",
					"outputs": [
						{
							"internalType": "uint256",
							"name": "",
							"type": "uint256"
						}
					],
					"stateMutability": "view",
					"type": "function"
				},
				{
					"inputs": [
						{
							"internalType": "uint256",
							"name": "id",
							"type": "uint256"
						},
						{
							"internalType": "uint256",
							"name": "quantity",
							"type": "uint256"
						}
					],
					"name": "registerWorkshop",
					"outputs": [],
					"stateMutability": "payable",
					"type": "function"
				},
				{
					"inputs": [
						{
							"internalType": "address",
							"name": "",
							"type": "address"
						},
						{
							"internalType": "uint256",
							"name": "",
							"type": "uint256"
						}
					],
					"name": "seats",
					"outputs": [
						{
							"internalType": "uint256",
							"name": "",
							"type": "uint256"
						}
					],
					"stateMutability": "view",
					"type": "function"
				},
				{
					"inputs": [
						{
							"internalType": "uint256",
							"name": "",
							"type": "uint256"
						}
					],
					"name": "workshops",
					"outputs": [
						{
							"internalType": "address",
							"name": "organizer",
							"type": "address"
						},
						{
							"internalType": "string",
							"name": "name",
							"type": "string"
						},
						{
							"internalType": "uint256",
							"name": "date",
							"type": "uint256"
						},
						{
							"internalType": "uint256",
							"name": "registrationFee",
							"type": "uint256"
						},
						{
							"internalType": "uint256",
							"name": "seatCount",
							"type": "uint256"
						},
						{
							"internalType": "uint256",
							"name": "seatRemaining",
							"type": "uint256"
						}
					],
					"stateMutability": "view",
					"type": "function"
				}
			],
			"devdoc": {
				"kind": "dev",
				"methods": {},
				"version": 1
			},
			"evm": {
				"assembly": "    /* \"cryptobinar.sol\":70:1346  contract cryptobinar {... */\n  mstore(0x40, 0x80)\n  callvalue\n  dup1\n  iszero\n  tag_1\n  jumpi\n  0x00\n  dup1\n  revert\ntag_1:\n  pop\n  dataSize(sub_0)\n  dup1\n  dataOffset(sub_0)\n  0x00\n  codecopy\n  0x00\n  return\nstop\n\nsub_0: assembly {\n        /* \"cryptobinar.sol\":70:1346  contract cryptobinar {... */\n      mstore(0x40, 0x80)\n      jumpi(tag_1, lt(calldatasize, 0x04))\n      shr(0xe0, calldataload(0x00))\n      dup1\n      0x1e96917d\n      eq\n      tag_2\n      jumpi\n      dup1\n      0x298a9aec\n      eq\n      tag_3\n      jumpi\n      dup1\n      0x61b36897\n      eq\n      tag_4\n      jumpi\n      dup1\n      0xa30dc775\n      eq\n      tag_5\n      jumpi\n      dup1\n      0xd422ea60\n      eq\n      tag_6\n      jumpi\n    tag_1:\n      0x00\n      dup1\n      revert\n        /* \"cryptobinar.sol\":400:418  uint public nextID */\n    tag_2:\n      callvalue\n      dup1\n      iszero\n      tag_7\n      jumpi\n      0x00\n      dup1\n      revert\n    tag_7:\n      pop\n      tag_8\n      tag_9\n      jump\t// in\n    tag_8:\n      mload(0x40)\n      tag_10\n      swap2\n      swap1\n      tag_11\n      jump\t// in\n    tag_10:\n      mload(0x40)\n      dup1\n      swap2\n      sub\n      swap1\n      return\n        /* \"cryptobinar.sol\":427:800  function createWorkshop(string memory name, uint date, uint registrationFee, uint seatCount) public {... */\n    tag_3:\n      callvalue\n      dup1\n      iszero\n      tag_12\n      jumpi\n      0x00\n      dup1\n      revert\n    tag_12:\n      pop\n      tag_13\n      0x04\n      dup1\n      calldatasize\n      sub\n      dup2\n      add\n      swap1\n      tag_14\n      swap2\n      swap1\n      tag_15\n      jump\t// in\n    tag_14:\n      tag_16\n      jump\t// in\n    tag_13:\n      stop\n        /* \"cryptobinar.sol\":808:1327  function registerWorkshop(uint id, uint quantity) external payable {... */\n    tag_4:\n      tag_17\n      0x04\n      dup1\n      calldatasize\n      sub\n      dup2\n      add\n      swap1\n      tag_18\n      swap2\n      swap1\n      tag_19\n      jump\t// in\n    tag_18:\n      tag_20\n      jump\t// in\n    tag_17:\n      stop\n        /* \"cryptobinar.sol\":337:391  mapping(address => mapping(uint => uint)) public seats */\n    tag_5:\n      callvalue\n      dup1\n      iszero\n      tag_21\n      jumpi\n      0x00\n      dup1\n      revert\n    tag_21:\n      pop\n      tag_22\n      0x04\n      dup1\n      calldatasize\n      sub\n      dup2\n      add\n      swap1\n      tag_23\n      swap2\n      swap1\n      tag_24\n      jump\t// in\n    tag_23:\n      tag_25\n      jump\t// in\n    tag_22:\n      mload(0x40)\n      tag_26\n      swap2\n      swap1\n      tag_11\n      jump\t// in\n    tag_26:\n      mload(0x40)\n      dup1\n      swap2\n      sub\n      swap1\n      return\n        /* \"cryptobinar.sol\":286:328  mapping(uint => Workshop) public workshops */\n    tag_6:\n      callvalue\n      dup1\n      iszero\n      tag_27\n      jumpi\n      0x00\n      dup1\n      revert\n    tag_27:\n      pop\n      tag_28\n      0x04\n      dup1\n      calldatasize\n      sub\n      dup2\n      add\n      swap1\n      tag_29\n      swap2\n      swap1\n      tag_30\n      jump\t// in\n    tag_29:\n      tag_31\n      jump\t// in\n    tag_28:\n      mload(0x40)\n      tag_32\n      swap7\n      swap6\n      swap5\n      swap4\n      swap3\n      swap2\n      swap1\n      tag_33\n      jump\t// in\n    tag_32:\n      mload(0x40)\n      dup1\n      swap2\n      sub\n      swap1\n      return\n        /* \"cryptobinar.sol\":400:418  uint public nextID */\n    tag_9:\n      sload(0x02)\n      dup2\n      jump\t// out\n        /* \"cryptobinar.sol\":427:800  function createWorkshop(string memory name, uint date, uint registrationFee, uint seatCount) public {... */\n    tag_16:\n        /* \"cryptobinar.sol\":552:567  block.timestamp */\n      timestamp\n        /* \"cryptobinar.sol\":546:550  date */\n      dup4\n        /* \"cryptobinar.sol\":546:567  date> block.timestamp */\n      gt\n        /* \"cryptobinar.sol\":538:615  require(date> block.timestamp,\"Please organize workshop for future timeslot\") */\n      tag_35\n      jumpi\n      mload(0x40)\n      0x08c379a000000000000000000000000000000000000000000000000000000000\n      dup2\n      mstore\n      0x04\n      add\n      tag_36\n      swap1\n      tag_37\n      jump\t// in\n    tag_36:\n      mload(0x40)\n      dup1\n      swap2\n      sub\n      swap1\n      revert\n    tag_35:\n        /* \"cryptobinar.sol\":644:645  0 */\n      0x00\n        /* \"cryptobinar.sol\":634:643  seatCount */\n      dup2\n        /* \"cryptobinar.sol\":634:645  seatCount>0 */\n      gt\n        /* \"cryptobinar.sol\":626:672  require(seatCount>0,\"seatCount not specified\") */\n      tag_38\n      jumpi\n      mload(0x40)\n      0x08c379a000000000000000000000000000000000000000000000000000000000\n      dup2\n      mstore\n      0x04\n      add\n      tag_39\n      swap1\n      tag_40\n      jump\t// in\n    tag_39:\n      mload(0x40)\n      dup1\n      swap2\n      sub\n      swap1\n      revert\n    tag_38:\n        /* \"cryptobinar.sol\":702:773  Workshop(msg.sender, name, date, registrationFee, seatCount, seatCount) */\n      mload(0x40)\n      dup1\n      0xc0\n      add\n      0x40\n      mstore\n      dup1\n        /* \"cryptobinar.sol\":711:721  msg.sender */\n      caller\n        /* \"cryptobinar.sol\":702:773  Workshop(msg.sender, name, date, registrationFee, seatCount, seatCount) */\n      0xffffffffffffffffffffffffffffffffffffffff\n      and\n      dup2\n      mstore\n      0x20\n      add\n        /* \"cryptobinar.sol\":723:727  name */\n      dup6\n        /* \"cryptobinar.sol\":702:773  Workshop(msg.sender, name, date, registrationFee, seatCount, seatCount) */\n      dup2\n      mstore\n      0x20\n      add\n        /* \"cryptobinar.sol\":729:733  date */\n      dup5\n        /* \"cryptobinar.sol\":702:773  Workshop(msg.sender, name, date, registrationFee, seatCount, seatCount) */\n      dup2\n      mstore\n      0x20\n      add\n        /* \"cryptobinar.sol\":735:750  registrationFee */\n      dup4\n        /* \"cryptobinar.sol\":702:773  Workshop(msg.sender, name, date, registrationFee, seatCount, seatCount) */\n      dup2\n      mstore\n      0x20\n      add\n        /* \"cryptobinar.sol\":752:761  seatCount */\n      dup3\n        /* \"cryptobinar.sol\":702:773  Workshop(msg.sender, name, date, registrationFee, seatCount, seatCount) */\n      dup2\n      mstore\n      0x20\n      add\n        /* \"cryptobinar.sol\":763:772  seatCount */\n      dup3\n        /* \"cryptobinar.sol\":702:773  Workshop(msg.sender, name, date, registrationFee, seatCount, seatCount) */\n      dup2\n      mstore\n      pop\n        /* \"cryptobinar.sol\":683:692  workshops */\n      0x00\n        /* \"cryptobinar.sol\":683:700  workshops[nextID] */\n      dup1\n        /* \"cryptobinar.sol\":693:699  nextID */\n      sload(0x02)\n        /* \"cryptobinar.sol\":683:700  workshops[nextID] */\n      dup2\n      mstore\n      0x20\n      add\n      swap1\n      dup2\n      mstore\n      0x20\n      add\n      0x00\n      keccak256\n        /* \"cryptobinar.sol\":683:773  workshops[nextID]= Workshop(msg.sender, name, date, registrationFee, seatCount, seatCount) */\n      0x00\n      dup3\n      add\n      mload\n      dup2\n      0x00\n      add\n      exp(0x0100, 0x00)\n      dup2\n      sload\n      dup2\n      0xffffffffffffffffffffffffffffffffffffffff\n      mul\n      not\n      and\n      swap1\n      dup4\n      0xffffffffffffffffffffffffffffffffffffffff\n      and\n      mul\n      or\n      swap1\n      sstore\n      pop\n      0x20\n      dup3\n      add\n      mload\n      dup2\n      0x01\n      add\n      swap1\n      dup2\n      tag_41\n      swap2\n      swap1\n      tag_42\n      jump\t// in\n    tag_41:\n      pop\n      0x40\n      dup3\n      add\n      mload\n      dup2\n      0x02\n      add\n      sstore\n      0x60\n      dup3\n      add\n      mload\n      dup2\n      0x03\n      add\n      sstore\n      0x80\n      dup3\n      add\n      mload\n      dup2\n      0x04\n      add\n      sstore\n      0xa0\n      dup3\n      add\n      mload\n      dup2\n      0x05\n      add\n      sstore\n      swap1\n      pop\n      pop\n        /* \"cryptobinar.sol\":784:790  nextID */\n      0x02\n      0x00\n        /* \"cryptobinar.sol\":784:792  nextID++ */\n      dup2\n      sload\n      dup1\n      swap3\n      swap2\n      swap1\n      tag_43\n      swap1\n      tag_44\n      jump\t// in\n    tag_43:\n      swap2\n      swap1\n      pop\n      sstore\n      pop\n        /* \"cryptobinar.sol\":427:800  function createWorkshop(string memory name, uint date, uint registrationFee, uint seatCount) public {... */\n      pop\n      pop\n      pop\n      pop\n      jump\t// out\n        /* \"cryptobinar.sol\":808:1327  function registerWorkshop(uint id, uint quantity) external payable {... */\n    tag_20:\n        /* \"cryptobinar.sol\":914:915  0 */\n      0x00\n        /* \"cryptobinar.sol\":894:903  workshops */\n      dup1\n        /* \"cryptobinar.sol\":894:907  workshops[id] */\n      0x00\n        /* \"cryptobinar.sol\":904:906  id */\n      dup5\n        /* \"cryptobinar.sol\":894:907  workshops[id] */\n      dup2\n      mstore\n      0x20\n      add\n      swap1\n      dup2\n      mstore\n      0x20\n      add\n      0x00\n      keccak256\n        /* \"cryptobinar.sol\":894:912  workshops[id].date */\n      0x02\n      add\n      sload\n        /* \"cryptobinar.sol\":894:915  workshops[id].date!=0 */\n      sub\n        /* \"cryptobinar.sol\":886:949  require(workshops[id].date!=0 , \"This workshop does not exist\") */\n      tag_46\n      jumpi\n      mload(0x40)\n      0x08c379a000000000000000000000000000000000000000000000000000000000\n      dup2\n      mstore\n      0x04\n      add\n      tag_47\n      swap1\n      tag_48\n      jump\t// in\n    tag_47:\n      mload(0x40)\n      dup1\n      swap2\n      sub\n      swap1\n      revert\n    tag_46:\n        /* \"cryptobinar.sol\":989:1004  block.timestamp */\n      timestamp\n        /* \"cryptobinar.sol\":968:977  workshops */\n      0x00\n        /* \"cryptobinar.sol\":968:981  workshops[id] */\n      dup1\n        /* \"cryptobinar.sol\":978:980  id */\n      dup5\n        /* \"cryptobinar.sol\":968:981  workshops[id] */\n      dup2\n      mstore\n      0x20\n      add\n      swap1\n      dup2\n      mstore\n      0x20\n      add\n      0x00\n      keccak256\n        /* \"cryptobinar.sol\":968:986  workshops[id].date */\n      0x02\n      add\n      sload\n        /* \"cryptobinar.sol\":968:1004  workshops[id].date > block.timestamp */\n      gt\n        /* \"cryptobinar.sol\":960:1039  require(workshops[id].date > block.timestamp, \"Workshop already accomplished\" ) */\n      tag_49\n      jumpi\n      mload(0x40)\n      0x08c379a000000000000000000000000000000000000000000000000000000000\n      dup2\n      mstore\n      0x04\n      add\n      tag_50\n      swap1\n      tag_51\n      jump\t// in\n    tag_50:\n      mload(0x40)\n      dup1\n      swap2\n      sub\n      swap1\n      revert\n    tag_49:\n        /* \"cryptobinar.sol\":1050:1076  Workshop storage _workshop */\n      0x00\n        /* \"cryptobinar.sol\":1079:1088  workshops */\n      dup1\n        /* \"cryptobinar.sol\":1079:1092  workshops[id] */\n      0x00\n        /* \"cryptobinar.sol\":1089:1091  id */\n      dup5\n        /* \"cryptobinar.sol\":1079:1092  workshops[id] */\n      dup2\n      mstore\n      0x20\n      add\n      swap1\n      dup2\n      mstore\n      0x20\n      add\n      0x00\n      keccak256\n        /* \"cryptobinar.sol\":1050:1092  Workshop storage _workshop = workshops[id] */\n      swap1\n      pop\n        /* \"cryptobinar.sol\":1153:1161  quantity */\n      dup2\n        /* \"cryptobinar.sol\":1125:1134  _workshop */\n      dup2\n        /* \"cryptobinar.sol\":1125:1150  _workshop.registrationFee */\n      0x03\n      add\n      sload\n        /* \"cryptobinar.sol\":1125:1161  _workshop.registrationFee * quantity */\n      tag_52\n      swap2\n      swap1\n      tag_53\n      jump\t// in\n    tag_52:\n        /* \"cryptobinar.sol\":1111:1120  msg.value */\n      callvalue\n        /* \"cryptobinar.sol\":1111:1162  msg.value == (_workshop.registrationFee * quantity) */\n      eq\n        /* \"cryptobinar.sol\":1103:1184  require(msg.value == (_workshop.registrationFee * quantity), \"Not enough ethers\") */\n      tag_54\n      jumpi\n      mload(0x40)\n      0x08c379a000000000000000000000000000000000000000000000000000000000\n      dup2\n      mstore\n      0x04\n      add\n      tag_55\n      swap1\n      tag_56\n      jump\t// in\n    tag_55:\n      mload(0x40)\n      dup1\n      swap2\n      sub\n      swap1\n      revert\n    tag_54:\n        /* \"cryptobinar.sol\":1225:1233  quantity */\n      dup2\n        /* \"cryptobinar.sol\":1203:1212  _workshop */\n      dup2\n        /* \"cryptobinar.sol\":1203:1222  _workshop.seatCount */\n      0x04\n      add\n      sload\n        /* \"cryptobinar.sol\":1203:1233  _workshop.seatCount>= quantity */\n      lt\n      iszero\n        /* \"cryptobinar.sol\":1195:1263  require(_workshop.seatCount>= quantity,\"Not enough seats available\") */\n      tag_57\n      jumpi\n      mload(0x40)\n      0x08c379a000000000000000000000000000000000000000000000000000000000\n      dup2\n      mstore\n      0x04\n      add\n      tag_58\n      swap1\n      tag_59\n      jump\t// in\n    tag_58:\n      mload(0x40)\n      dup1\n      swap2\n      sub\n      swap1\n      revert\n    tag_57:\n        /* \"cryptobinar.sol\":1299:1307  quantity */\n      dup2\n        /* \"cryptobinar.sol\":1274:1283  _workshop */\n      dup2\n        /* \"cryptobinar.sol\":1274:1297  _workshop.seatRemaining */\n      0x05\n      add\n      0x00\n        /* \"cryptobinar.sol\":1274:1307  _workshop.seatRemaining-=quantity */\n      dup3\n      dup3\n      sload\n      tag_60\n      swap2\n      swap1\n      tag_61\n      jump\t// in\n    tag_60:\n      swap3\n      pop\n      pop\n      dup2\n      swap1\n      sstore\n      pop\n        /* \"cryptobinar.sol\":875:1327  {... */\n      pop\n        /* \"cryptobinar.sol\":808:1327  function registerWorkshop(uint id, uint quantity) external payable {... */\n      pop\n      pop\n      jump\t// out\n        /* \"cryptobinar.sol\":337:391  mapping(address => mapping(uint => uint)) public seats */\n    tag_25:\n      mstore(0x20, 0x01)\n      dup2\n      0x00\n      mstore\n      mstore(0x20, keccak256(0x00, 0x40))\n      dup1\n      0x00\n      mstore\n      keccak256(0x00, 0x40)\n      0x00\n      swap2\n      pop\n      swap2\n      pop\n      pop\n      sload\n      dup2\n      jump\t// out\n        /* \"cryptobinar.sol\":286:328  mapping(uint => Workshop) public workshops */\n    tag_31:\n      mstore(0x20, 0x00)\n      dup1\n      0x00\n      mstore\n      keccak256(0x00, 0x40)\n      0x00\n      swap2\n      pop\n      swap1\n      pop\n      dup1\n      0x00\n      add\n      0x00\n      swap1\n      sload\n      swap1\n      0x0100\n      exp\n      swap1\n      div\n      0xffffffffffffffffffffffffffffffffffffffff\n      and\n      swap1\n      dup1\n      0x01\n      add\n      dup1\n      sload\n      tag_62\n      swap1\n      tag_63\n      jump\t// in\n    tag_62:\n      dup1\n      0x1f\n      add\n      0x20\n      dup1\n      swap2\n      div\n      mul\n      0x20\n      add\n      mload(0x40)\n      swap1\n      dup2\n      add\n      0x40\n      mstore\n      dup1\n      swap3\n      swap2\n      swap1\n      dup2\n      dup2\n      mstore\n      0x20\n      add\n      dup3\n      dup1\n      sload\n      tag_64\n      swap1\n      tag_63\n      jump\t// in\n    tag_64:\n      dup1\n      iszero\n      tag_65\n      jumpi\n      dup1\n      0x1f\n      lt\n      tag_66\n      jumpi\n      0x0100\n      dup1\n      dup4\n      sload\n      div\n      mul\n      dup4\n      mstore\n      swap2\n      0x20\n      add\n      swap2\n      jump(tag_65)\n    tag_66:\n      dup3\n      add\n      swap2\n      swap1\n      0x00\n      mstore\n      keccak256(0x00, 0x20)\n      swap1\n    tag_67:\n      dup2\n      sload\n      dup2\n      mstore\n      swap1\n      0x01\n      add\n      swap1\n      0x20\n      add\n      dup1\n      dup4\n      gt\n      tag_67\n      jumpi\n      dup3\n      swap1\n      sub\n      0x1f\n      and\n      dup3\n      add\n      swap2\n    tag_65:\n      pop\n      pop\n      pop\n      pop\n      pop\n      swap1\n      dup1\n      0x02\n      add\n      sload\n      swap1\n      dup1\n      0x03\n      add\n      sload\n      swap1\n      dup1\n      0x04\n      add\n      sload\n      swap1\n      dup1\n      0x05\n      add\n      sload\n      swap1\n      pop\n      dup7\n      jump\t// out\n        /* \"#utility.yul\":7:84   */\n    tag_68:\n        /* \"#utility.yul\":44:51   */\n      0x00\n        /* \"#utility.yul\":73:78   */\n      dup2\n        /* \"#utility.yul\":62:78   */\n      swap1\n      pop\n        /* \"#utility.yul\":7:84   */\n      swap2\n      swap1\n      pop\n      jump\t// out\n        /* \"#utility.yul\":90:208   */\n    tag_69:\n        /* \"#utility.yul\":177:201   */\n      tag_126\n        /* \"#utility.yul\":195:200   */\n      dup2\n        /* \"#utility.yul\":177:201   */\n      tag_68\n      jump\t// in\n    tag_126:\n        /* \"#utility.yul\":172:175   */\n      dup3\n        /* \"#utility.yul\":165:202   */\n      mstore\n        /* \"#utility.yul\":90:208   */\n      pop\n      pop\n      jump\t// out\n        /* \"#utility.yul\":214:436   */\n    tag_11:\n        /* \"#utility.yul\":307:311   */\n      0x00\n        /* \"#utility.yul\":345:347   */\n      0x20\n        /* \"#utility.yul\":334:343   */\n      dup3\n        /* \"#utility.yul\":330:348   */\n      add\n        /* \"#utility.yul\":322:348   */\n      swap1\n      pop\n        /* \"#utility.yul\":358:429   */\n      tag_128\n        /* \"#utility.yul\":426:427   */\n      0x00\n        /* \"#utility.yul\":415:424   */\n      dup4\n        /* \"#utility.yul\":411:428   */\n      add\n        /* \"#utility.yul\":402:408   */\n      dup5\n        /* \"#utility.yul\":358:429   */\n      tag_69\n      jump\t// in\n    tag_128:\n        /* \"#utility.yul\":214:436   */\n      swap3\n      swap2\n      pop\n      pop\n      jump\t// out\n        /* \"#utility.yul\":442:517   */\n    tag_70:\n        /* \"#utility.yul\":475:481   */\n      0x00\n        /* \"#utility.yul\":508:510   */\n      0x40\n        /* \"#utility.yul\":502:511   */\n      mload\n        /* \"#utility.yul\":492:511   */\n      swap1\n      pop\n        /* \"#utility.yul\":442:517   */\n      swap1\n      jump\t// out\n        /* \"#utility.yul\":523:640   */\n    tag_71:\n        /* \"#utility.yul\":632:633   */\n      0x00\n        /* \"#utility.yul\":629:630   */\n      dup1\n        /* \"#utility.yul\":622:634   */\n      revert\n        /* \"#utility.yul\":646:763   */\n    tag_72:\n        /* \"#utility.yul\":755:756   */\n      0x00\n        /* \"#utility.yul\":752:753   */\n      dup1\n        /* \"#utility.yul\":745:757   */\n      revert\n        /* \"#utility.yul\":769:886   */\n    tag_73:\n        /* \"#utility.yul\":878:879   */\n      0x00\n        /* \"#utility.yul\":875:876   */\n      dup1\n        /* \"#utility.yul\":868:880   */\n      revert\n        /* \"#utility.yul\":892:1009   */\n    tag_74:\n        /* \"#utility.yul\":1001:1002   */\n      0x00\n        /* \"#utility.yul\":998:999   */\n      dup1\n        /* \"#utility.yul\":991:1003   */\n      revert\n        /* \"#utility.yul\":1015:1117   */\n    tag_75:\n        /* \"#utility.yul\":1056:1062   */\n      0x00\n        /* \"#utility.yul\":1107:1109   */\n      0x1f\n        /* \"#utility.yul\":1103:1110   */\n      not\n        /* \"#utility.yul\":1098:1100   */\n      0x1f\n        /* \"#utility.yul\":1091:1096   */\n      dup4\n        /* \"#utility.yul\":1087:1101   */\n      add\n        /* \"#utility.yul\":1083:1111   */\n      and\n        /* \"#utility.yul\":1073:1111   */\n      swap1\n      pop\n        /* \"#utility.yul\":1015:1117   */\n      swap2\n      swap1\n      pop\n      jump\t// out\n        /* \"#utility.yul\":1123:1303   */\n    tag_76:\n        /* \"#utility.yul\":1171:1248   */\n      0x4e487b7100000000000000000000000000000000000000000000000000000000\n        /* \"#utility.yul\":1168:1169   */\n      0x00\n        /* \"#utility.yul\":1161:1249   */\n      mstore\n        /* \"#utility.yul\":1268:1272   */\n      0x41\n        /* \"#utility.yul\":1265:1266   */\n      0x04\n        /* \"#utility.yul\":1258:1273   */\n      mstore\n        /* \"#utility.yul\":1292:1296   */\n      0x24\n        /* \"#utility.yul\":1289:1290   */\n      0x00\n        /* \"#utility.yul\":1282:1297   */\n      revert\n        /* \"#utility.yul\":1309:1590   */\n    tag_77:\n        /* \"#utility.yul\":1392:1419   */\n      tag_137\n        /* \"#utility.yul\":1414:1418   */\n      dup3\n        /* \"#utility.yul\":1392:1419   */\n      tag_75\n      jump\t// in\n    tag_137:\n        /* \"#utility.yul\":1384:1390   */\n      dup2\n        /* \"#utility.yul\":1380:1420   */\n      add\n        /* \"#utility.yul\":1522:1528   */\n      dup2\n        /* \"#utility.yul\":1510:1520   */\n      dup2\n        /* \"#utility.yul\":1507:1529   */\n      lt\n        /* \"#utility.yul\":1486:1504   */\n      0xffffffffffffffff\n        /* \"#utility.yul\":1474:1484   */\n      dup3\n        /* \"#utility.yul\":1471:1505   */\n      gt\n        /* \"#utility.yul\":1468:1530   */\n      or\n        /* \"#utility.yul\":1465:1553   */\n      iszero\n      tag_138\n      jumpi\n        /* \"#utility.yul\":1533:1551   */\n      tag_139\n      tag_76\n      jump\t// in\n    tag_139:\n        /* \"#utility.yul\":1465:1553   */\n    tag_138:\n        /* \"#utility.yul\":1573:1583   */\n      dup1\n        /* \"#utility.yul\":1569:1571   */\n      0x40\n        /* \"#utility.yul\":1562:1584   */\n      mstore\n        /* \"#utility.yul\":1352:1590   */\n      pop\n        /* \"#utility.yul\":1309:1590   */\n      pop\n      pop\n      jump\t// out\n        /* \"#utility.yul\":1596:1725   */\n    tag_78:\n        /* \"#utility.yul\":1630:1636   */\n      0x00\n        /* \"#utility.yul\":1657:1677   */\n      tag_141\n      tag_70\n      jump\t// in\n    tag_141:\n        /* \"#utility.yul\":1647:1677   */\n      swap1\n      pop\n        /* \"#utility.yul\":1686:1719   */\n      tag_142\n        /* \"#utility.yul\":1714:1718   */\n      dup3\n        /* \"#utility.yul\":1706:1712   */\n      dup3\n        /* \"#utility.yul\":1686:1719   */\n      tag_77\n      jump\t// in\n    tag_142:\n        /* \"#utility.yul\":1596:1725   */\n      swap2\n      swap1\n      pop\n      jump\t// out\n        /* \"#utility.yul\":1731:2039   */\n    tag_79:\n        /* \"#utility.yul\":1793:1797   */\n      0x00\n        /* \"#utility.yul\":1883:1901   */\n      0xffffffffffffffff\n        /* \"#utility.yul\":1875:1881   */\n      dup3\n        /* \"#utility.yul\":1872:1902   */\n      gt\n        /* \"#utility.yul\":1869:1925   */\n      iszero\n      tag_144\n      jumpi\n        /* \"#utility.yul\":1905:1923   */\n      tag_145\n      tag_76\n      jump\t// in\n    tag_145:\n        /* \"#utility.yul\":1869:1925   */\n    tag_144:\n        /* \"#utility.yul\":1943:1972   */\n      tag_146\n        /* \"#utility.yul\":1965:1971   */\n      dup3\n        /* \"#utility.yul\":1943:1972   */\n      tag_75\n      jump\t// in\n    tag_146:\n        /* \"#utility.yul\":1935:1972   */\n      swap1\n      pop\n        /* \"#utility.yul\":2027:2031   */\n      0x20\n        /* \"#utility.yul\":2021:2025   */\n      dup2\n        /* \"#utility.yul\":2017:2032   */\n      add\n        /* \"#utility.yul\":2009:2032   */\n      swap1\n      pop\n        /* \"#utility.yul\":1731:2039   */\n      swap2\n      swap1\n      pop\n      jump\t// out\n        /* \"#utility.yul\":2045:2191   */\n    tag_80:\n        /* \"#utility.yul\":2142:2148   */\n      dup3\n        /* \"#utility.yul\":2137:2140   */\n      dup2\n        /* \"#utility.yul\":2132:2135   */\n      dup4\n        /* \"#utility.yul\":2119:2149   */\n      calldatacopy\n        /* \"#utility.yul\":2183:2184   */\n      0x00\n        /* \"#utility.yul\":2174:2180   */\n      dup4\n        /* \"#utility.yul\":2169:2172   */\n      dup4\n        /* \"#utility.yul\":2165:2181   */\n      add\n        /* \"#utility.yul\":2158:2185   */\n      mstore\n        /* \"#utility.yul\":2045:2191   */\n      pop\n      pop\n      pop\n      jump\t// out\n        /* \"#utility.yul\":2197:2622   */\n    tag_81:\n        /* \"#utility.yul\":2275:2280   */\n      0x00\n        /* \"#utility.yul\":2300:2366   */\n      tag_149\n        /* \"#utility.yul\":2316:2365   */\n      tag_150\n        /* \"#utility.yul\":2358:2364   */\n      dup5\n        /* \"#utility.yul\":2316:2365   */\n      tag_79\n      jump\t// in\n    tag_150:\n        /* \"#utility.yul\":2300:2366   */\n      tag_78\n      jump\t// in\n    tag_149:\n        /* \"#utility.yul\":2291:2366   */\n      swap1\n      pop\n        /* \"#utility.yul\":2389:2395   */\n      dup3\n        /* \"#utility.yul\":2382:2387   */\n      dup2\n        /* \"#utility.yul\":2375:2396   */\n      mstore\n        /* \"#utility.yul\":2427:2431   */\n      0x20\n        /* \"#utility.yul\":2420:2425   */\n      dup2\n        /* \"#utility.yul\":2416:2432   */\n      add\n        /* \"#utility.yul\":2465:2468   */\n      dup5\n        /* \"#utility.yul\":2456:2462   */\n      dup5\n        /* \"#utility.yul\":2451:2454   */\n      dup5\n        /* \"#utility.yul\":2447:2463   */\n      add\n        /* \"#utility.yul\":2444:2469   */\n      gt\n        /* \"#utility.yul\":2441:2553   */\n      iszero\n      tag_151\n      jumpi\n        /* \"#utility.yul\":2472:2551   */\n      tag_152\n      tag_74\n      jump\t// in\n    tag_152:\n        /* \"#utility.yul\":2441:2553   */\n    tag_151:\n        /* \"#utility.yul\":2562:2616   */\n      tag_153\n        /* \"#utility.yul\":2609:2615   */\n      dup5\n        /* \"#utility.yul\":2604:2607   */\n      dup3\n        /* \"#utility.yul\":2599:2602   */\n      dup6\n        /* \"#utility.yul\":2562:2616   */\n      tag_80\n      jump\t// in\n    tag_153:\n        /* \"#utility.yul\":2281:2622   */\n      pop\n        /* \"#utility.yul\":2197:2622   */\n      swap4\n      swap3\n      pop\n      pop\n      pop\n      jump\t// out\n        /* \"#utility.yul\":2642:2982   */\n    tag_82:\n        /* \"#utility.yul\":2698:2703   */\n      0x00\n        /* \"#utility.yul\":2747:2750   */\n      dup3\n        /* \"#utility.yul\":2740:2744   */\n      0x1f\n        /* \"#utility.yul\":2732:2738   */\n      dup4\n        /* \"#utility.yul\":2728:2745   */\n      add\n        /* \"#utility.yul\":2724:2751   */\n      slt\n        /* \"#utility.yul\":2714:2836   */\n      tag_155\n      jumpi\n        /* \"#utility.yul\":2755:2834   */\n      tag_156\n      tag_73\n      jump\t// in\n    tag_156:\n        /* \"#utility.yul\":2714:2836   */\n    tag_155:\n        /* \"#utility.yul\":2872:2878   */\n      dup2\n        /* \"#utility.yul\":2859:2879   */\n      calldataload\n        /* \"#utility.yul\":2897:2976   */\n      tag_157\n        /* \"#utility.yul\":2972:2975   */\n      dup5\n        /* \"#utility.yul\":2964:2970   */\n      dup3\n        /* \"#utility.yul\":2957:2961   */\n      0x20\n        /* \"#utility.yul\":2949:2955   */\n      dup7\n        /* \"#utility.yul\":2945:2962   */\n      add\n        /* \"#utility.yul\":2897:2976   */\n      tag_81\n      jump\t// in\n    tag_157:\n        /* \"#utility.yul\":2888:2976   */\n      swap2\n      pop\n        /* \"#utility.yul\":2704:2982   */\n      pop\n        /* \"#utility.yul\":2642:2982   */\n      swap3\n      swap2\n      pop\n      pop\n      jump\t// out\n        /* \"#utility.yul\":2988:3110   */\n    tag_83:\n        /* \"#utility.yul\":3061:3085   */\n      tag_159\n        /* \"#utility.yul\":3079:3084   */\n      dup2\n        /* \"#utility.yul\":3061:3085   */\n      tag_68\n      jump\t// in\n    tag_159:\n        /* \"#utility.yul\":3054:3059   */\n      dup2\n        /* \"#utility.yul\":3051:3086   */\n      eq\n        /* \"#utility.yul\":3041:3104   */\n      tag_160\n      jumpi\n        /* \"#utility.yul\":3100:3101   */\n      0x00\n        /* \"#utility.yul\":3097:3098   */\n      dup1\n        /* \"#utility.yul\":3090:3102   */\n      revert\n        /* \"#utility.yul\":3041:3104   */\n    tag_160:\n        /* \"#utility.yul\":2988:3110   */\n      pop\n      jump\t// out\n        /* \"#utility.yul\":3116:3255   */\n    tag_84:\n        /* \"#utility.yul\":3162:3167   */\n      0x00\n        /* \"#utility.yul\":3200:3206   */\n      dup2\n        /* \"#utility.yul\":3187:3207   */\n      calldataload\n        /* \"#utility.yul\":3178:3207   */\n      swap1\n      pop\n        /* \"#utility.yul\":3216:3249   */\n      tag_162\n        /* \"#utility.yul\":3243:3248   */\n      dup2\n        /* \"#utility.yul\":3216:3249   */\n      tag_83\n      jump\t// in\n    tag_162:\n        /* \"#utility.yul\":3116:3255   */\n      swap3\n      swap2\n      pop\n      pop\n      jump\t// out\n        /* \"#utility.yul\":3261:4206   */\n    tag_15:\n        /* \"#utility.yul\":3357:3363   */\n      0x00\n        /* \"#utility.yul\":3365:3371   */\n      dup1\n        /* \"#utility.yul\":3373:3379   */\n      0x00\n        /* \"#utility.yul\":3381:3387   */\n      dup1\n        /* \"#utility.yul\":3430:3433   */\n      0x80\n        /* \"#utility.yul\":3418:3427   */\n      dup6\n        /* \"#utility.yul\":3409:3416   */\n      dup8\n        /* \"#utility.yul\":3405:3428   */\n      sub\n        /* \"#utility.yul\":3401:3434   */\n      slt\n        /* \"#utility.yul\":3398:3518   */\n      iszero\n      tag_164\n      jumpi\n        /* \"#utility.yul\":3437:3516   */\n      tag_165\n      tag_71\n      jump\t// in\n    tag_165:\n        /* \"#utility.yul\":3398:3518   */\n    tag_164:\n        /* \"#utility.yul\":3585:3586   */\n      0x00\n        /* \"#utility.yul\":3574:3583   */\n      dup6\n        /* \"#utility.yul\":3570:3587   */\n      add\n        /* \"#utility.yul\":3557:3588   */\n      calldataload\n        /* \"#utility.yul\":3615:3633   */\n      0xffffffffffffffff\n        /* \"#utility.yul\":3607:3613   */\n      dup2\n        /* \"#utility.yul\":3604:3634   */\n      gt\n        /* \"#utility.yul\":3601:3718   */\n      iszero\n      tag_166\n      jumpi\n        /* \"#utility.yul\":3637:3716   */\n      tag_167\n      tag_72\n      jump\t// in\n    tag_167:\n        /* \"#utility.yul\":3601:3718   */\n    tag_166:\n        /* \"#utility.yul\":3742:3805   */\n      tag_168\n        /* \"#utility.yul\":3797:3804   */\n      dup8\n        /* \"#utility.yul\":3788:3794   */\n      dup3\n        /* \"#utility.yul\":3777:3786   */\n      dup9\n        /* \"#utility.yul\":3773:3795   */\n      add\n        /* \"#utility.yul\":3742:3805   */\n      tag_82\n      jump\t// in\n    tag_168:\n        /* \"#utility.yul\":3732:3805   */\n      swap5\n      pop\n        /* \"#utility.yul\":3528:3815   */\n      pop\n        /* \"#utility.yul\":3854:3856   */\n      0x20\n        /* \"#utility.yul\":3880:3933   */\n      tag_169\n        /* \"#utility.yul\":3925:3932   */\n      dup8\n        /* \"#utility.yul\":3916:3922   */\n      dup3\n        /* \"#utility.yul\":3905:3914   */\n      dup9\n        /* \"#utility.yul\":3901:3923   */\n      add\n        /* \"#utility.yul\":3880:3933   */\n      tag_84\n      jump\t// in\n    tag_169:\n        /* \"#utility.yul\":3870:3933   */\n      swap4\n      pop\n        /* \"#utility.yul\":3825:3943   */\n      pop\n        /* \"#utility.yul\":3982:3984   */\n      0x40\n        /* \"#utility.yul\":4008:4061   */\n      tag_170\n        /* \"#utility.yul\":4053:4060   */\n      dup8\n        /* \"#utility.yul\":4044:4050   */\n      dup3\n        /* \"#utility.yul\":4033:4042   */\n      dup9\n        /* \"#utility.yul\":4029:4051   */\n      add\n        /* \"#utility.yul\":4008:4061   */\n      tag_84\n      jump\t// in\n    tag_170:\n        /* \"#utility.yul\":3998:4061   */\n      swap3\n      pop\n        /* \"#utility.yul\":3953:4071   */\n      pop\n        /* \"#utility.yul\":4110:4112   */\n      0x60\n        /* \"#utility.yul\":4136:4189   */\n      tag_171\n        /* \"#utility.yul\":4181:4188   */\n      dup8\n        /* \"#utility.yul\":4172:4178   */\n      dup3\n        /* \"#utility.yul\":4161:4170   */\n      dup9\n        /* \"#utility.yul\":4157:4179   */\n      add\n        /* \"#utility.yul\":4136:4189   */\n      tag_84\n      jump\t// in\n    tag_171:\n        /* \"#utility.yul\":4126:4189   */\n      swap2\n      pop\n        /* \"#utility.yul\":4081:4199   */\n      pop\n        /* \"#utility.yul\":3261:4206   */\n      swap3\n      swap6\n      swap2\n      swap5\n      pop\n      swap3\n      pop\n      jump\t// out\n        /* \"#utility.yul\":4212:4686   */\n    tag_19:\n        /* \"#utility.yul\":4280:4286   */\n      0x00\n        /* \"#utility.yul\":4288:4294   */\n      dup1\n        /* \"#utility.yul\":4337:4339   */\n      0x40\n        /* \"#utility.yul\":4325:4334   */\n      dup4\n        /* \"#utility.yul\":4316:4323   */\n      dup6\n        /* \"#utility.yul\":4312:4335   */\n      sub\n        /* \"#utility.yul\":4308:4340   */\n      slt\n        /* \"#utility.yul\":4305:4424   */\n      iszero\n      tag_173\n      jumpi\n        /* \"#utility.yul\":4343:4422   */\n      tag_174\n      tag_71\n      jump\t// in\n    tag_174:\n        /* \"#utility.yul\":4305:4424   */\n    tag_173:\n        /* \"#utility.yul\":4463:4464   */\n      0x00\n        /* \"#utility.yul\":4488:4541   */\n      tag_175\n        /* \"#utility.yul\":4533:4540   */\n      dup6\n        /* \"#utility.yul\":4524:4530   */\n      dup3\n        /* \"#utility.yul\":4513:4522   */\n      dup7\n        /* \"#utility.yul\":4509:4531   */\n      add\n        /* \"#utility.yul\":4488:4541   */\n      tag_84\n      jump\t// in\n    tag_175:\n        /* \"#utility.yul\":4478:4541   */\n      swap3\n      pop\n        /* \"#utility.yul\":4434:4551   */\n      pop\n        /* \"#utility.yul\":4590:4592   */\n      0x20\n        /* \"#utility.yul\":4616:4669   */\n      tag_176\n        /* \"#utility.yul\":4661:4668   */\n      dup6\n        /* \"#utility.yul\":4652:4658   */\n      dup3\n        /* \"#utility.yul\":4641:4650   */\n      dup7\n        /* \"#utility.yul\":4637:4659   */\n      add\n        /* \"#utility.yul\":4616:4669   */\n      tag_84\n      jump\t// in\n    tag_176:\n        /* \"#utility.yul\":4606:4669   */\n      swap2\n      pop\n        /* \"#utility.yul\":4561:4679   */\n      pop\n        /* \"#utility.yul\":4212:4686   */\n      swap3\n      pop\n      swap3\n      swap1\n      pop\n      jump\t// out\n        /* \"#utility.yul\":4692:4818   */\n    tag_85:\n        /* \"#utility.yul\":4729:4736   */\n      0x00\n        /* \"#utility.yul\":4769:4811   */\n      0xffffffffffffffffffffffffffffffffffffffff\n        /* \"#utility.yul\":4762:4767   */\n      dup3\n        /* \"#utility.yul\":4758:4812   */\n      and\n        /* \"#utility.yul\":4747:4812   */\n      swap1\n      pop\n        /* \"#utility.yul\":4692:4818   */\n      swap2\n      swap1\n      pop\n      jump\t// out\n        /* \"#utility.yul\":4824:4920   */\n    tag_86:\n        /* \"#utility.yul\":4861:4868   */\n      0x00\n        /* \"#utility.yul\":4890:4914   */\n      tag_179\n        /* \"#utility.yul\":4908:4913   */\n      dup3\n        /* \"#utility.yul\":4890:4914   */\n      tag_85\n      jump\t// in\n    tag_179:\n        /* \"#utility.yul\":4879:4914   */\n      swap1\n      pop\n        /* \"#utility.yul\":4824:4920   */\n      swap2\n      swap1\n      pop\n      jump\t// out\n        /* \"#utility.yul\":4926:5048   */\n    tag_87:\n        /* \"#utility.yul\":4999:5023   */\n      tag_181\n        /* \"#utility.yul\":5017:5022   */\n      dup2\n        /* \"#utility.yul\":4999:5023   */\n      tag_86\n      jump\t// in\n    tag_181:\n        /* \"#utility.yul\":4992:4997   */\n      dup2\n        /* \"#utility.yul\":4989:5024   */\n      eq\n        /* \"#utility.yul\":4979:5042   */\n      tag_182\n      jumpi\n        /* \"#utility.yul\":5038:5039   */\n      0x00\n        /* \"#utility.yul\":5035:5036   */\n      dup1\n        /* \"#utility.yul\":5028:5040   */\n      revert\n        /* \"#utility.yul\":4979:5042   */\n    tag_182:\n        /* \"#utility.yul\":4926:5048   */\n      pop\n      jump\t// out\n        /* \"#utility.yul\":5054:5193   */\n    tag_88:\n        /* \"#utility.yul\":5100:5105   */\n      0x00\n        /* \"#utility.yul\":5138:5144   */\n      dup2\n        /* \"#utility.yul\":5125:5145   */\n      calldataload\n        /* \"#utility.yul\":5116:5145   */\n      swap1\n      pop\n        /* \"#utility.yul\":5154:5187   */\n      tag_184\n        /* \"#utility.yul\":5181:5186   */\n      dup2\n        /* \"#utility.yul\":5154:5187   */\n      tag_87\n      jump\t// in\n    tag_184:\n        /* \"#utility.yul\":5054:5193   */\n      swap3\n      swap2\n      pop\n      pop\n      jump\t// out\n        /* \"#utility.yul\":5199:5673   */\n    tag_24:\n        /* \"#utility.yul\":5267:5273   */\n      0x00\n        /* \"#utility.yul\":5275:5281   */\n      dup1\n        /* \"#utility.yul\":5324:5326   */\n      0x40\n        /* \"#utility.yul\":5312:5321   */\n      dup4\n        /* \"#utility.yul\":5303:5310   */\n      dup6\n        /* \"#utility.yul\":5299:5322   */\n      sub\n        /* \"#utility.yul\":5295:5327   */\n      slt\n        /* \"#utility.yul\":5292:5411   */\n      iszero\n      tag_186\n      jumpi\n        /* \"#utility.yul\":5330:5409   */\n      tag_187\n      tag_71\n      jump\t// in\n    tag_187:\n        /* \"#utility.yul\":5292:5411   */\n    tag_186:\n        /* \"#utility.yul\":5450:5451   */\n      0x00\n        /* \"#utility.yul\":5475:5528   */\n      tag_188\n        /* \"#utility.yul\":5520:5527   */\n      dup6\n        /* \"#utility.yul\":5511:5517   */\n      dup3\n        /* \"#utility.yul\":5500:5509   */\n      dup7\n        /* \"#utility.yul\":5496:5518   */\n      add\n        /* \"#utility.yul\":5475:5528   */\n      tag_88\n      jump\t// in\n    tag_188:\n        /* \"#utility.yul\":5465:5528   */\n      swap3\n      pop\n        /* \"#utility.yul\":5421:5538   */\n      pop\n        /* \"#utility.yul\":5577:5579   */\n      0x20\n        /* \"#utility.yul\":5603:5656   */\n      tag_189\n        /* \"#utility.yul\":5648:5655   */\n      dup6\n        /* \"#utility.yul\":5639:5645   */\n      dup3\n        /* \"#utility.yul\":5628:5637   */\n      dup7\n        /* \"#utility.yul\":5624:5646   */\n      add\n        /* \"#utility.yul\":5603:5656   */\n      tag_84\n      jump\t// in\n    tag_189:\n        /* \"#utility.yul\":5593:5656   */\n      swap2\n      pop\n        /* \"#utility.yul\":5548:5666   */\n      pop\n        /* \"#utility.yul\":5199:5673   */\n      swap3\n      pop\n      swap3\n      swap1\n      pop\n      jump\t// out\n        /* \"#utility.yul\":5679:6008   */\n    tag_30:\n        /* \"#utility.yul\":5738:5744   */\n      0x00\n        /* \"#utility.yul\":5787:5789   */\n      0x20\n        /* \"#utility.yul\":5775:5784   */\n      dup3\n        /* \"#utility.yul\":5766:5773   */\n      dup5\n        /* \"#utility.yul\":5762:5785   */\n      sub\n        /* \"#utility.yul\":5758:5790   */\n      slt\n        /* \"#utility.yul\":5755:5874   */\n      iszero\n      tag_191\n      jumpi\n        /* \"#utility.yul\":5793:5872   */\n      tag_192\n      tag_71\n      jump\t// in\n    tag_192:\n        /* \"#utility.yul\":5755:5874   */\n    tag_191:\n        /* \"#utility.yul\":5913:5914   */\n      0x00\n        /* \"#utility.yul\":5938:5991   */\n      tag_193\n        /* \"#utility.yul\":5983:5990   */\n      dup5\n        /* \"#utility.yul\":5974:5980   */\n      dup3\n        /* \"#utility.yul\":5963:5972   */\n      dup6\n        /* \"#utility.yul\":5959:5981   */\n      add\n        /* \"#utility.yul\":5938:5991   */\n      tag_84\n      jump\t// in\n    tag_193:\n        /* \"#utility.yul\":5928:5991   */\n      swap2\n      pop\n        /* \"#utility.yul\":5884:6001   */\n      pop\n        /* \"#utility.yul\":5679:6008   */\n      swap3\n      swap2\n      pop\n      pop\n      jump\t// out\n        /* \"#utility.yul\":6014:6132   */\n    tag_89:\n        /* \"#utility.yul\":6101:6125   */\n      tag_195\n        /* \"#utility.yul\":6119:6124   */\n      dup2\n        /* \"#utility.yul\":6101:6125   */\n      tag_86\n      jump\t// in\n    tag_195:\n        /* \"#utility.yul\":6096:6099   */\n      dup3\n        /* \"#utility.yul\":6089:6126   */\n      mstore\n        /* \"#utility.yul\":6014:6132   */\n      pop\n      pop\n      jump\t// out\n        /* \"#utility.yul\":6138:6237   */\n    tag_90:\n        /* \"#utility.yul\":6190:6196   */\n      0x00\n        /* \"#utility.yul\":6224:6229   */\n      dup2\n        /* \"#utility.yul\":6218:6230   */\n      mload\n        /* \"#utility.yul\":6208:6230   */\n      swap1\n      pop\n        /* \"#utility.yul\":6138:6237   */\n      swap2\n      swap1\n      pop\n      jump\t// out\n        /* \"#utility.yul\":6243:6412   */\n    tag_91:\n        /* \"#utility.yul\":6327:6338   */\n      0x00\n        /* \"#utility.yul\":6361:6367   */\n      dup3\n        /* \"#utility.yul\":6356:6359   */\n      dup3\n        /* \"#utility.yul\":6349:6368   */\n      mstore\n        /* \"#utility.yul\":6401:6405   */\n      0x20\n        /* \"#utility.yul\":6396:6399   */\n      dup3\n        /* \"#utility.yul\":6392:6406   */\n      add\n        /* \"#utility.yul\":6377:6406   */\n      swap1\n      pop\n        /* \"#utility.yul\":6243:6412   */\n      swap3\n      swap2\n      pop\n      pop\n      jump\t// out\n        /* \"#utility.yul\":6418:6664   */\n    tag_92:\n        /* \"#utility.yul\":6499:6500   */\n      0x00\n        /* \"#utility.yul\":6509:6622   */\n    tag_199:\n        /* \"#utility.yul\":6523:6529   */\n      dup4\n        /* \"#utility.yul\":6520:6521   */\n      dup2\n        /* \"#utility.yul\":6517:6530   */\n      lt\n        /* \"#utility.yul\":6509:6622   */\n      iszero\n      tag_201\n      jumpi\n        /* \"#utility.yul\":6608:6609   */\n      dup1\n        /* \"#utility.yul\":6603:6606   */\n      dup3\n        /* \"#utility.yul\":6599:6610   */\n      add\n        /* \"#utility.yul\":6593:6611   */\n      mload\n        /* \"#utility.yul\":6589:6590   */\n      dup2\n        /* \"#utility.yul\":6584:6587   */\n      dup5\n        /* \"#utility.yul\":6580:6591   */\n      add\n        /* \"#utility.yul\":6573:6612   */\n      mstore\n        /* \"#utility.yul\":6545:6547   */\n      0x20\n        /* \"#utility.yul\":6542:6543   */\n      dup2\n        /* \"#utility.yul\":6538:6548   */\n      add\n        /* \"#utility.yul\":6533:6548   */\n      swap1\n      pop\n        /* \"#utility.yul\":6509:6622   */\n      jump(tag_199)\n    tag_201:\n        /* \"#utility.yul\":6656:6657   */\n      0x00\n        /* \"#utility.yul\":6647:6653   */\n      dup5\n        /* \"#utility.yul\":6642:6645   */\n      dup5\n        /* \"#utility.yul\":6638:6654   */\n      add\n        /* \"#utility.yul\":6631:6658   */\n      mstore\n        /* \"#utility.yul\":6480:6664   */\n      pop\n        /* \"#utility.yul\":6418:6664   */\n      pop\n      pop\n      pop\n      jump\t// out\n        /* \"#utility.yul\":6670:7047   */\n    tag_93:\n        /* \"#utility.yul\":6758:6761   */\n      0x00\n        /* \"#utility.yul\":6786:6825   */\n      tag_203\n        /* \"#utility.yul\":6819:6824   */\n      dup3\n        /* \"#utility.yul\":6786:6825   */\n      tag_90\n      jump\t// in\n    tag_203:\n        /* \"#utility.yul\":6841:6912   */\n      tag_204\n        /* \"#utility.yul\":6905:6911   */\n      dup2\n        /* \"#utility.yul\":6900:6903   */\n      dup6\n        /* \"#utility.yul\":6841:6912   */\n      tag_91\n      jump\t// in\n    tag_204:\n        /* \"#utility.yul\":6834:6912   */\n      swap4\n      pop\n        /* \"#utility.yul\":6921:6986   */\n      tag_205\n        /* \"#utility.yul\":6979:6985   */\n      dup2\n        /* \"#utility.yul\":6974:6977   */\n      dup6\n        /* \"#utility.yul\":6967:6971   */\n      0x20\n        /* \"#utility.yul\":6960:6965   */\n      dup7\n        /* \"#utility.yul\":6956:6972   */\n      add\n        /* \"#utility.yul\":6921:6986   */\n      tag_92\n      jump\t// in\n    tag_205:\n        /* \"#utility.yul\":7011:7040   */\n      tag_206\n        /* \"#utility.yul\":7033:7039   */\n      dup2\n        /* \"#utility.yul\":7011:7040   */\n      tag_75\n      jump\t// in\n    tag_206:\n        /* \"#utility.yul\":7006:7009   */\n      dup5\n        /* \"#utility.yul\":7002:7041   */\n      add\n        /* \"#utility.yul\":6995:7041   */\n      swap2\n      pop\n        /* \"#utility.yul\":6762:7047   */\n      pop\n        /* \"#utility.yul\":6670:7047   */\n      swap3\n      swap2\n      pop\n      pop\n      jump\t// out\n        /* \"#utility.yul\":7053:7919   */\n    tag_33:\n        /* \"#utility.yul\":7306:7310   */\n      0x00\n        /* \"#utility.yul\":7344:7347   */\n      0xc0\n        /* \"#utility.yul\":7333:7342   */\n      dup3\n        /* \"#utility.yul\":7329:7348   */\n      add\n        /* \"#utility.yul\":7321:7348   */\n      swap1\n      pop\n        /* \"#utility.yul\":7358:7429   */\n      tag_208\n        /* \"#utility.yul\":7426:7427   */\n      0x00\n        /* \"#utility.yul\":7415:7424   */\n      dup4\n        /* \"#utility.yul\":7411:7428   */\n      add\n        /* \"#utility.yul\":7402:7408   */\n      dup10\n        /* \"#utility.yul\":7358:7429   */\n      tag_89\n      jump\t// in\n    tag_208:\n        /* \"#utility.yul\":7476:7485   */\n      dup2\n        /* \"#utility.yul\":7470:7474   */\n      dup2\n        /* \"#utility.yul\":7466:7486   */\n      sub\n        /* \"#utility.yul\":7461:7463   */\n      0x20\n        /* \"#utility.yul\":7450:7459   */\n      dup4\n        /* \"#utility.yul\":7446:7464   */\n      add\n        /* \"#utility.yul\":7439:7487   */\n      mstore\n        /* \"#utility.yul\":7504:7582   */\n      tag_209\n        /* \"#utility.yul\":7577:7581   */\n      dup2\n        /* \"#utility.yul\":7568:7574   */\n      dup9\n        /* \"#utility.yul\":7504:7582   */\n      tag_93\n      jump\t// in\n    tag_209:\n        /* \"#utility.yul\":7496:7582   */\n      swap1\n      pop\n        /* \"#utility.yul\":7592:7664   */\n      tag_210\n        /* \"#utility.yul\":7660:7662   */\n      0x40\n        /* \"#utility.yul\":7649:7658   */\n      dup4\n        /* \"#utility.yul\":7645:7663   */\n      add\n        /* \"#utility.yul\":7636:7642   */\n      dup8\n        /* \"#utility.yul\":7592:7664   */\n      tag_69\n      jump\t// in\n    tag_210:\n        /* \"#utility.yul\":7674:7746   */\n      tag_211\n        /* \"#utility.yul\":7742:7744   */\n      0x60\n        /* \"#utility.yul\":7731:7740   */\n      dup4\n        /* \"#utility.yul\":7727:7745   */\n      add\n        /* \"#utility.yul\":7718:7724   */\n      dup7\n        /* \"#utility.yul\":7674:7746   */\n      tag_69\n      jump\t// in\n    tag_211:\n        /* \"#utility.yul\":7756:7829   */\n      tag_212\n        /* \"#utility.yul\":7824:7827   */\n      0x80\n        /* \"#utility.yul\":7813:7822   */\n      dup4\n        /* \"#utility.yul\":7809:7828   */\n      add\n        /* \"#utility.yul\":7800:7806   */\n      dup6\n        /* \"#utility.yul\":7756:7829   */\n      tag_69\n      jump\t// in\n    tag_212:\n        /* \"#utility.yul\":7839:7912   */\n      tag_213\n        /* \"#utility.yul\":7907:7910   */\n      0xa0\n        /* \"#utility.yul\":7896:7905   */\n      dup4\n        /* \"#utility.yul\":7892:7911   */\n      add\n        /* \"#utility.yul\":7883:7889   */\n      dup5\n        /* \"#utility.yul\":7839:7912   */\n      tag_69\n      jump\t// in\n    tag_213:\n        /* \"#utility.yul\":7053:7919   */\n      swap8\n      swap7\n      pop\n      pop\n      pop\n      pop\n      pop\n      pop\n      pop\n      jump\t// out\n        /* \"#utility.yul\":7925:8156   */\n    tag_94:\n        /* \"#utility.yul\":8065:8099   */\n      0x506c65617365206f7267616e697a6520776f726b73686f7020666f7220667574\n        /* \"#utility.yul\":8061:8062   */\n      0x00\n        /* \"#utility.yul\":8053:8059   */\n      dup3\n        /* \"#utility.yul\":8049:8063   */\n      add\n        /* \"#utility.yul\":8042:8100   */\n      mstore\n        /* \"#utility.yul\":8134:8148   */\n      0x7572652074696d65736c6f740000000000000000000000000000000000000000\n        /* \"#utility.yul\":8129:8131   */\n      0x20\n        /* \"#utility.yul\":8121:8127   */\n      dup3\n        /* \"#utility.yul\":8117:8132   */\n      add\n        /* \"#utility.yul\":8110:8149   */\n      mstore\n        /* \"#utility.yul\":7925:8156   */\n      pop\n      jump\t// out\n        /* \"#utility.yul\":8162:8528   */\n    tag_95:\n        /* \"#utility.yul\":8304:8307   */\n      0x00\n        /* \"#utility.yul\":8325:8392   */\n      tag_216\n        /* \"#utility.yul\":8389:8391   */\n      0x2c\n        /* \"#utility.yul\":8384:8387   */\n      dup4\n        /* \"#utility.yul\":8325:8392   */\n      tag_91\n      jump\t// in\n    tag_216:\n        /* \"#utility.yul\":8318:8392   */\n      swap2\n      pop\n        /* \"#utility.yul\":8401:8494   */\n      tag_217\n        /* \"#utility.yul\":8490:8493   */\n      dup3\n        /* \"#utility.yul\":8401:8494   */\n      tag_94\n      jump\t// in\n    tag_217:\n        /* \"#utility.yul\":8519:8521   */\n      0x40\n        /* \"#utility.yul\":8514:8517   */\n      dup3\n        /* \"#utility.yul\":8510:8522   */\n      add\n        /* \"#utility.yul\":8503:8522   */\n      swap1\n      pop\n        /* \"#utility.yul\":8162:8528   */\n      swap2\n      swap1\n      pop\n      jump\t// out\n        /* \"#utility.yul\":8534:8953   */\n    tag_37:\n        /* \"#utility.yul\":8700:8704   */\n      0x00\n        /* \"#utility.yul\":8738:8740   */\n      0x20\n        /* \"#utility.yul\":8727:8736   */\n      dup3\n        /* \"#utility.yul\":8723:8741   */\n      add\n        /* \"#utility.yul\":8715:8741   */\n      swap1\n      pop\n        /* \"#utility.yul\":8787:8796   */\n      dup2\n        /* \"#utility.yul\":8781:8785   */\n      dup2\n        /* \"#utility.yul\":8777:8797   */\n      sub\n        /* \"#utility.yul\":8773:8774   */\n      0x00\n        /* \"#utility.yul\":8762:8771   */\n      dup4\n        /* \"#utility.yul\":8758:8775   */\n      add\n        /* \"#utility.yul\":8751:8798   */\n      mstore\n        /* \"#utility.yul\":8815:8946   */\n      tag_219\n        /* \"#utility.yul\":8941:8945   */\n      dup2\n        /* \"#utility.yul\":8815:8946   */\n      tag_95\n      jump\t// in\n    tag_219:\n        /* \"#utility.yul\":8807:8946   */\n      swap1\n      pop\n        /* \"#utility.yul\":8534:8953   */\n      swap2\n      swap1\n      pop\n      jump\t// out\n        /* \"#utility.yul\":8959:9132   */\n    tag_96:\n        /* \"#utility.yul\":9099:9124   */\n      0x73656174436f756e74206e6f7420737065636966696564000000000000000000\n        /* \"#utility.yul\":9095:9096   */\n      0x00\n        /* \"#utility.yul\":9087:9093   */\n      dup3\n        /* \"#utility.yul\":9083:9097   */\n      add\n        /* \"#utility.yul\":9076:9125   */\n      mstore\n        /* \"#utility.yul\":8959:9132   */\n      pop\n      jump\t// out\n        /* \"#utility.yul\":9138:9504   */\n    tag_97:\n        /* \"#utility.yul\":9280:9283   */\n      0x00\n        /* \"#utility.yul\":9301:9368   */\n      tag_222\n        /* \"#utility.yul\":9365:9367   */\n      0x17\n        /* \"#utility.yul\":9360:9363   */\n      dup4\n        /* \"#utility.yul\":9301:9368   */\n      tag_91\n      jump\t// in\n    tag_222:\n        /* \"#utility.yul\":9294:9368   */\n      swap2\n      pop\n        /* \"#utility.yul\":9377:9470   */\n      tag_223\n        /* \"#utility.yul\":9466:9469   */\n      dup3\n        /* \"#utility.yul\":9377:9470   */\n      tag_96\n      jump\t// in\n    tag_223:\n        /* \"#utility.yul\":9495:9497   */\n      0x20\n        /* \"#utility.yul\":9490:9493   */\n      dup3\n        /* \"#utility.yul\":9486:9498   */\n      add\n        /* \"#utility.yul\":9479:9498   */\n      swap1\n      pop\n        /* \"#utility.yul\":9138:9504   */\n      swap2\n      swap1\n      pop\n      jump\t// out\n        /* \"#utility.yul\":9510:9929   */\n    tag_40:\n        /* \"#utility.yul\":9676:9680   */\n      0x00\n        /* \"#utility.yul\":9714:9716   */\n      0x20\n        /* \"#utility.yul\":9703:9712   */\n      dup3\n        /* \"#utility.yul\":9699:9717   */\n      add\n        /* \"#utility.yul\":9691:9717   */\n      swap1\n      pop\n        /* \"#utility.yul\":9763:9772   */\n      dup2\n        /* \"#utility.yul\":9757:9761   */\n      dup2\n        /* \"#utility.yul\":9753:9773   */\n      sub\n        /* \"#utility.yul\":9749:9750   */\n      0x00\n        /* \"#utility.yul\":9738:9747   */\n      dup4\n        /* \"#utility.yul\":9734:9751   */\n      add\n        /* \"#utility.yul\":9727:9774   */\n      mstore\n        /* \"#utility.yul\":9791:9922   */\n      tag_225\n        /* \"#utility.yul\":9917:9921   */\n      dup2\n        /* \"#utility.yul\":9791:9922   */\n      tag_97\n      jump\t// in\n    tag_225:\n        /* \"#utility.yul\":9783:9922   */\n      swap1\n      pop\n        /* \"#utility.yul\":9510:9929   */\n      swap2\n      swap1\n      pop\n      jump\t// out\n        /* \"#utility.yul\":9935:10115   */\n    tag_98:\n        /* \"#utility.yul\":9983:10060   */\n      0x4e487b7100000000000000000000000000000000000000000000000000000000\n        /* \"#utility.yul\":9980:9981   */\n      0x00\n        /* \"#utility.yul\":9973:10061   */\n      mstore\n        /* \"#utility.yul\":10080:10084   */\n      0x22\n        /* \"#utility.yul\":10077:10078   */\n      0x04\n        /* \"#utility.yul\":10070:10085   */\n      mstore\n        /* \"#utility.yul\":10104:10108   */\n      0x24\n        /* \"#utility.yul\":10101:10102   */\n      0x00\n        /* \"#utility.yul\":10094:10109   */\n      revert\n        /* \"#utility.yul\":10121:10441   */\n    tag_63:\n        /* \"#utility.yul\":10165:10171   */\n      0x00\n        /* \"#utility.yul\":10202:10203   */\n      0x02\n        /* \"#utility.yul\":10196:10200   */\n      dup3\n        /* \"#utility.yul\":10192:10204   */\n      div\n        /* \"#utility.yul\":10182:10204   */\n      swap1\n      pop\n        /* \"#utility.yul\":10249:10250   */\n      0x01\n        /* \"#utility.yul\":10243:10247   */\n      dup3\n        /* \"#utility.yul\":10239:10251   */\n      and\n        /* \"#utility.yul\":10270:10288   */\n      dup1\n        /* \"#utility.yul\":10260:10341   */\n      tag_228\n      jumpi\n        /* \"#utility.yul\":10326:10330   */\n      0x7f\n        /* \"#utility.yul\":10318:10324   */\n      dup3\n        /* \"#utility.yul\":10314:10331   */\n      and\n        /* \"#utility.yul\":10304:10331   */\n      swap2\n      pop\n        /* \"#utility.yul\":10260:10341   */\n    tag_228:\n        /* \"#utility.yul\":10388:10390   */\n      0x20\n        /* \"#utility.yul\":10380:10386   */\n      dup3\n        /* \"#utility.yul\":10377:10391   */\n      lt\n        /* \"#utility.yul\":10357:10375   */\n      dup2\n        /* \"#utility.yul\":10354:10392   */\n      sub\n        /* \"#utility.yul\":10351:10435   */\n      tag_229\n      jumpi\n        /* \"#utility.yul\":10407:10425   */\n      tag_230\n      tag_98\n      jump\t// in\n    tag_230:\n        /* \"#utility.yul\":10351:10435   */\n    tag_229:\n        /* \"#utility.yul\":10172:10441   */\n      pop\n        /* \"#utility.yul\":10121:10441   */\n      swap2\n      swap1\n      pop\n      jump\t// out\n        /* \"#utility.yul\":10447:10588   */\n    tag_99:\n        /* \"#utility.yul\":10496:10500   */\n      0x00\n        /* \"#utility.yul\":10519:10522   */\n      dup2\n        /* \"#utility.yul\":10511:10522   */\n      swap1\n      pop\n        /* \"#utility.yul\":10542:10545   */\n      dup2\n        /* \"#utility.yul\":10539:10540   */\n      0x00\n        /* \"#utility.yul\":10532:10546   */\n      mstore\n        /* \"#utility.yul\":10576:10580   */\n      0x20\n        /* \"#utility.yul\":10573:10574   */\n      0x00\n        /* \"#utility.yul\":10563:10581   */\n      keccak256\n        /* \"#utility.yul\":10555:10581   */\n      swap1\n      pop\n        /* \"#utility.yul\":10447:10588   */\n      swap2\n      swap1\n      pop\n      jump\t// out\n        /* \"#utility.yul\":10594:10687   */\n    tag_100:\n        /* \"#utility.yul\":10631:10637   */\n      0x00\n        /* \"#utility.yul\":10678:10680   */\n      0x20\n        /* \"#utility.yul\":10673:10675   */\n      0x1f\n        /* \"#utility.yul\":10666:10671   */\n      dup4\n        /* \"#utility.yul\":10662:10676   */\n      add\n        /* \"#utility.yul\":10658:10681   */\n      div\n        /* \"#utility.yul\":10648:10681   */\n      swap1\n      pop\n        /* \"#utility.yul\":10594:10687   */\n      swap2\n      swap1\n      pop\n      jump\t// out\n        /* \"#utility.yul\":10693:10800   */\n    tag_101:\n        /* \"#utility.yul\":10737:10745   */\n      0x00\n        /* \"#utility.yul\":10787:10792   */\n      dup3\n        /* \"#utility.yul\":10781:10785   */\n      dup3\n        /* \"#utility.yul\":10777:10793   */\n      shl\n        /* \"#utility.yul\":10756:10793   */\n      swap1\n      pop\n        /* \"#utility.yul\":10693:10800   */\n      swap3\n      swap2\n      pop\n      pop\n      jump\t// out\n        /* \"#utility.yul\":10806:11199   */\n    tag_102:\n        /* \"#utility.yul\":10875:10881   */\n      0x00\n        /* \"#utility.yul\":10925:10926   */\n      0x08\n        /* \"#utility.yul\":10913:10923   */\n      dup4\n        /* \"#utility.yul\":10909:10927   */\n      mul\n        /* \"#utility.yul\":10948:11045   */\n      tag_235\n        /* \"#utility.yul\":10978:11044   */\n      0xffffffffffffffffffffffffffffffffffffffffffffffffffffffffffffffff\n        /* \"#utility.yul\":10967:10976   */\n      dup3\n        /* \"#utility.yul\":10948:11045   */\n      tag_101\n      jump\t// in\n    tag_235:\n        /* \"#utility.yul\":11066:11105   */\n      tag_236\n        /* \"#utility.yul\":11096:11104   */\n      dup7\n        /* \"#utility.yul\":11085:11094   */\n      dup4\n        /* \"#utility.yul\":11066:11105   */\n      tag_101\n      jump\t// in\n    tag_236:\n        /* \"#utility.yul\":11054:11105   */\n      swap6\n      pop\n        /* \"#utility.yul\":11138:11142   */\n      dup1\n        /* \"#utility.yul\":11134:11143   */\n      not\n        /* \"#utility.yul\":11127:11132   */\n      dup5\n        /* \"#utility.yul\":11123:11144   */\n      and\n        /* \"#utility.yul\":11114:11144   */\n      swap4\n      pop\n        /* \"#utility.yul\":11187:11191   */\n      dup1\n        /* \"#utility.yul\":11177:11185   */\n      dup7\n        /* \"#utility.yul\":11173:11192   */\n      and\n        /* \"#utility.yul\":11166:11171   */\n      dup5\n        /* \"#utility.yul\":11163:11193   */\n      or\n        /* \"#utility.yul\":11153:11193   */\n      swap3\n      pop\n        /* \"#utility.yul\":10882:11199   */\n      pop\n      pop\n        /* \"#utility.yul\":10806:11199   */\n      swap4\n      swap3\n      pop\n      pop\n      pop\n      jump\t// out\n        /* \"#utility.yul\":11205:11265   */\n    tag_103:\n        /* \"#utility.yul\":11233:11236   */\n      0x00\n        /* \"#utility.yul\":11254:11259   */\n      dup2\n        /* \"#utility.yul\":11247:11259   */\n      swap1\n      pop\n        /* \"#utility.yul\":11205:11265   */\n      swap2\n      swap1\n      pop\n      jump\t// out\n        /* \"#utility.yul\":11271:11413   */\n    tag_104:\n        /* \"#utility.yul\":11321:11330   */\n      0x00\n        /* \"#utility.yul\":11354:11407   */\n      tag_239\n        /* \"#utility.yul\":11372:11406   */\n      tag_240\n        /* \"#utility.yul\":11381:11405   */\n      tag_241\n        /* \"#utility.yul\":11399:11404   */\n      dup5\n        /* \"#utility.yul\":11381:11405   */\n      tag_68\n      jump\t// in\n    tag_241:\n        /* \"#utility.yul\":11372:11406   */\n      tag_103\n      jump\t// in\n    tag_240:\n        /* \"#utility.yul\":11354:11407   */\n      tag_68\n      jump\t// in\n    tag_239:\n        /* \"#utility.yul\":11341:11407   */\n      swap1\n      pop\n        /* \"#utility.yul\":11271:11413   */\n      swap2\n      swap1\n      pop\n      jump\t// out\n        /* \"#utility.yul\":11419:11494   */\n    tag_105:\n        /* \"#utility.yul\":11462:11465   */\n      0x00\n        /* \"#utility.yul\":11483:11488   */\n      dup2\n        /* \"#utility.yul\":11476:11488   */\n      swap1\n      pop\n        /* \"#utility.yul\":11419:11494   */\n      swap2\n      swap1\n      pop\n      jump\t// out\n        /* \"#utility.yul\":11500:11769   */\n    tag_106:\n        /* \"#utility.yul\":11610:11649   */\n      tag_244\n        /* \"#utility.yul\":11641:11648   */\n      dup4\n        /* \"#utility.yul\":11610:11649   */\n      tag_104\n      jump\t// in\n    tag_244:\n        /* \"#utility.yul\":11671:11762   */\n      tag_245\n        /* \"#utility.yul\":11720:11761   */\n      tag_246\n        /* \"#utility.yul\":11744:11760   */\n      dup3\n        /* \"#utility.yul\":11720:11761   */\n      tag_105\n      jump\t// in\n    tag_246:\n        /* \"#utility.yul\":11712:11718   */\n      dup5\n        /* \"#utility.yul\":11705:11709   */\n      dup5\n        /* \"#utility.yul\":11699:11710   */\n      sload\n        /* \"#utility.yul\":11671:11762   */\n      tag_102\n      jump\t// in\n    tag_245:\n        /* \"#utility.yul\":11665:11669   */\n      dup3\n        /* \"#utility.yul\":11658:11763   */\n      sstore\n        /* \"#utility.yul\":11576:11769   */\n      pop\n        /* \"#utility.yul\":11500:11769   */\n      pop\n      pop\n      pop\n      jump\t// out\n        /* \"#utility.yul\":11775:11848   */\n    tag_107:\n        /* \"#utility.yul\":11820:11823   */\n      0x00\n        /* \"#utility.yul\":11775:11848   */\n      swap1\n      jump\t// out\n        /* \"#utility.yul\":11854:12043   */\n    tag_108:\n        /* \"#utility.yul\":11931:11963   */\n      tag_249\n      tag_107\n      jump\t// in\n    tag_249:\n        /* \"#utility.yul\":11972:12037   */\n      tag_250\n        /* \"#utility.yul\":12030:12036   */\n      dup2\n        /* \"#utility.yul\":12022:12028   */\n      dup5\n        /* \"#utility.yul\":12016:12020   */\n      dup5\n        /* \"#utility.yul\":11972:12037   */\n      tag_106\n      jump\t// in\n    tag_250:\n        /* \"#utility.yul\":11907:12043   */\n      pop\n        /* \"#utility.yul\":11854:12043   */\n      pop\n      pop\n      jump\t// out\n        /* \"#utility.yul\":12049:12235   */\n    tag_109:\n        /* \"#utility.yul\":12109:12229   */\n    tag_252:\n        /* \"#utility.yul\":12126:12129   */\n      dup2\n        /* \"#utility.yul\":12119:12124   */\n      dup2\n        /* \"#utility.yul\":12116:12130   */\n      lt\n        /* \"#utility.yul\":12109:12229   */\n      iszero\n      tag_254\n      jumpi\n        /* \"#utility.yul\":12180:12219   */\n      tag_255\n        /* \"#utility.yul\":12217:12218   */\n      0x00\n        /* \"#utility.yul\":12210:12215   */\n      dup3\n        /* \"#utility.yul\":12180:12219   */\n      tag_108\n      jump\t// in\n    tag_255:\n        /* \"#utility.yul\":12153:12154   */\n      0x01\n        /* \"#utility.yul\":12146:12151   */\n      dup2\n        /* \"#utility.yul\":12142:12155   */\n      add\n        /* \"#utility.yul\":12133:12155   */\n      swap1\n      pop\n        /* \"#utility.yul\":12109:12229   */\n      jump(tag_252)\n    tag_254:\n        /* \"#utility.yul\":12049:12235   */\n      pop\n      pop\n      jump\t// out\n        /* \"#utility.yul\":12241:12784   */\n    tag_110:\n        /* \"#utility.yul\":12342:12344   */\n      0x1f\n        /* \"#utility.yul\":12337:12340   */\n      dup3\n        /* \"#utility.yul\":12334:12345   */\n      gt\n        /* \"#utility.yul\":12331:12777   */\n      iszero\n      tag_257\n      jumpi\n        /* \"#utility.yul\":12376:12414   */\n      tag_258\n        /* \"#utility.yul\":12408:12413   */\n      dup2\n        /* \"#utility.yul\":12376:12414   */\n      tag_99\n      jump\t// in\n    tag_258:\n        /* \"#utility.yul\":12460:12489   */\n      tag_259\n        /* \"#utility.yul\":12478:12488   */\n      dup5\n        /* \"#utility.yul\":12460:12489   */\n      tag_100\n      jump\t// in\n    tag_259:\n        /* \"#utility.yul\":12450:12458   */\n      dup2\n        /* \"#utility.yul\":12446:12490   */\n      add\n        /* \"#utility.yul\":12643:12645   */\n      0x20\n        /* \"#utility.yul\":12631:12641   */\n      dup6\n        /* \"#utility.yul\":12628:12646   */\n      lt\n        /* \"#utility.yul\":12625:12674   */\n      iszero\n      tag_260\n      jumpi\n        /* \"#utility.yul\":12664:12672   */\n      dup2\n        /* \"#utility.yul\":12649:12672   */\n      swap1\n      pop\n        /* \"#utility.yul\":12625:12674   */\n    tag_260:\n        /* \"#utility.yul\":12687:12767   */\n      tag_261\n        /* \"#utility.yul\":12743:12765   */\n      tag_262\n        /* \"#utility.yul\":12761:12764   */\n      dup6\n        /* \"#utility.yul\":12743:12765   */\n      tag_100\n      jump\t// in\n    tag_262:\n        /* \"#utility.yul\":12733:12741   */\n      dup4\n        /* \"#utility.yul\":12729:12766   */\n      add\n        /* \"#utility.yul\":12716:12727   */\n      dup3\n        /* \"#utility.yul\":12687:12767   */\n      tag_109\n      jump\t// in\n    tag_261:\n        /* \"#utility.yul\":12346:12777   */\n      pop\n      pop\n        /* \"#utility.yul\":12331:12777   */\n    tag_257:\n        /* \"#utility.yul\":12241:12784   */\n      pop\n      pop\n      pop\n      jump\t// out\n        /* \"#utility.yul\":12790:12907   */\n    tag_111:\n        /* \"#utility.yul\":12844:12852   */\n      0x00\n        /* \"#utility.yul\":12894:12899   */\n      dup3\n        /* \"#utility.yul\":12888:12892   */\n      dup3\n        /* \"#utility.yul\":12884:12900   */\n      shr\n        /* \"#utility.yul\":12863:12900   */\n      swap1\n      pop\n        /* \"#utility.yul\":12790:12907   */\n      swap3\n      swap2\n      pop\n      pop\n      jump\t// out\n        /* \"#utility.yul\":12913:13082   */\n    tag_112:\n        /* \"#utility.yul\":12957:12963   */\n      0x00\n        /* \"#utility.yul\":12990:13041   */\n      tag_265\n        /* \"#utility.yul\":13038:13039   */\n      0x00\n        /* \"#utility.yul\":13034:13040   */\n      not\n        /* \"#utility.yul\":13026:13031   */\n      dup5\n        /* \"#utility.yul\":13023:13024   */\n      0x08\n        /* \"#utility.yul\":13019:13032   */\n      mul\n        /* \"#utility.yul\":12990:13041   */\n      tag_111\n      jump\t// in\n    tag_265:\n        /* \"#utility.yul\":12986:13042   */\n      not\n        /* \"#utility.yul\":13071:13075   */\n      dup1\n        /* \"#utility.yul\":13065:13069   */\n      dup4\n        /* \"#utility.yul\":13061:13076   */\n      and\n        /* \"#utility.yul\":13051:13076   */\n      swap2\n      pop\n        /* \"#utility.yul\":12964:13082   */\n      pop\n        /* \"#utility.yul\":12913:13082   */\n      swap3\n      swap2\n      pop\n      pop\n      jump\t// out\n        /* \"#utility.yul\":13087:13382   */\n    tag_113:\n        /* \"#utility.yul\":13163:13167   */\n      0x00\n        /* \"#utility.yul\":13309:13338   */\n      tag_267\n        /* \"#utility.yul\":13334:13337   */\n      dup4\n        /* \"#utility.yul\":13328:13332   */\n      dup4\n        /* \"#utility.yul\":13309:13338   */\n      tag_112\n      jump\t// in\n    tag_267:\n        /* \"#utility.yul\":13301:13338   */\n      swap2\n      pop\n        /* \"#utility.yul\":13371:13374   */\n      dup3\n        /* \"#utility.yul\":13368:13369   */\n      0x02\n        /* \"#utility.yul\":13364:13375   */\n      mul\n        /* \"#utility.yul\":13358:13362   */\n      dup3\n        /* \"#utility.yul\":13355:13376   */\n      or\n        /* \"#utility.yul\":13347:13376   */\n      swap1\n      pop\n        /* \"#utility.yul\":13087:13382   */\n      swap3\n      swap2\n      pop\n      pop\n      jump\t// out\n        /* \"#utility.yul\":13387:14782   */\n    tag_42:\n        /* \"#utility.yul\":13504:13541   */\n      tag_269\n        /* \"#utility.yul\":13537:13540   */\n      dup3\n        /* \"#utility.yul\":13504:13541   */\n      tag_90\n      jump\t// in\n    tag_269:\n        /* \"#utility.yul\":13606:13624   */\n      0xffffffffffffffff\n        /* \"#utility.yul\":13598:13604   */\n      dup2\n        /* \"#utility.yul\":13595:13625   */\n      gt\n        /* \"#utility.yul\":13592:13648   */\n      iszero\n      tag_270\n      jumpi\n        /* \"#utility.yul\":13628:13646   */\n      tag_271\n      tag_76\n      jump\t// in\n    tag_271:\n        /* \"#utility.yul\":13592:13648   */\n    tag_270:\n        /* \"#utility.yul\":13672:13710   */\n      tag_272\n        /* \"#utility.yul\":13704:13708   */\n      dup3\n        /* \"#utility.yul\":13698:13709   */\n      sload\n        /* \"#utility.yul\":13672:13710   */\n      tag_63\n      jump\t// in\n    tag_272:\n        /* \"#utility.yul\":13757:13824   */\n      tag_273\n        /* \"#utility.yul\":13817:13823   */\n      dup3\n        /* \"#utility.yul\":13809:13815   */\n      dup3\n        /* \"#utility.yul\":13803:13807   */\n      dup6\n        /* \"#utility.yul\":13757:13824   */\n      tag_110\n      jump\t// in\n    tag_273:\n        /* \"#utility.yul\":13851:13852   */\n      0x00\n        /* \"#utility.yul\":13875:13879   */\n      0x20\n        /* \"#utility.yul\":13862:13879   */\n      swap1\n      pop\n        /* \"#utility.yul\":13907:13909   */\n      0x1f\n        /* \"#utility.yul\":13899:13905   */\n      dup4\n        /* \"#utility.yul\":13896:13910   */\n      gt\n        /* \"#utility.yul\":13924:13925   */\n      0x01\n        /* \"#utility.yul\":13919:14537   */\n      dup2\n      eq\n      tag_275\n      jumpi\n        /* \"#utility.yul\":14581:14582   */\n      0x00\n        /* \"#utility.yul\":14598:14604   */\n      dup5\n        /* \"#utility.yul\":14595:14672   */\n      iszero\n      tag_276\n      jumpi\n        /* \"#utility.yul\":14647:14656   */\n      dup3\n        /* \"#utility.yul\":14642:14645   */\n      dup8\n        /* \"#utility.yul\":14638:14657   */\n      add\n        /* \"#utility.yul\":14632:14658   */\n      mload\n        /* \"#utility.yul\":14623:14658   */\n      swap1\n      pop\n        /* \"#utility.yul\":14595:14672   */\n    tag_276:\n        /* \"#utility.yul\":14698:14765   */\n      tag_277\n        /* \"#utility.yul\":14758:14764   */\n      dup6\n        /* \"#utility.yul\":14751:14756   */\n      dup3\n        /* \"#utility.yul\":14698:14765   */\n      tag_113\n      jump\t// in\n    tag_277:\n        /* \"#utility.yul\":14692:14696   */\n      dup7\n        /* \"#utility.yul\":14685:14766   */\n      sstore\n        /* \"#utility.yul\":14554:14776   */\n      pop\n        /* \"#utility.yul\":13889:14776   */\n      jump(tag_274)\n        /* \"#utility.yul\":13919:14537   */\n    tag_275:\n        /* \"#utility.yul\":13971:13975   */\n      0x1f\n        /* \"#utility.yul\":13967:13976   */\n      not\n        /* \"#utility.yul\":13959:13965   */\n      dup5\n        /* \"#utility.yul\":13955:13977   */\n      and\n        /* \"#utility.yul\":14005:14042   */\n      tag_278\n        /* \"#utility.yul\":14037:14041   */\n      dup7\n        /* \"#utility.yul\":14005:14042   */\n      tag_99\n      jump\t// in\n    tag_278:\n        /* \"#utility.yul\":14064:14065   */\n      0x00\n        /* \"#utility.yul\":14078:14286   */\n    tag_279:\n        /* \"#utility.yul\":14092:14099   */\n      dup3\n        /* \"#utility.yul\":14089:14090   */\n      dup2\n        /* \"#utility.yul\":14086:14100   */\n      lt\n        /* \"#utility.yul\":14078:14286   */\n      iszero\n      tag_281\n      jumpi\n        /* \"#utility.yul\":14171:14180   */\n      dup5\n        /* \"#utility.yul\":14166:14169   */\n      dup10\n        /* \"#utility.yul\":14162:14181   */\n      add\n        /* \"#utility.yul\":14156:14182   */\n      mload\n        /* \"#utility.yul\":14148:14154   */\n      dup3\n        /* \"#utility.yul\":14141:14183   */\n      sstore\n        /* \"#utility.yul\":14222:14223   */\n      0x01\n        /* \"#utility.yul\":14214:14220   */\n      dup3\n        /* \"#utility.yul\":14210:14224   */\n      add\n        /* \"#utility.yul\":14200:14224   */\n      swap2\n      pop\n        /* \"#utility.yul\":14269:14271   */\n      0x20\n        /* \"#utility.yul\":14258:14267   */\n      dup6\n        /* \"#utility.yul\":14254:14272   */\n      add\n        /* \"#utility.yul\":14241:14272   */\n      swap5\n      pop\n        /* \"#utility.yul\":14115:14119   */\n      0x20\n        /* \"#utility.yul\":14112:14113   */\n      dup2\n        /* \"#utility.yul\":14108:14120   */\n      add\n        /* \"#utility.yul\":14103:14120   */\n      swap1\n      pop\n        /* \"#utility.yul\":14078:14286   */\n      jump(tag_279)\n    tag_281:\n        /* \"#utility.yul\":14314:14320   */\n      dup7\n        /* \"#utility.yul\":14305:14312   */\n      dup4\n        /* \"#utility.yul\":14302:14321   */\n      lt\n        /* \"#utility.yul\":14299:14478   */\n      iszero\n      tag_282\n      jumpi\n        /* \"#utility.yul\":14372:14381   */\n      dup5\n        /* \"#utility.yul\":14367:14370   */\n      dup10\n        /* \"#utility.yul\":14363:14382   */\n      add\n        /* \"#utility.yul\":14357:14383   */\n      mload\n        /* \"#utility.yul\":14415:14463   */\n      tag_283\n        /* \"#utility.yul\":14457:14461   */\n      0x1f\n        /* \"#utility.yul\":14449:14455   */\n      dup10\n        /* \"#utility.yul\":14445:14462   */\n      and\n        /* \"#utility.yul\":14434:14443   */\n      dup3\n        /* \"#utility.yul\":14415:14463   */\n      tag_112\n      jump\t// in\n    tag_283:\n        /* \"#utility.yul\":14407:14413   */\n      dup4\n        /* \"#utility.yul\":14400:14464   */\n      sstore\n        /* \"#utility.yul\":14322:14478   */\n      pop\n        /* \"#utility.yul\":14299:14478   */\n    tag_282:\n        /* \"#utility.yul\":14524:14525   */\n      0x01\n        /* \"#utility.yul\":14520:14521   */\n      0x02\n        /* \"#utility.yul\":14512:14518   */\n      dup9\n        /* \"#utility.yul\":14508:14522   */\n      mul\n        /* \"#utility.yul\":14504:14526   */\n      add\n        /* \"#utility.yul\":14498:14502   */\n      dup9\n        /* \"#utility.yul\":14491:14527   */\n      sstore\n        /* \"#utility.yul\":13926:14537   */\n      pop\n      pop\n      pop\n        /* \"#utility.yul\":13889:14776   */\n    tag_274:\n      pop\n        /* \"#utility.yul\":13479:14782   */\n      pop\n      pop\n      pop\n        /* \"#utility.yul\":13387:14782   */\n      pop\n      pop\n      jump\t// out\n        /* \"#utility.yul\":14788:14968   */\n    tag_114:\n        /* \"#utility.yul\":14836:14913   */\n      0x4e487b7100000000000000000000000000000000000000000000000000000000\n        /* \"#utility.yul\":14833:14834   */\n      0x00\n        /* \"#utility.yul\":14826:14914   */\n      mstore\n        /* \"#utility.yul\":14933:14937   */\n      0x11\n        /* \"#utility.yul\":14930:14931   */\n      0x04\n        /* \"#utility.yul\":14923:14938   */\n      mstore\n        /* \"#utility.yul\":14957:14961   */\n      0x24\n        /* \"#utility.yul\":14954:14955   */\n      0x00\n        /* \"#utility.yul\":14947:14962   */\n      revert\n        /* \"#utility.yul\":14974:15207   */\n    tag_44:\n        /* \"#utility.yul\":15013:15016   */\n      0x00\n        /* \"#utility.yul\":15036:15060   */\n      tag_286\n        /* \"#utility.yul\":15054:15059   */\n      dup3\n        /* \"#utility.yul\":15036:15060   */\n      tag_68\n      jump\t// in\n    tag_286:\n        /* \"#utility.yul\":15027:15060   */\n      swap2\n      pop\n        /* \"#utility.yul\":15082:15148   */\n      0xffffffffffffffffffffffffffffffffffffffffffffffffffffffffffffffff\n        /* \"#utility.yul\":15075:15080   */\n      dup3\n        /* \"#utility.yul\":15072:15149   */\n      sub\n        /* \"#utility.yul\":15069:15172   */\n      tag_287\n      jumpi\n        /* \"#utility.yul\":15152:15170   */\n      tag_288\n      tag_114\n      jump\t// in\n    tag_288:\n        /* \"#utility.yul\":15069:15172   */\n    tag_287:\n        /* \"#utility.yul\":15199:15200   */\n      0x01\n        /* \"#utility.yul\":15192:15197   */\n      dup3\n        /* \"#utility.yul\":15188:15201   */\n      add\n        /* \"#utility.yul\":15181:15201   */\n      swap1\n      pop\n        /* \"#utility.yul\":14974:15207   */\n      swap2\n      swap1\n      pop\n      jump\t// out\n        /* \"#utility.yul\":15213:15391   */\n    tag_115:\n        /* \"#utility.yul\":15353:15383   */\n      0x5468697320776f726b73686f7020646f6573206e6f7420657869737400000000\n        /* \"#utility.yul\":15349:15350   */\n      0x00\n        /* \"#utility.yul\":15341:15347   */\n      dup3\n        /* \"#utility.yul\":15337:15351   */\n      add\n        /* \"#utility.yul\":15330:15384   */\n      mstore\n        /* \"#utility.yul\":15213:15391   */\n      pop\n      jump\t// out\n        /* \"#utility.yul\":15397:15763   */\n    tag_116:\n        /* \"#utility.yul\":15539:15542   */\n      0x00\n        /* \"#utility.yul\":15560:15627   */\n      tag_291\n        /* \"#utility.yul\":15624:15626   */\n      0x1c\n        /* \"#utility.yul\":15619:15622   */\n      dup4\n        /* \"#utility.yul\":15560:15627   */\n      tag_91\n      jump\t// in\n    tag_291:\n        /* \"#utility.yul\":15553:15627   */\n      swap2\n      pop\n        /* \"#utility.yul\":15636:15729   */\n      tag_292\n        /* \"#utility.yul\":15725:15728   */\n      dup3\n        /* \"#utility.yul\":15636:15729   */\n      tag_115\n      jump\t// in\n    tag_292:\n        /* \"#utility.yul\":15754:15756   */\n      0x20\n        /* \"#utility.yul\":15749:15752   */\n      dup3\n        /* \"#utility.yul\":15745:15757   */\n      add\n        /* \"#utility.yul\":15738:15757   */\n      swap1\n      pop\n        /* \"#utility.yul\":15397:15763   */\n      swap2\n      swap1\n      pop\n      jump\t// out\n        /* \"#utility.yul\":15769:16188   */\n    tag_48:\n        /* \"#utility.yul\":15935:15939   */\n      0x00\n        /* \"#utility.yul\":15973:15975   */\n      0x20\n        /* \"#utility.yul\":15962:15971   */\n      dup3\n        /* \"#utility.yul\":15958:15976   */\n      add\n        /* \"#utility.yul\":15950:15976   */\n      swap1\n      pop\n        /* \"#utility.yul\":16022:16031   */\n      dup2\n        /* \"#utility.yul\":16016:16020   */\n      dup2\n        /* \"#utility.yul\":16012:16032   */\n      sub\n        /* \"#utility.yul\":16008:16009   */\n      0x00\n        /* \"#utility.yul\":15997:16006   */\n      dup4\n        /* \"#utility.yul\":15993:16010   */\n      add\n        /* \"#utility.yul\":15986:16033   */\n      mstore\n        /* \"#utility.yul\":16050:16181   */\n      tag_294\n        /* \"#utility.yul\":16176:16180   */\n      dup2\n        /* \"#utility.yul\":16050:16181   */\n      tag_116\n      jump\t// in\n    tag_294:\n        /* \"#utility.yul\":16042:16181   */\n      swap1\n      pop\n        /* \"#utility.yul\":15769:16188   */\n      swap2\n      swap1\n      pop\n      jump\t// out\n        /* \"#utility.yul\":16194:16373   */\n    tag_117:\n        /* \"#utility.yul\":16334:16365   */\n      0x576f726b73686f7020616c7265616479206163636f6d706c6973686564000000\n        /* \"#utility.yul\":16330:16331   */\n      0x00\n        /* \"#utility.yul\":16322:16328   */\n      dup3\n        /* \"#utility.yul\":16318:16332   */\n      add\n        /* \"#utility.yul\":16311:16366   */\n      mstore\n        /* \"#utility.yul\":16194:16373   */\n      pop\n      jump\t// out\n        /* \"#utility.yul\":16379:16745   */\n    tag_118:\n        /* \"#utility.yul\":16521:16524   */\n      0x00\n        /* \"#utility.yul\":16542:16609   */\n      tag_297\n        /* \"#utility.yul\":16606:16608   */\n      0x1d\n        /* \"#utility.yul\":16601:16604   */\n      dup4\n        /* \"#utility.yul\":16542:16609   */\n      tag_91\n      jump\t// in\n    tag_297:\n        /* \"#utility.yul\":16535:16609   */\n      swap2\n      pop\n        /* \"#utility.yul\":16618:16711   */\n      tag_298\n        /* \"#utility.yul\":16707:16710   */\n      dup3\n        /* \"#utility.yul\":16618:16711   */\n      tag_117\n      jump\t// in\n    tag_298:\n        /* \"#utility.yul\":16736:16738   */\n      0x20\n        /* \"#utility.yul\":16731:16734   */\n      dup3\n        /* \"#utility.yul\":16727:16739   */\n      add\n        /* \"#utility.yul\":16720:16739   */\n      swap1\n      pop\n        /* \"#utility.yul\":16379:16745   */\n      swap2\n      swap1\n      pop\n      jump\t// out\n        /* \"#utility.yul\":16751:17170   */\n    tag_51:\n        /* \"#utility.yul\":16917:16921   */\n      0x00\n        /* \"#utility.yul\":16955:16957   */\n      0x20\n        /* \"#utility.yul\":16944:16953   */\n      dup3\n        /* \"#utility.yul\":16940:16958   */\n      add\n        /* \"#utility.yul\":16932:16958   */\n      swap1\n      pop\n        /* \"#utility.yul\":17004:17013   */\n      dup2\n        /* \"#utility.yul\":16998:17002   */\n      dup2\n        /* \"#utility.yul\":16994:17014   */\n      sub\n        /* \"#utility.yul\":16990:16991   */\n      0x00\n        /* \"#utility.yul\":16979:16988   */\n      dup4\n        /* \"#utility.yul\":16975:16992   */\n      add\n        /* \"#utility.yul\":16968:17015   */\n      mstore\n        /* \"#utility.yul\":17032:17163   */\n      tag_300\n        /* \"#utility.yul\":17158:17162   */\n      dup2\n        /* \"#utility.yul\":17032:17163   */\n      tag_118\n      jump\t// in\n    tag_300:\n        /* \"#utility.yul\":17024:17163   */\n      swap1\n      pop\n        /* \"#utility.yul\":16751:17170   */\n      swap2\n      swap1\n      pop\n      jump\t// out\n        /* \"#utility.yul\":17176:17586   */\n    tag_53:\n        /* \"#utility.yul\":17216:17223   */\n      0x00\n        /* \"#utility.yul\":17239:17259   */\n      tag_302\n        /* \"#utility.yul\":17257:17258   */\n      dup3\n        /* \"#utility.yul\":17239:17259   */\n      tag_68\n      jump\t// in\n    tag_302:\n        /* \"#utility.yul\":17234:17259   */\n      swap2\n      pop\n        /* \"#utility.yul\":17273:17293   */\n      tag_303\n        /* \"#utility.yul\":17291:17292   */\n      dup4\n        /* \"#utility.yul\":17273:17293   */\n      tag_68\n      jump\t// in\n    tag_303:\n        /* \"#utility.yul\":17268:17293   */\n      swap3\n      pop\n        /* \"#utility.yul\":17328:17329   */\n      dup3\n        /* \"#utility.yul\":17325:17326   */\n      dup3\n        /* \"#utility.yul\":17321:17330   */\n      mul\n        /* \"#utility.yul\":17350:17380   */\n      tag_304\n        /* \"#utility.yul\":17368:17379   */\n      dup2\n        /* \"#utility.yul\":17350:17380   */\n      tag_68\n      jump\t// in\n    tag_304:\n        /* \"#utility.yul\":17339:17380   */\n      swap2\n      pop\n        /* \"#utility.yul\":17529:17530   */\n      dup3\n        /* \"#utility.yul\":17520:17527   */\n      dup3\n        /* \"#utility.yul\":17516:17531   */\n      div\n        /* \"#utility.yul\":17513:17514   */\n      dup5\n        /* \"#utility.yul\":17510:17532   */\n      eq\n        /* \"#utility.yul\":17490:17491   */\n      dup4\n        /* \"#utility.yul\":17483:17492   */\n      iszero\n        /* \"#utility.yul\":17463:17546   */\n      or\n        /* \"#utility.yul\":17440:17579   */\n      tag_305\n      jumpi\n        /* \"#utility.yul\":17559:17577   */\n      tag_306\n      tag_114\n      jump\t// in\n    tag_306:\n        /* \"#utility.yul\":17440:17579   */\n    tag_305:\n        /* \"#utility.yul\":17224:17586   */\n      pop\n        /* \"#utility.yul\":17176:17586   */\n      swap3\n      swap2\n      pop\n      pop\n      jump\t// out\n        /* \"#utility.yul\":17592:17759   */\n    tag_119:\n        /* \"#utility.yul\":17732:17751   */\n      0x4e6f7420656e6f75676820657468657273000000000000000000000000000000\n        /* \"#utility.yul\":17728:17729   */\n      0x00\n        /* \"#utility.yul\":17720:17726   */\n      dup3\n        /* \"#utility.yul\":17716:17730   */\n      add\n        /* \"#utility.yul\":17709:17752   */\n      mstore\n        /* \"#utility.yul\":17592:17759   */\n      pop\n      jump\t// out\n        /* \"#utility.yul\":17765:18131   */\n    tag_120:\n        /* \"#utility.yul\":17907:17910   */\n      0x00\n        /* \"#utility.yul\":17928:17995   */\n      tag_309\n        /* \"#utility.yul\":17992:17994   */\n      0x11\n        /* \"#utility.yul\":17987:17990   */\n      dup4\n        /* \"#utility.yul\":17928:17995   */\n      tag_91\n      jump\t// in\n    tag_309:\n        /* \"#utility.yul\":17921:17995   */\n      swap2\n      pop\n        /* \"#utility.yul\":18004:18097   */\n      tag_310\n        /* \"#utility.yul\":18093:18096   */\n      dup3\n        /* \"#utility.yul\":18004:18097   */\n      tag_119\n      jump\t// in\n    tag_310:\n        /* \"#utility.yul\":18122:18124   */\n      0x20\n        /* \"#utility.yul\":18117:18120   */\n      dup3\n        /* \"#utility.yul\":18113:18125   */\n      add\n        /* \"#utility.yul\":18106:18125   */\n      swap1\n      pop\n        /* \"#utility.yul\":17765:18131   */\n      swap2\n      swap1\n      pop\n      jump\t// out\n        /* \"#utility.yul\":18137:18556   */\n    tag_56:\n        /* \"#utility.yul\":18303:18307   */\n      0x00\n        /* \"#utility.yul\":18341:18343   */\n      0x20\n        /* \"#utility.yul\":18330:18339   */\n      dup3\n        /* \"#utility.yul\":18326:18344   */\n      add\n        /* \"#utility.yul\":18318:18344   */\n      swap1\n      pop\n        /* \"#utility.yul\":18390:18399   */\n      dup2\n        /* \"#utility.yul\":18384:18388   */\n      dup2\n        /* \"#utility.yul\":18380:18400   */\n      sub\n        /* \"#utility.yul\":18376:18377   */\n      0x00\n        /* \"#utility.yul\":18365:18374   */\n      dup4\n        /* \"#utility.yul\":18361:18378   */\n      add\n        /* \"#utility.yul\":18354:18401   */\n      mstore\n        /* \"#utility.yul\":18418:18549   */\n      tag_312\n        /* \"#utility.yul\":18544:18548   */\n      dup2\n        /* \"#utility.yul\":18418:18549   */\n      tag_120\n      jump\t// in\n    tag_312:\n        /* \"#utility.yul\":18410:18549   */\n      swap1\n      pop\n        /* \"#utility.yul\":18137:18556   */\n      swap2\n      swap1\n      pop\n      jump\t// out\n        /* \"#utility.yul\":18562:18738   */\n    tag_121:\n        /* \"#utility.yul\":18702:18730   */\n      0x4e6f7420656e6f75676820736561747320617661696c61626c65000000000000\n        /* \"#utility.yul\":18698:18699   */\n      0x00\n        /* \"#utility.yul\":18690:18696   */\n      dup3\n        /* \"#utility.yul\":18686:18700   */\n      add\n        /* \"#utility.yul\":18679:18731   */\n      mstore\n        /* \"#utility.yul\":18562:18738   */\n      pop\n      jump\t// out\n        /* \"#utility.yul\":18744:19110   */\n    tag_122:\n        /* \"#utility.yul\":18886:18889   */\n      0x00\n        /* \"#utility.yul\":18907:18974   */\n      tag_315\n        /* \"#utility.yul\":18971:18973   */\n      0x1a\n        /* \"#utility.yul\":18966:18969   */\n      dup4\n        /* \"#utility.yul\":18907:18974   */\n      tag_91\n      jump\t// in\n    tag_315:\n        /* \"#utility.yul\":18900:18974   */\n      swap2\n      pop\n        /* \"#utility.yul\":18983:19076   */\n      tag_316\n        /* \"#utility.yul\":19072:19075   */\n      dup3\n        /* \"#utility.yul\":18983:19076   */\n      tag_121\n      jump\t// in\n    tag_316:\n        /* \"#utility.yul\":19101:19103   */\n      0x20\n        /* \"#utility.yul\":19096:19099   */\n      dup3\n        /* \"#utility.yul\":19092:19104   */\n      add\n        /* \"#utility.yul\":19085:19104   */\n      swap1\n      pop\n        /* \"#utility.yul\":18744:19110   */\n      swap2\n      swap1\n      pop\n      jump\t// out\n        /* \"#utility.yul\":19116:19535   */\n    tag_59:\n        /* \"#utility.yul\":19282:19286   */\n      0x00\n        /* \"#utility.yul\":19320:19322   */\n      0x20\n        /* \"#utility.yul\":19309:19318   */\n      dup3\n        /* \"#utility.yul\":19305:19323   */\n      add\n        /* \"#utility.yul\":19297:19323   */\n      swap1\n      pop\n        /* \"#utility.yul\":19369:19378   */\n      dup2\n        /* \"#utility.yul\":19363:19367   */\n      dup2\n        /* \"#utility.yul\":19359:19379   */\n      sub\n        /* \"#utility.yul\":19355:19356   */\n      0x00\n        /* \"#utility.yul\":19344:19353   */\n      dup4\n        /* \"#utility.yul\":19340:19357   */\n      add\n        /* \"#utility.yul\":19333:19380   */\n      mstore\n        /* \"#utility.yul\":19397:19528   */\n      tag_318\n        /* \"#utility.yul\":19523:19527   */\n      dup2\n        /* \"#utility.yul\":19397:19528   */\n      tag_122\n      jump\t// in\n    tag_318:\n        /* \"#utility.yul\":19389:19528   */\n      swap1\n      pop\n        /* \"#utility.yul\":19116:19535   */\n      swap2\n      swap1\n      pop\n      jump\t// out\n        /* \"#utility.yul\":19541:19735   */\n    tag_61:\n        /* \"#utility.yul\":19581:19585   */\n      0x00\n        /* \"#utility.yul\":19601:19621   */\n      tag_320\n        /* \"#utility.yul\":19619:19620   */\n      dup3\n        /* \"#utility.yul\":19601:19621   */\n      tag_68\n      jump\t// in\n    tag_320:\n        /* \"#utility.yul\":19596:19621   */\n      swap2\n      pop\n        /* \"#utility.yul\":19635:19655   */\n      tag_321\n        /* \"#utility.yul\":19653:19654   */\n      dup4\n        /* \"#utility.yul\":19635:19655   */\n      tag_68\n      jump\t// in\n    tag_321:\n        /* \"#utility.yul\":19630:19655   */\n      swap3\n      pop\n        /* \"#utility.yul\":19679:19680   */\n      dup3\n        /* \"#utility.yul\":19676:19677   */\n      dup3\n        /* \"#utility.yul\":19672:19681   */\n      sub\n        /* \"#utility.yul\":19664:19681   */\n      swap1\n      pop\n        /* \"#utility.yul\":19703:19704   */\n      dup2\n        /* \"#utility.yul\":19697:19701   */\n      dup2\n        /* \"#utility.yul\":19694:19705   */\n      gt\n        /* \"#utility.yul\":19691:19728   */\n      iszero\n      tag_322\n      jumpi\n        /* \"#utility.yul\":19708:19726   */\n      tag_323\n      tag_114\n      jump\t// in\n    tag_323:\n        /* \"#utility.yul\":19691:19728   */\n    tag_322:\n        /* \"#utility.yul\":19541:19735   */\n      swap3\n      swap2\n      pop\n      pop\n      jump\t// out\n\n    auxdata: 0xa26469706673582212204027863486ee5efed131e472973552e7bc685a2f2462c7be51a5a254fde70dcf64736f6c63430008160033\n}\n",
				"bytecode": {
					"linkReferences": {},
					"object": "608060405234801561000f575f80fd5b50610fbe8061001d5f395ff3fe608060405260043610610049575f3560e01c80631e96917d1461004d578063298a9aec1461007757806361b368971461009f578063a30dc775146100bb578063d422ea60146100f7575b5f80fd5b348015610058575f80fd5b50610061610138565b60405161006e9190610541565b60405180910390f35b348015610082575f80fd5b5061009d600480360381019061009891906106d1565b61013e565b005b6100b960048036038101906100b49190610751565b6102b9565b005b3480156100c6575f80fd5b506100e160048036038101906100dc91906107e9565b61042d565b6040516100ee9190610541565b60405180910390f35b348015610102575f80fd5b5061011d60048036038101906101189190610827565b61044d565b60405161012f969594939291906108db565b60405180910390f35b60025481565b428311610180576040517f08c379a0000000000000000000000000000000000000000000000000000000008152600401610177906109b1565b60405180910390fd5b5f81116101c2576040517f08c379a00000000000000000000000000000000000000000000000000000000081526004016101b990610a19565b60405180910390fd5b6040518060c001604052803373ffffffffffffffffffffffffffffffffffffffff168152602001858152602001848152602001838152602001828152602001828152505f8060025481526020019081526020015f205f820151815f015f6101000a81548173ffffffffffffffffffffffffffffffffffffffff021916908373ffffffffffffffffffffffffffffffffffffffff16021790555060208201518160010190816102709190610c31565b5060408201518160020155606082015181600301556080820151816004015560a0820151816005015590505060025f8154809291906102ae90610d2d565b919050555050505050565b5f805f8481526020019081526020015f20600201540361030e576040517f08c379a000000000000000000000000000000000000000000000000000000000815260040161030590610dbe565b60405180910390fd5b425f808481526020019081526020015f206002015411610363576040517f08c379a000000000000000000000000000000000000000000000000000000000815260040161035a90610e26565b60405180910390fd5b5f805f8481526020019081526020015f2090508181600301546103869190610e44565b34146103c7576040517f08c379a00000000000000000000000000000000000000000000000000000000081526004016103be90610ecf565b60405180910390fd5b818160040154101561040e576040517f08c379a000000000000000000000000000000000000000000000000000000000815260040161040590610f37565b60405180910390fd5b81816005015f8282546104219190610f55565b92505081905550505050565b6001602052815f5260405f20602052805f5260405f205f91509150505481565b5f602052805f5260405f205f91509050805f015f9054906101000a900473ffffffffffffffffffffffffffffffffffffffff169080600101805461049090610a64565b80601f01602080910402602001604051908101604052809291908181526020018280546104bc90610a64565b80156105075780601f106104de57610100808354040283529160200191610507565b820191905f5260205f20905b8154815290600101906020018083116104ea57829003601f168201915b5050505050908060020154908060030154908060040154908060050154905086565b5f819050919050565b61053b81610529565b82525050565b5f6020820190506105545f830184610532565b92915050565b5f604051905090565b5f80fd5b5f80fd5b5f80fd5b5f80fd5b5f601f19601f8301169050919050565b7f4e487b71000000000000000000000000000000000000000000000000000000005f52604160045260245ffd5b6105b982610573565b810181811067ffffffffffffffff821117156105d8576105d7610583565b5b80604052505050565b5f6105ea61055a565b90506105f682826105b0565b919050565b5f67ffffffffffffffff82111561061557610614610583565b5b61061e82610573565b9050602081019050919050565b828183375f83830152505050565b5f61064b610646846105fb565b6105e1565b9050828152602081018484840111156106675761066661056f565b5b61067284828561062b565b509392505050565b5f82601f83011261068e5761068d61056b565b5b813561069e848260208601610639565b91505092915050565b6106b081610529565b81146106ba575f80fd5b50565b5f813590506106cb816106a7565b92915050565b5f805f80608085870312156106e9576106e8610563565b5b5f85013567ffffffffffffffff81111561070657610705610567565b5b6107128782880161067a565b9450506020610723878288016106bd565b9350506040610734878288016106bd565b9250506060610745878288016106bd565b91505092959194509250565b5f806040838503121561076757610766610563565b5b5f610774858286016106bd565b9250506020610785858286016106bd565b9150509250929050565b5f73ffffffffffffffffffffffffffffffffffffffff82169050919050565b5f6107b88261078f565b9050919050565b6107c8816107ae565b81146107d2575f80fd5b50565b5f813590506107e3816107bf565b92915050565b5f80604083850312156107ff576107fe610563565b5b5f61080c858286016107d5565b925050602061081d858286016106bd565b9150509250929050565b5f6020828403121561083c5761083b610563565b5b5f610849848285016106bd565b91505092915050565b61085b816107ae565b82525050565b5f81519050919050565b5f82825260208201905092915050565b5f5b8381101561089857808201518184015260208101905061087d565b5f8484015250505050565b5f6108ad82610861565b6108b7818561086b565b93506108c781856020860161087b565b6108d081610573565b840191505092915050565b5f60c0820190506108ee5f830189610852565b818103602083015261090081886108a3565b905061090f6040830187610532565b61091c6060830186610532565b6109296080830185610532565b61093660a0830184610532565b979650505050505050565b7f506c65617365206f7267616e697a6520776f726b73686f7020666f72206675745f8201527f7572652074696d65736c6f740000000000000000000000000000000000000000602082015250565b5f61099b602c8361086b565b91506109a682610941565b604082019050919050565b5f6020820190508181035f8301526109c88161098f565b9050919050565b7f73656174436f756e74206e6f74207370656369666965640000000000000000005f82015250565b5f610a0360178361086b565b9150610a0e826109cf565b602082019050919050565b5f6020820190508181035f830152610a30816109f7565b9050919050565b7f4e487b71000000000000000000000000000000000000000000000000000000005f52602260045260245ffd5b5f6002820490506001821680610a7b57607f821691505b602082108103610a8e57610a8d610a37565b5b50919050565b5f819050815f5260205f209050919050565b5f6020601f8301049050919050565b5f82821b905092915050565b5f60088302610af07fffffffffffffffffffffffffffffffffffffffffffffffffffffffffffffffff82610ab5565b610afa8683610ab5565b95508019841693508086168417925050509392505050565b5f819050919050565b5f610b35610b30610b2b84610529565b610b12565b610529565b9050919050565b5f819050919050565b610b4e83610b1b565b610b62610b5a82610b3c565b848454610ac1565b825550505050565b5f90565b610b76610b6a565b610b81818484610b45565b505050565b5b81811015610ba457610b995f82610b6e565b600181019050610b87565b5050565b601f821115610be957610bba81610a94565b610bc384610aa6565b81016020851015610bd2578190505b610be6610bde85610aa6565b830182610b86565b50505b505050565b5f82821c905092915050565b5f610c095f1984600802610bee565b1980831691505092915050565b5f610c218383610bfa565b9150826002028217905092915050565b610c3a82610861565b67ffffffffffffffff811115610c5357610c52610583565b5b610c5d8254610a64565b610c68828285610ba8565b5f60209050601f831160018114610c99575f8415610c87578287015190505b610c918582610c16565b865550610cf8565b601f198416610ca786610a94565b5f5b82811015610cce57848901518255600182019150602085019450602081019050610ca9565b86831015610ceb5784890151610ce7601f891682610bfa565b8355505b6001600288020188555050505b505050505050565b7f4e487b71000000000000000000000000000000000000000000000000000000005f52601160045260245ffd5b5f610d3782610529565b91507fffffffffffffffffffffffffffffffffffffffffffffffffffffffffffffffff8203610d6957610d68610d00565b5b600182019050919050565b7f5468697320776f726b73686f7020646f6573206e6f74206578697374000000005f82015250565b5f610da8601c8361086b565b9150610db382610d74565b602082019050919050565b5f6020820190508181035f830152610dd581610d9c565b9050919050565b7f576f726b73686f7020616c7265616479206163636f6d706c69736865640000005f82015250565b5f610e10601d8361086b565b9150610e1b82610ddc565b602082019050919050565b5f6020820190508181035f830152610e3d81610e04565b9050919050565b5f610e4e82610529565b9150610e5983610529565b9250828202610e6781610529565b91508282048414831517610e7e57610e7d610d00565b5b5092915050565b7f4e6f7420656e6f756768206574686572730000000000000000000000000000005f82015250565b5f610eb960118361086b565b9150610ec482610e85565b602082019050919050565b5f6020820190508181035f830152610ee681610ead565b9050919050565b7f4e6f7420656e6f75676820736561747320617661696c61626c650000000000005f82015250565b5f610f21601a8361086b565b9150610f2c82610eed565b602082019050919050565b5f6020820190508181035f830152610f4e81610f15565b9050919050565b5f610f5f82610529565b9150610f6a83610529565b9250828203905081811115610f8257610f81610d00565b5b9291505056fea26469706673582212204027863486ee5efed131e472973552e7bc685a2f2462c7be51a5a254fde70dcf64736f6c63430008160033",
					"opcodes": "PUSH1 0x80 PUSH1 0x40 MSTORE CALLVALUE DUP1 ISZERO PUSH2 0xF JUMPI PUSH0 DUP1 REVERT JUMPDEST POP PUSH2 0xFBE DUP1 PUSH2 0x1D PUSH0 CODECOPY PUSH0 RETURN INVALID PUSH1 0x80 PUSH1 0x40 MSTORE PUSH1 0x4 CALLDATASIZE LT PUSH2 0x49 JUMPI PUSH0 CALLDATALOAD PUSH1 0xE0 SHR DUP1 PUSH4 0x1E96917D EQ PUSH2 0x4D JUMPI DUP1 PUSH4 0x298A9AEC EQ PUSH2 0x77 JUMPI DUP1 PUSH4 0x61B36897 EQ PUSH2 0x9F JUMPI DUP1 PUSH4 0xA30DC775 EQ PUSH2 0xBB JUMPI DUP1 PUSH4 0xD422EA60 EQ PUSH2 0xF7 JUMPI JUMPDEST PUSH0 DUP1 REVERT JUMPDEST CALLVALUE DUP1 ISZERO PUSH2 0x58 JUMPI PUSH0 DUP1 REVERT JUMPDEST POP PUSH2 0x61 PUSH2 0x138 JUMP JUMPDEST PUSH1 0x40 MLOAD PUSH2 0x6E SWAP2 SWAP1 PUSH2 0x541 JUMP JUMPDEST PUSH1 0x40 MLOAD DUP1 SWAP2 SUB SWAP1 RETURN JUMPDEST CALLVALUE DUP1 ISZERO PUSH2 0x82 JUMPI PUSH0 DUP1 REVERT JUMPDEST POP PUSH2 0x9D PUSH1 0x4 DUP1 CALLDATASIZE SUB DUP2 ADD SWAP1 PUSH2 0x98 SWAP2 SWAP1 PUSH2 0x6D1 JUMP JUMPDEST PUSH2 0x13E JUMP JUMPDEST STOP JUMPDEST PUSH2 0xB9 PUSH1 0x4 DUP1 CALLDATASIZE SUB DUP2 ADD SWAP1 PUSH2 0xB4 SWAP2 SWAP1 PUSH2 0x751 JUMP JUMPDEST PUSH2 0x2B9 JUMP JUMPDEST STOP JUMPDEST CALLVALUE DUP1 ISZERO PUSH2 0xC6 JUMPI PUSH0 DUP1 REVERT JUMPDEST POP PUSH2 0xE1 PUSH1 0x4 DUP1 CALLDATASIZE SUB DUP2 ADD SWAP1 PUSH2 0xDC SWAP2 SWAP1 PUSH2 0x7E9 JUMP JUMPDEST PUSH2 0x42D JUMP JUMPDEST PUSH1 0x40 MLOAD PUSH2 0xEE SWAP2 SWAP1 PUSH2 0x541 JUMP JUMPDEST PUSH1 0x40 MLOAD DUP1 SWAP2 SUB SWAP1 RETURN JUMPDEST CALLVALUE DUP1 ISZERO PUSH2 0x102 JUMPI PUSH0 DUP1 REVERT JUMPDEST POP PUSH2 0x11D PUSH1 0x4 DUP1 CALLDATASIZE SUB DUP2 ADD SWAP1 PUSH2 0x118 SWAP2 SWAP1 PUSH2 0x827 JUMP JUMPDEST PUSH2 0x44D JUMP JUMPDEST PUSH1 0x40 MLOAD PUSH2 0x12F SWAP7 SWAP6 SWAP5 SWAP4 SWAP3 SWAP2 SWAP1 PUSH2 0x8DB JUMP JUMPDEST PUSH1 0x40 MLOAD DUP1 SWAP2 SUB SWAP1 RETURN JUMPDEST PUSH1 0x2 SLOAD DUP2 JUMP JUMPDEST TIMESTAMP DUP4 GT PUSH2 0x180 JUMPI PUSH1 0x40 MLOAD PUSH32 0x8C379A000000000000000000000000000000000000000000000000000000000 DUP2 MSTORE PUSH1 0x4 ADD PUSH2 0x177 SWAP1 PUSH2 0x9B1 JUMP JUMPDEST PUSH1 0x40 MLOAD DUP1 SWAP2 SUB SWAP1 REVERT JUMPDEST PUSH0 DUP2 GT PUSH2 0x1C2 JUMPI PUSH1 0x40 MLOAD PUSH32 0x8C379A000000000000000000000000000000000000000000000000000000000 DUP2 MSTORE PUSH1 0x4 ADD PUSH2 0x1B9 SWAP1 PUSH2 0xA19 JUMP JUMPDEST PUSH1 0x40 MLOAD DUP1 SWAP2 SUB SWAP1 REVERT JUMPDEST PUSH1 0x40 MLOAD DUP1 PUSH1 0xC0 ADD PUSH1 0x40 MSTORE DUP1 CALLER PUSH20 0xFFFFFFFFFFFFFFFFFFFFFFFFFFFFFFFFFFFFFFFF AND DUP2 MSTORE PUSH1 0x20 ADD DUP6 DUP2 MSTORE PUSH1 0x20 ADD DUP5 DUP2 MSTORE PUSH1 0x20 ADD DUP4 DUP2 MSTORE PUSH1 0x20 ADD DUP3 DUP2 MSTORE PUSH1 0x20 ADD DUP3 DUP2 MSTORE POP PUSH0 DUP1 PUSH1 0x2 SLOAD DUP2 MSTORE PUSH1 0x20 ADD SWAP1 DUP2 MSTORE PUSH1 0x20 ADD PUSH0 KECCAK256 PUSH0 DUP3 ADD MLOAD DUP2 PUSH0 ADD PUSH0 PUSH2 0x100 EXP DUP2 SLOAD DUP2 PUSH20 0xFFFFFFFFFFFFFFFFFFFFFFFFFFFFFFFFFFFFFFFF MUL NOT AND SWAP1 DUP4 PUSH20 0xFFFFFFFFFFFFFFFFFFFFFFFFFFFFFFFFFFFFFFFF AND MUL OR SWAP1 SSTORE POP PUSH1 0x20 DUP3 ADD MLOAD DUP2 PUSH1 0x1 ADD SWAP1 DUP2 PUSH2 0x270 SWAP2 SWAP1 PUSH2 0xC31 JUMP JUMPDEST POP PUSH1 0x40 DUP3 ADD MLOAD DUP2 PUSH1 0x2 ADD SSTORE PUSH1 0x60 DUP3 ADD MLOAD DUP2 PUSH1 0x3 ADD SSTORE PUSH1 0x80 DUP3 ADD MLOAD DUP2 PUSH1 0x4 ADD SSTORE PUSH1 0xA0 DUP3 ADD MLOAD DUP2 PUSH1 0x5 ADD SSTORE SWAP1 POP POP PUSH1 0x2 PUSH0 DUP2 SLOAD DUP1 SWAP3 SWAP2 SWAP1 PUSH2 0x2AE SWAP1 PUSH2 0xD2D JUMP JUMPDEST SWAP2 SWAP1 POP SSTORE POP POP POP POP POP JUMP JUMPDEST PUSH0 DUP1 PUSH0 DUP5 DUP2 MSTORE PUSH1 0x20 ADD SWAP1 DUP2 MSTORE PUSH1 0x20 ADD PUSH0 KECCAK256 PUSH1 0x2 ADD SLOAD SUB PUSH2 0x30E JUMPI PUSH1 0x40 MLOAD PUSH32 0x8C379A000000000000000000000000000000000000000000000000000000000 DUP2 MSTORE PUSH1 0x4 ADD PUSH2 0x305 SWAP1 PUSH2 0xDBE JUMP JUMPDEST PUSH1 0x40 MLOAD DUP1 SWAP2 SUB SWAP1 REVERT JUMPDEST TIMESTAMP PUSH0 DUP1 DUP5 DUP2 MSTORE PUSH1 0x20 ADD SWAP1 DUP2 MSTORE PUSH1 0x20 ADD PUSH0 KECCAK256 PUSH1 0x2 ADD SLOAD GT PUSH2 0x363 JUMPI PUSH1 0x40 MLOAD PUSH32 0x8C379A000000000000000000000000000000000000000000000000000000000 DUP2 MSTORE PUSH1 0x4 ADD PUSH2 0x35A SWAP1 PUSH2 0xE26 JUMP JUMPDEST PUSH1 0x40 MLOAD DUP1 SWAP2 SUB SWAP1 REVERT JUMPDEST PUSH0 DUP1 PUSH0 DUP5 DUP2 MSTORE PUSH1 0x20 ADD SWAP1 DUP2 MSTORE PUSH1 0x20 ADD PUSH0 KECCAK256 SWAP1 POP DUP2 DUP2 PUSH1 0x3 ADD SLOAD PUSH2 0x386 SWAP2 SWAP1 PUSH2 0xE44 JUMP JUMPDEST CALLVALUE EQ PUSH2 0x3C7 JUMPI PUSH1 0x40 MLOAD PUSH32 0x8C379A000000000000000000000000000000000000000000000000000000000 DUP2 MSTORE PUSH1 0x4 ADD PUSH2 0x3BE SWAP1 PUSH2 0xECF JUMP JUMPDEST PUSH1 0x40 MLOAD DUP1 SWAP2 SUB SWAP1 REVERT JUMPDEST DUP2 DUP2 PUSH1 0x4 ADD SLOAD LT ISZERO PUSH2 0x40E JUMPI PUSH1 0x40 MLOAD PUSH32 0x8C379A000000000000000000000000000000000000000000000000000000000 DUP2 MSTORE PUSH1 0x4 ADD PUSH2 0x405 SWAP1 PUSH2 0xF37 JUMP JUMPDEST PUSH1 0x40 MLOAD DUP1 SWAP2 SUB SWAP1 REVERT JUMPDEST DUP2 DUP2 PUSH1 0x5 ADD PUSH0 DUP3 DUP3 SLOAD PUSH2 0x421 SWAP2 SWAP1 PUSH2 0xF55 JUMP JUMPDEST SWAP3 POP POP DUP2 SWAP1 SSTORE POP POP POP POP JUMP JUMPDEST PUSH1 0x1 PUSH1 0x20 MSTORE DUP2 PUSH0 MSTORE PUSH1 0x40 PUSH0 KECCAK256 PUSH1 0x20 MSTORE DUP1 PUSH0 MSTORE PUSH1 0x40 PUSH0 KECCAK256 PUSH0 SWAP2 POP SWAP2 POP POP SLOAD DUP2 JUMP JUMPDEST PUSH0 PUSH1 0x20 MSTORE DUP1 PUSH0 MSTORE PUSH1 0x40 PUSH0 KECCAK256 PUSH0 SWAP2 POP SWAP1 POP DUP1 PUSH0 ADD PUSH0 SWAP1 SLOAD SWAP1 PUSH2 0x100 EXP SWAP1 DIV PUSH20 0xFFFFFFFFFFFFFFFFFFFFFFFFFFFFFFFFFFFFFFFF AND SWAP1 DUP1 PUSH1 0x1 ADD DUP1 SLOAD PUSH2 0x490 SWAP1 PUSH2 0xA64 JUMP JUMPDEST DUP1 PUSH1 0x1F ADD PUSH1 0x20 DUP1 SWAP2 DIV MUL PUSH1 0x20 ADD PUSH1 0x40 MLOAD SWAP1 DUP2 ADD PUSH1 0x40 MSTORE DUP1 SWAP3 SWAP2 SWAP1 DUP2 DUP2 MSTORE PUSH1 0x20 ADD DUP3 DUP1 SLOAD PUSH2 0x4BC SWAP1 PUSH2 0xA64 JUMP JUMPDEST DUP1 ISZERO PUSH2 0x507 JUMPI DUP1 PUSH1 0x1F LT PUSH2 0x4DE JUMPI PUSH2 0x100 DUP1 DUP4 SLOAD DIV MUL DUP4 MSTORE SWAP2 PUSH1 0x20 ADD SWAP2 PUSH2 0x507 JUMP JUMPDEST DUP3 ADD SWAP2 SWAP1 PUSH0 MSTORE PUSH1 0x20 PUSH0 KECCAK256 SWAP1 JUMPDEST DUP2 SLOAD DUP2 MSTORE SWAP1 PUSH1 0x1 ADD SWAP1 PUSH1 0x20 ADD DUP1 DUP4 GT PUSH2 0x4EA JUMPI DUP3 SWAP1 SUB PUSH1 0x1F AND DUP3 ADD SWAP2 JUMPDEST POP POP POP POP POP SWAP1 DUP1 PUSH1 0x2 ADD SLOAD SWAP1 DUP1 PUSH1 0x3 ADD SLOAD SWAP1 DUP1 PUSH1 0x4 ADD SLOAD SWAP1 DUP1 PUSH1 0x5 ADD SLOAD SWAP1 POP DUP7 JUMP JUMPDEST PUSH0 DUP2 SWAP1 POP SWAP2 SWAP1 POP JUMP JUMPDEST PUSH2 0x53B DUP2 PUSH2 0x529 JUMP JUMPDEST DUP3 MSTORE POP POP JUMP JUMPDEST PUSH0 PUSH1 0x20 DUP3 ADD SWAP1 POP PUSH2 0x554 PUSH0 DUP4 ADD DUP5 PUSH2 0x532 JUMP JUMPDEST SWAP3 SWAP2 POP POP JUMP JUMPDEST PUSH0 PUSH1 0x40 MLOAD SWAP1 POP SWAP1 JUMP JUMPDEST PUSH0 DUP1 REVERT JUMPDEST PUSH0 DUP1 REVERT JUMPDEST PUSH0 DUP1 REVERT JUMPDEST PUSH0 DUP1 REVERT JUMPDEST PUSH0 PUSH1 0x1F NOT PUSH1 0x1F DUP4 ADD AND SWAP1 POP SWAP2 SWAP1 POP JUMP JUMPDEST PUSH32 0x4E487B7100000000000000000000000000000000000000000000000000000000 PUSH0 MSTORE PUSH1 0x41 PUSH1 0x4 MSTORE PUSH1 0x24 PUSH0 REVERT JUMPDEST PUSH2 0x5B9 DUP3 PUSH2 0x573 JUMP JUMPDEST DUP2 ADD DUP2 DUP2 LT PUSH8 0xFFFFFFFFFFFFFFFF DUP3 GT OR ISZERO PUSH2 0x5D8 JUMPI PUSH2 0x5D7 PUSH2 0x583 JUMP JUMPDEST JUMPDEST DUP1 PUSH1 0x40 MSTORE POP POP POP JUMP JUMPDEST PUSH0 PUSH2 0x5EA PUSH2 0x55A JUMP JUMPDEST SWAP1 POP PUSH2 0x5F6 DUP3 DUP3 PUSH2 0x5B0 JUMP JUMPDEST SWAP2 SWAP1 POP JUMP JUMPDEST PUSH0 PUSH8 0xFFFFFFFFFFFFFFFF DUP3 GT ISZERO PUSH2 0x615 JUMPI PUSH2 0x614 PUSH2 0x583 JUMP JUMPDEST JUMPDEST PUSH2 0x61E DUP3 PUSH2 0x573 JUMP JUMPDEST SWAP1 POP PUSH1 0x20 DUP2 ADD SWAP1 POP SWAP2 SWAP1 POP JUMP JUMPDEST DUP3 DUP2 DUP4 CALLDATACOPY PUSH0 DUP4 DUP4 ADD MSTORE POP POP POP JUMP JUMPDEST PUSH0 PUSH2 0x64B PUSH2 0x646 DUP5 PUSH2 0x5FB JUMP JUMPDEST PUSH2 0x5E1 JUMP JUMPDEST SWAP1 POP DUP3 DUP2 MSTORE PUSH1 0x20 DUP2 ADD DUP5 DUP5 DUP5 ADD GT ISZERO PUSH2 0x667 JUMPI PUSH2 0x666 PUSH2 0x56F JUMP JUMPDEST JUMPDEST PUSH2 0x672 DUP5 DUP3 DUP6 PUSH2 0x62B JUMP JUMPDEST POP SWAP4 SWAP3 POP POP POP JUMP JUMPDEST PUSH0 DUP3 PUSH1 0x1F DUP4 ADD SLT PUSH2 0x68E JUMPI PUSH2 0x68D PUSH2 0x56B JUMP JUMPDEST JUMPDEST DUP2 CALLDATALOAD PUSH2 0x69E DUP5 DUP3 PUSH1 0x20 DUP7 ADD PUSH2 0x639 JUMP JUMPDEST SWAP2 POP POP SWAP3 SWAP2 POP POP JUMP JUMPDEST PUSH2 0x6B0 DUP2 PUSH2 0x529 JUMP JUMPDEST DUP2 EQ PUSH2 0x6BA JUMPI PUSH0 DUP1 REVERT JUMPDEST POP JUMP JUMPDEST PUSH0 DUP2 CALLDATALOAD SWAP1 POP PUSH2 0x6CB DUP2 PUSH2 0x6A7 JUMP JUMPDEST SWAP3 SWAP2 POP POP JUMP JUMPDEST PUSH0 DUP1 PUSH0 DUP1 PUSH1 0x80 DUP6 DUP8 SUB SLT ISZERO PUSH2 0x6E9 JUMPI PUSH2 0x6E8 PUSH2 0x563 JUMP JUMPDEST JUMPDEST PUSH0 DUP6 ADD CALLDATALOAD PUSH8 0xFFFFFFFFFFFFFFFF DUP2 GT ISZERO PUSH2 0x706 JUMPI PUSH2 0x705 PUSH2 0x567 JUMP JUMPDEST JUMPDEST PUSH2 0x712 DUP8 DUP3 DUP9 ADD PUSH2 0x67A JUMP JUMPDEST SWAP5 POP POP PUSH1 0x20 PUSH2 0x723 DUP8 DUP3 DUP9 ADD PUSH2 0x6BD JUMP JUMPDEST SWAP4 POP POP PUSH1 0x40 PUSH2 0x734 DUP8 DUP3 DUP9 ADD PUSH2 0x6BD JUMP JUMPDEST SWAP3 POP POP PUSH1 0x60 PUSH2 0x745 DUP8 DUP3 DUP9 ADD PUSH2 0x6BD JUMP JUMPDEST SWAP2 POP POP SWAP3 SWAP6 SWAP2 SWAP5 POP SWAP3 POP JUMP JUMPDEST PUSH0 DUP1 PUSH1 0x40 DUP4 DUP6 SUB SLT ISZERO PUSH2 0x767 JUMPI PUSH2 0x766 PUSH2 0x563 JUMP JUMPDEST JUMPDEST PUSH0 PUSH2 0x774 DUP6 DUP3 DUP7 ADD PUSH2 0x6BD JUMP JUMPDEST SWAP3 POP POP PUSH1 0x20 PUSH2 0x785 DUP6 DUP3 DUP7 ADD PUSH2 0x6BD JUMP JUMPDEST SWAP2 POP POP SWAP3 POP SWAP3 SWAP1 POP JUMP JUMPDEST PUSH0 PUSH20 0xFFFFFFFFFFFFFFFFFFFFFFFFFFFFFFFFFFFFFFFF DUP3 AND SWAP1 POP SWAP2 SWAP1 POP JUMP JUMPDEST PUSH0 PUSH2 0x7B8 DUP3 PUSH2 0x78F JUMP JUMPDEST SWAP1 POP SWAP2 SWAP1 POP JUMP JUMPDEST PUSH2 0x7C8 DUP2 PUSH2 0x7AE JUMP JUMPDEST DUP2 EQ PUSH2 0x7D2 JUMPI PUSH0 DUP1 REVERT JUMPDEST POP JUMP JUMPDEST PUSH0 DUP2 CALLDATALOAD SWAP1 POP PUSH2 0x7E3 DUP2 PUSH2 0x7BF JUMP JUMPDEST SWAP3 SWAP2 POP POP JUMP JUMPDEST PUSH0 DUP1 PUSH1 0x40 DUP4 DUP6 SUB SLT ISZERO PUSH2 0x7FF JUMPI PUSH2 0x7FE PUSH2 0x563 JUMP JUMPDEST JUMPDEST PUSH0 PUSH2 0x80C DUP6 DUP3 DUP7 ADD PUSH2 0x7D5 JUMP JUMPDEST SWAP3 POP POP PUSH1 0x20 PUSH2 0x81D DUP6 DUP3 DUP7 ADD PUSH2 0x6BD JUMP JUMPDEST SWAP2 POP POP SWAP3 POP SWAP3 SWAP1 POP JUMP JUMPDEST PUSH0 PUSH1 0x20 DUP3 DUP5 SUB SLT ISZERO PUSH2 0x83C JUMPI PUSH2 0x83B PUSH2 0x563 JUMP JUMPDEST JUMPDEST PUSH0 PUSH2 0x849 DUP5 DUP3 DUP6 ADD PUSH2 0x6BD JUMP JUMPDEST SWAP2 POP POP SWAP3 SWAP2 POP POP JUMP JUMPDEST PUSH2 0x85B DUP2 PUSH2 0x7AE JUMP JUMPDEST DUP3 MSTORE POP POP JUMP JUMPDEST PUSH0 DUP2 MLOAD SWAP1 POP SWAP2 SWAP1 POP JUMP JUMPDEST PUSH0 DUP3 DUP3 MSTORE PUSH1 0x20 DUP3 ADD SWAP1 POP SWAP3 SWAP2 POP POP JUMP JUMPDEST PUSH0 JUMPDEST DUP4 DUP2 LT ISZERO PUSH2 0x898 JUMPI DUP1 DUP3 ADD MLOAD DUP2 DUP5 ADD MSTORE PUSH1 0x20 DUP2 ADD SWAP1 POP PUSH2 0x87D JUMP JUMPDEST PUSH0 DUP5 DUP5 ADD MSTORE POP POP POP POP JUMP JUMPDEST PUSH0 PUSH2 0x8AD DUP3 PUSH2 0x861 JUMP JUMPDEST PUSH2 0x8B7 DUP2 DUP6 PUSH2 0x86B JUMP JUMPDEST SWAP4 POP PUSH2 0x8C7 DUP2 DUP6 PUSH1 0x20 DUP7 ADD PUSH2 0x87B JUMP JUMPDEST PUSH2 0x8D0 DUP2 PUSH2 0x573 JUMP JUMPDEST DUP5 ADD SWAP2 POP POP SWAP3 SWAP2 POP POP JUMP JUMPDEST PUSH0 PUSH1 0xC0 DUP3 ADD SWAP1 POP PUSH2 0x8EE PUSH0 DUP4 ADD DUP10 PUSH2 0x852 JUMP JUMPDEST DUP2 DUP2 SUB PUSH1 0x20 DUP4 ADD MSTORE PUSH2 0x900 DUP2 DUP9 PUSH2 0x8A3 JUMP JUMPDEST SWAP1 POP PUSH2 0x90F PUSH1 0x40 DUP4 ADD DUP8 PUSH2 0x532 JUMP JUMPDEST PUSH2 0x91C PUSH1 0x60 DUP4 ADD DUP7 PUSH2 0x532 JUMP JUMPDEST PUSH2 0x929 PUSH1 0x80 DUP4 ADD DUP6 PUSH2 0x532 JUMP JUMPDEST PUSH2 0x936 PUSH1 0xA0 DUP4 ADD DUP5 PUSH2 0x532 JUMP JUMPDEST SWAP8 SWAP7 POP POP POP POP POP POP POP JUMP JUMPDEST PUSH32 0x506C65617365206F7267616E697A6520776F726B73686F7020666F7220667574 PUSH0 DUP3 ADD MSTORE PUSH32 0x7572652074696D65736C6F740000000000000000000000000000000000000000 PUSH1 0x20 DUP3 ADD MSTORE POP JUMP JUMPDEST PUSH0 PUSH2 0x99B PUSH1 0x2C DUP4 PUSH2 0x86B JUMP JUMPDEST SWAP2 POP PUSH2 0x9A6 DUP3 PUSH2 0x941 JUMP JUMPDEST PUSH1 0x40 DUP3 ADD SWAP1 POP SWAP2 SWAP1 POP JUMP JUMPDEST PUSH0 PUSH1 0x20 DUP3 ADD SWAP1 POP DUP2 DUP2 SUB PUSH0 DUP4 ADD MSTORE PUSH2 0x9C8 DUP2 PUSH2 0x98F JUMP JUMPDEST SWAP1 POP SWAP2 SWAP1 POP JUMP JUMPDEST PUSH32 0x73656174436F756E74206E6F7420737065636966696564000000000000000000 PUSH0 DUP3 ADD MSTORE POP JUMP JUMPDEST PUSH0 PUSH2 0xA03 PUSH1 0x17 DUP4 PUSH2 0x86B JUMP JUMPDEST SWAP2 POP PUSH2 0xA0E DUP3 PUSH2 0x9CF JUMP JUMPDEST PUSH1 0x20 DUP3 ADD SWAP1 POP SWAP2 SWAP1 POP JUMP JUMPDEST PUSH0 PUSH1 0x20 DUP3 ADD SWAP1 POP DUP2 DUP2 SUB PUSH0 DUP4 ADD MSTORE PUSH2 0xA30 DUP2 PUSH2 0x9F7 JUMP JUMPDEST SWAP1 POP SWAP2 SWAP1 POP JUMP JUMPDEST PUSH32 0x4E487B7100000000000000000000000000000000000000000000000000000000 PUSH0 MSTORE PUSH1 0x22 PUSH1 0x4 MSTORE PUSH1 0x24 PUSH0 REVERT JUMPDEST PUSH0 PUSH1 0x2 DUP3 DIV SWAP1 POP PUSH1 0x1 DUP3 AND DUP1 PUSH2 0xA7B JUMPI PUSH1 0x7F DUP3 AND SWAP2 POP JUMPDEST PUSH1 0x20 DUP3 LT DUP2 SUB PUSH2 0xA8E JUMPI PUSH2 0xA8D PUSH2 0xA37 JUMP JUMPDEST JUMPDEST POP SWAP2 SWAP1 POP JUMP JUMPDEST PUSH0 DUP2 SWAP1 POP DUP2 PUSH0 MSTORE PUSH1 0x20 PUSH0 KECCAK256 SWAP1 POP SWAP2 SWAP1 POP JUMP JUMPDEST PUSH0 PUSH1 0x20 PUSH1 0x1F DUP4 ADD DIV SWAP1 POP SWAP2 SWAP1 POP JUMP JUMPDEST PUSH0 DUP3 DUP3 SHL SWAP1 POP SWAP3 SWAP2 POP POP JUMP JUMPDEST PUSH0 PUSH1 0x8 DUP4 MUL PUSH2 0xAF0 PUSH32 0xFFFFFFFFFFFFFFFFFFFFFFFFFFFFFFFFFFFFFFFFFFFFFFFFFFFFFFFFFFFFFFFF DUP3 PUSH2 0xAB5 JUMP JUMPDEST PUSH2 0xAFA DUP7 DUP4 PUSH2 0xAB5 JUMP JUMPDEST SWAP6 POP DUP1 NOT DUP5 AND SWAP4 POP DUP1 DUP7 AND DUP5 OR SWAP3 POP POP POP SWAP4 SWAP3 POP POP POP JUMP JUMPDEST PUSH0 DUP2 SWAP1 POP SWAP2 SWAP1 POP JUMP JUMPDEST PUSH0 PUSH2 0xB35 PUSH2 0xB30 PUSH2 0xB2B DUP5 PUSH2 0x529 JUMP JUMPDEST PUSH2 0xB12 JUMP JUMPDEST PUSH2 0x529 JUMP JUMPDEST SWAP1 POP SWAP2 SWAP1 POP JUMP JUMPDEST PUSH0 DUP2 SWAP1 POP SWAP2 SWAP1 POP JUMP JUMPDEST PUSH2 0xB4E DUP4 PUSH2 0xB1B JUMP JUMPDEST PUSH2 0xB62 PUSH2 0xB5A DUP3 PUSH2 0xB3C JUMP JUMPDEST DUP5 DUP5 SLOAD PUSH2 0xAC1 JUMP JUMPDEST DUP3 SSTORE POP POP POP POP JUMP JUMPDEST PUSH0 SWAP1 JUMP JUMPDEST PUSH2 0xB76 PUSH2 0xB6A JUMP JUMPDEST PUSH2 0xB81 DUP2 DUP5 DUP5 PUSH2 0xB45 JUMP JUMPDEST POP POP POP JUMP JUMPDEST JUMPDEST DUP2 DUP2 LT ISZERO PUSH2 0xBA4 JUMPI PUSH2 0xB99 PUSH0 DUP3 PUSH2 0xB6E JUMP JUMPDEST PUSH1 0x1 DUP2 ADD SWAP1 POP PUSH2 0xB87 JUMP JUMPDEST POP POP JUMP JUMPDEST PUSH1 0x1F DUP3 GT ISZERO PUSH2 0xBE9 JUMPI PUSH2 0xBBA DUP2 PUSH2 0xA94 JUMP JUMPDEST PUSH2 0xBC3 DUP5 PUSH2 0xAA6 JUMP JUMPDEST DUP2 ADD PUSH1 0x20 DUP6 LT ISZERO PUSH2 0xBD2 JUMPI DUP2 SWAP1 POP JUMPDEST PUSH2 0xBE6 PUSH2 0xBDE DUP6 PUSH2 0xAA6 JUMP JUMPDEST DUP4 ADD DUP3 PUSH2 0xB86 JUMP JUMPDEST POP POP JUMPDEST POP POP POP JUMP JUMPDEST PUSH0 DUP3 DUP3 SHR SWAP1 POP SWAP3 SWAP2 POP POP JUMP JUMPDEST PUSH0 PUSH2 0xC09 PUSH0 NOT DUP5 PUSH1 0x8 MUL PUSH2 0xBEE JUMP JUMPDEST NOT DUP1 DUP4 AND SWAP2 POP POP SWAP3 SWAP2 POP POP JUMP JUMPDEST PUSH0 PUSH2 0xC21 DUP4 DUP4 PUSH2 0xBFA JUMP JUMPDEST SWAP2 POP DUP3 PUSH1 0x2 MUL DUP3 OR SWAP1 POP SWAP3 SWAP2 POP POP JUMP JUMPDEST PUSH2 0xC3A DUP3 PUSH2 0x861 JUMP JUMPDEST PUSH8 0xFFFFFFFFFFFFFFFF DUP2 GT ISZERO PUSH2 0xC53 JUMPI PUSH2 0xC52 PUSH2 0x583 JUMP JUMPDEST JUMPDEST PUSH2 0xC5D DUP3 SLOAD PUSH2 0xA64 JUMP JUMPDEST PUSH2 0xC68 DUP3 DUP3 DUP6 PUSH2 0xBA8 JUMP JUMPDEST PUSH0 PUSH1 0x20 SWAP1 POP PUSH1 0x1F DUP4 GT PUSH1 0x1 DUP2 EQ PUSH2 0xC99 JUMPI PUSH0 DUP5 ISZERO PUSH2 0xC87 JUMPI DUP3 DUP8 ADD MLOAD SWAP1 POP JUMPDEST PUSH2 0xC91 DUP6 DUP3 PUSH2 0xC16 JUMP JUMPDEST DUP7 SSTORE POP PUSH2 0xCF8 JUMP JUMPDEST PUSH1 0x1F NOT DUP5 AND PUSH2 0xCA7 DUP7 PUSH2 0xA94 JUMP JUMPDEST PUSH0 JUMPDEST DUP3 DUP2 LT ISZERO PUSH2 0xCCE JUMPI DUP5 DUP10 ADD MLOAD DUP3 SSTORE PUSH1 0x1 DUP3 ADD SWAP2 POP PUSH1 0x20 DUP6 ADD SWAP5 POP PUSH1 0x20 DUP2 ADD SWAP1 POP PUSH2 0xCA9 JUMP JUMPDEST DUP7 DUP4 LT ISZERO PUSH2 0xCEB JUMPI DUP5 DUP10 ADD MLOAD PUSH2 0xCE7 PUSH1 0x1F DUP10 AND DUP3 PUSH2 0xBFA JUMP JUMPDEST DUP4 SSTORE POP JUMPDEST PUSH1 0x1 PUSH1 0x2 DUP9 MUL ADD DUP9 SSTORE POP POP POP JUMPDEST POP POP POP POP POP POP JUMP JUMPDEST PUSH32 0x4E487B7100000000000000000000000000000000000000000000000000000000 PUSH0 MSTORE PUSH1 0x11 PUSH1 0x4 MSTORE PUSH1 0x24 PUSH0 REVERT JUMPDEST PUSH0 PUSH2 0xD37 DUP3 PUSH2 0x529 JUMP JUMPDEST SWAP2 POP PUSH32 0xFFFFFFFFFFFFFFFFFFFFFFFFFFFFFFFFFFFFFFFFFFFFFFFFFFFFFFFFFFFFFFFF DUP3 SUB PUSH2 0xD69 JUMPI PUSH2 0xD68 PUSH2 0xD00 JUMP JUMPDEST JUMPDEST PUSH1 0x1 DUP3 ADD SWAP1 POP SWAP2 SWAP1 POP JUMP JUMPDEST PUSH32 0x5468697320776F726B73686F7020646F6573206E6F7420657869737400000000 PUSH0 DUP3 ADD MSTORE POP JUMP JUMPDEST PUSH0 PUSH2 0xDA8 PUSH1 0x1C DUP4 PUSH2 0x86B JUMP JUMPDEST SWAP2 POP PUSH2 0xDB3 DUP3 PUSH2 0xD74 JUMP JUMPDEST PUSH1 0x20 DUP3 ADD SWAP1 POP SWAP2 SWAP1 POP JUMP JUMPDEST PUSH0 PUSH1 0x20 DUP3 ADD SWAP1 POP DUP2 DUP2 SUB PUSH0 DUP4 ADD MSTORE PUSH2 0xDD5 DUP2 PUSH2 0xD9C JUMP JUMPDEST SWAP1 POP SWAP2 SWAP1 POP JUMP JUMPDEST PUSH32 0x576F726B73686F7020616C7265616479206163636F6D706C6973686564000000 PUSH0 DUP3 ADD MSTORE POP JUMP JUMPDEST PUSH0 PUSH2 0xE10 PUSH1 0x1D DUP4 PUSH2 0x86B JUMP JUMPDEST SWAP2 POP PUSH2 0xE1B DUP3 PUSH2 0xDDC JUMP JUMPDEST PUSH1 0x20 DUP3 ADD SWAP1 POP SWAP2 SWAP1 POP JUMP JUMPDEST PUSH0 PUSH1 0x20 DUP3 ADD SWAP1 POP DUP2 DUP2 SUB PUSH0 DUP4 ADD MSTORE PUSH2 0xE3D DUP2 PUSH2 0xE04 JUMP JUMPDEST SWAP1 POP SWAP2 SWAP1 POP JUMP JUMPDEST PUSH0 PUSH2 0xE4E DUP3 PUSH2 0x529 JUMP JUMPDEST SWAP2 POP PUSH2 0xE59 DUP4 PUSH2 0x529 JUMP JUMPDEST SWAP3 POP DUP3 DUP3 MUL PUSH2 0xE67 DUP2 PUSH2 0x529 JUMP JUMPDEST SWAP2 POP DUP3 DUP3 DIV DUP5 EQ DUP4 ISZERO OR PUSH2 0xE7E JUMPI PUSH2 0xE7D PUSH2 0xD00 JUMP JUMPDEST JUMPDEST POP SWAP3 SWAP2 POP POP JUMP JUMPDEST PUSH32 0x4E6F7420656E6F75676820657468657273000000000000000000000000000000 PUSH0 DUP3 ADD MSTORE POP JUMP JUMPDEST PUSH0 PUSH2 0xEB9 PUSH1 0x11 DUP4 PUSH2 0x86B JUMP JUMPDEST SWAP2 POP PUSH2 0xEC4 DUP3 PUSH2 0xE85 JUMP JUMPDEST PUSH1 0x20 DUP3 ADD SWAP1 POP SWAP2 SWAP1 POP JUMP JUMPDEST PUSH0 PUSH1 0x20 DUP3 ADD SWAP1 POP DUP2 DUP2 SUB PUSH0 DUP4 ADD MSTORE PUSH2 0xEE6 DUP2 PUSH2 0xEAD JUMP JUMPDEST SWAP1 POP SWAP2 SWAP1 POP JUMP JUMPDEST PUSH32 0x4E6F7420656E6F75676820736561747320617661696C61626C65000000000000 PUSH0 DUP3 ADD MSTORE POP JUMP JUMPDEST PUSH0 PUSH2 0xF21 PUSH1 0x1A DUP4 PUSH2 0x86B JUMP JUMPDEST SWAP2 POP PUSH2 0xF2C DUP3 PUSH2 0xEED JUMP JUMPDEST PUSH1 0x20 DUP3 ADD SWAP1 POP SWAP2 SWAP1 POP JUMP JUMPDEST PUSH0 PUSH1 0x20 DUP3 ADD SWAP1 POP DUP2 DUP2 SUB PUSH0 DUP4 ADD MSTORE PUSH2 0xF4E DUP2 PUSH2 0xF15 JUMP JUMPDEST SWAP1 POP SWAP2 SWAP1 POP JUMP JUMPDEST PUSH0 PUSH2 0xF5F DUP3 PUSH2 0x529 JUMP JUMPDEST SWAP2 POP PUSH2 0xF6A DUP4 PUSH2 0x529 JUMP JUMPDEST SWAP3 POP DUP3 DUP3 SUB SWAP1 POP DUP2 DUP2 GT ISZERO PUSH2 0xF82 JUMPI PUSH2 0xF81 PUSH2 0xD00 JUMP JUMPDEST JUMPDEST SWAP3 SWAP2 POP POP JUMP INVALID LOG2 PUSH5 0x6970667358 0x22 SLT KECCAK256 BLOCKHASH 0x27 DUP7 CALLVALUE DUP7 0xEE 0x5E INVALID 0xD1 BALANCE 0xE4 PUSH19 0x973552E7BC685A2F2462C7BE51A5A254FDE70D 0xCF PUSH5 0x736F6C6343 STOP ADDMOD AND STOP CALLER "
				},
				"gasEstimates": {
					"creation": {
						"codeDepositCost": "806000",
						"executionCost": "836",
						"totalCost": "806836"
					},
					"external": {
						"createWorkshop(string,uint256,uint256,uint256)": "infinite",
						"nextID()": "2403",
						"registerWorkshop(uint256,uint256)": "infinite",
						"seats(address,uint256)": "infinite",
						"workshops(uint256)": "infinite"
					}
				},
				"methodIdentifiers": {
					"createWorkshop(string,uint256,uint256,uint256)": "298a9aec",
					"nextID()": "1e96917d",
					"registerWorkshop(uint256,uint256)": "61b36897",
					"seats(address,uint256)": "a30dc775",
					"workshops(uint256)": "d422ea60"
				}
			},
			"storageLayout": {
				"storage": [
					{
						"astId": 19,
						"contract": "cryptobinar.sol:cryptobinar",
						"label": "workshops",
						"offset": 0,
						"slot": "0",
						"type": "t_mapping(t_uint256,t_struct(Workshop)14_storage)"
					},
					{
						"astId": 25,
						"contract": "cryptobinar.sol:cryptobinar",
						"label": "seats",
						"offset": 0,
						"slot": "1",
						"type": "t_mapping(t_address,t_mapping(t_uint256,t_uint256))"
					},
					{
						"astId": 27,
						"contract": "cryptobinar.sol:cryptobinar",
						"label": "nextID",
						"offset": 0,
						"slot": "2",
						"type": "t_uint256"
					}
				],
				"types": {
					"t_address": {
						"encoding": "inplace",
						"label": "address",
						"numberOfBytes": "20"
					},
					"t_mapping(t_address,t_mapping(t_uint256,t_uint256))": {
						"encoding": "mapping",
						"key": "t_address",
						"label": "mapping(address => mapping(uint256 => uint256))",
						"numberOfBytes": "32",
						"value": "t_mapping(t_uint256,t_uint256)"
					},
					"t_mapping(t_uint256,t_struct(Workshop)14_storage)": {
						"encoding": "mapping",
						"key": "t_uint256",
						"label": "mapping(uint256 => struct cryptobinar.Workshop)",
						"numberOfBytes": "32",
						"value": "t_struct(Workshop)14_storage"
					},
					"t_mapping(t_uint256,t_uint256)": {
						"encoding": "mapping",
						"key": "t_uint256",
						"label": "mapping(uint256 => uint256)",
						"numberOfBytes": "32",
						"value": "t_uint256"
					},
					"t_string_storage": {
						"encoding": "bytes",
						"label": "string",
						"numberOfBytes": "32"
					},
					"t_struct(Workshop)14_storage": {
						"encoding": "inplace",
						"label": "struct cryptobinar.Workshop",
						"members": [
							{
								"astId": 3,
								"contract": "cryptobinar.sol:cryptobinar",
								"label": "organizer",
								"offset": 0,
								"slot": "0",
								"type": "t_address"
							},
							{
								"astId": 5,
								"contract": "cryptobinar.sol:cryptobinar",
								"label": "name",
								"offset": 0,
								"slot": "1",
								"type": "t_string_storage"
							},
							{
								"astId": 7,
								"contract": "cryptobinar.sol:cryptobinar",
								"label": "date",
								"offset": 0,
								"slot": "2",
								"type": "t_uint256"
							},
							{
								"astId": 9,
								"contract": "cryptobinar.sol:cryptobinar",
								"label": "registrationFee",
								"offset": 0,
								"slot": "3",
								"type": "t_uint256"
							},
							{
								"astId": 11,
								"contract": "cryptobinar.sol:cryptobinar",
								"label": "seatCount",
								"offset": 0,
								"slot": "4",
								"type": "t_uint256"
							},
							{
								"astId": 13,
								"contract": "cryptobinar.sol:cryptobinar",
								"label": "seatRemaining",
								"offset": 0,
								"slot": "5",
								"type": "t_uint256"
							}
						],
						"numberOfBytes": "192"
					},
					"t_uint256": {
						"encoding": "inplace",
						"label": "uint256",
						"numberOfBytes": "32"
					}
				}
			},
			"userdoc": {
				"kind": "user",
				"methods": {},
				"version": 1
			}
		}
	}
}